:101000006F00703B00000000BE120000C012000024
:1010100000000000000000000000000000000000D0
:1010200000000000000000000000000000000000C0
:10103000B41B000000000000B41B00000000000012
:10104000B41B0000B41B0000B41B0000B41B000064
:1010500042190000B41B0000B41B0000B41B0000C8
:10106000B41B0000B41B0000B41B0000B41B000044
:10107000B41B0000B41B0000B41B0000B41B000034
:10108000A2180000B41B0000B41B0000B41B000039
:10109000B41B0000B41B00009C19000000000000FD
:1010A000511126C022C206C4828282441244A24048
:1010B000310182802A86014593F6150091C232954E
:1010C00085810606F5F9828000000000634E050266
:1010D00063C305042E86AA857D5515C285466378AF
:1010E000B6006356C00006068606E36CB6FE0145F0
:1010F00063E4C500918D558D85820582F5FA828065
:101100008682C93F2E8582823305A0406347B000A6
:10111000B305B040C1B7B305B0408682653F330523
:10112000A0408282868263C70500634905005D375F
:101130002E858282B305B040E35B05FE3305A040F7
:10114000513F3305B040828200002A8309CA83835D
:101150000500230073007D16050385056DFA828066
:101160002A8311C62300B3007D16050365FE828025
:101170000E2548416F00704E0E2548416F00304EDD
:10118000EFF21FF22A84AE8408408945EF00706BAD
:1011900065DD0840A685EF00506A08408545EF00F0
:1011A000506A65DD0840EF0090691375F50FF5BDD5
:1011B000EFF21FEF50C116A558C51EA90CC12A8415
:1011C000453F48440E28EF0090490145F9BDEFF234
:1011D0003FED2A84AE844D379305F00F22854D37BD
:1011E00088A0228571370145C9B514213707002031
:1011F0009307870394A31431130687031307870308
:1012000094B33421B4A33431B4B35421D4A35431AE
:10121000D4B37421F4A37431F4B38147050663C6D3
:10122000D70036951C311EA78280B305F5008C25AA
:1012300085070CB6E5B7EFF2BFE6B70400206111F1
:101240009387840332C2F0332AC02E841385A18091
:101250008145393702451387840323AC04022322D6
:10126000070023140700513793878403B023854573
:10127000631FB6028E2785EDC833930500029246A0
:101280006317B50290A2B4231387840314A0B43368
:1012900014B0D42334A0D43334B0F42354A0F433A2
:1012A00054B09546F033050711066354D60021016A
:1012B000EDBB6C273306D40085060CA2E5B701A070
:1012C000B707EFBE37E700E0938707083CC701A0E8
:1012D000EFF21FDDAA84370502402E841305450472
:1012E0008145EF00B025269463848402B74701400E
:1012F0001385078093050008EF007073B74701401E
:1013000075D58C20138507808504EF005071E9BFE7
:1013100069BBEFF2FFD8130181FB0545EF003037C1
:10132000EF00F002EF00507685451305100302C868
:1013300002CA02CC02CE02D002D202D402C402C639
:10134000EF0010470D448544C1470C083715014094
:10135000E48022CA3ECCEF003028C1473ECCB7170C
:101360000140138507400C08E48022CAEF00D02614
:10137000B7170140138507404147930680020C08C8
:10138000F88036CC22CAEF00302591450D45EF009C
:10139000F02DA1464147680836D23ACE26D402D075
:1013A000EF00101B1307401128007884448526C6DF
:1013B000EF00502EB7170140A14613850740F48077
:1013C0000C089306800236CC22CAEF00F0208D452F
:1013D0000D45EF00B029A146680836CE36D226D496
:1013E00002D0EF00F016130740112800788426C6BB
:1013F00023050100EF00102A8947930680020C089C
:1014000037150140FC8036CC22CAEF00F01C854520
:101410000945EF00B0258947A14668083ECE36D27F
:1014200026D402D0EF00D012130740112800788490
:1014300026C623050100EF00F025A14641470C0810
:1014400037150140F48022CA3ACCEF00F0189146DB
:1014500041470C0837150140F48022CA3ACCEF000E
:10146000B0174147F8800C0841473715014022CAA0
:101470003ACCEF007016B71701401385074091462C
:1014800041470C08F4803ACC22CAEF00F01485459D
:10149000054502CE02D02312010202C802CAEF00A3
:1014A00010333D473ACE3D671307F7A56C08370563
:1014B00000403AD0EF009039854537050040EF00F5
:1014C00070409306000437E700E02322D728054642
:1014D000854537050040EF00D03D1307601289476E
:1014E0000808F8802309F10026CAEF00B01A130596
:1014F0002003EF00B05C854537050040EF00F03970
:10150000116585451305150202C802CA02CC02CE38
:1015100002D002D202D402C402C6EF007029B7077B
:101520000140D8433706E0FF6D16718FD8C3D8430A
:101530003706200093060004518FD8C3B717014027
:101540006147138507400C083ACCF48022CAEF00AB
:10155000B00893070002FC80B7170140914613853D
:1015600007400C0836CC22CAEF001007F1679387BA
:1015700007203ECEB7070C003ED2B7470140138587
:1015800007806C0802D023140102EF00B036B74781
:10159000014005469305505213850780EF009043A4
:1015A0009307001228007C8426C623050100B74457
:1015B0000140EF00300E138504808545EF00504058
:1015C0001306C00281456808613E85450545EF0068
:1015D000501C3706024013054604EF0080699387CC
:1015E00044803ECE3706024093871196930600044E
:1015F0004147130546043ED09304000885676C08F4
:1016000036D43AD2BEC002D626D802DA02DC02DED6
:1016100082C2EF00206FB74701400546138507805F
:1016200093050008EF00903E8567138547008545C8
:10163000EF0010189307000661476C08371501404A
:10164000FC863AD222D0EF00207991466C083715FB
:10165000014036D2E486EF002078B7070020938758
:10166000C704B7060401B7050020D4C36147B70615
:101670000002938505053735014098CB23A4070068
:10168000D4C7EF00B016854537350140EF0050193B
:101690009387419ADC331384419ABDE3054685451F
:1016A00037150140EF00E07BB71701401385074075
:1016B00005468545BE84EF00C07A0146A145371531
:1016C0000140EF00007A0146914537150140EF00D7
:1016D00040790546C14537150140EF008078054641
:1016E000914513850440EF00C077BD2B9307101080
:1016F0005CC008C0230404009307800873A007306F
:101700009387C18D03C7270485476310F7021386AB
:1017100001969385F1911385C18DBE84293E1306F0
:10172000000481451385C18D253C7C208944638458
:10173000971663EBF410639207141305803EEF00D5
:10174000F03789656146938585306808FD3A6808F9
:10175000EF00703A93150501C1816808953E8965CF
:101760003146938505320808CD320808EF00B038BD
:1017700093150501C1810808A13E91451385419A41
:10178000813E85679387D7A028007C8423050100CC
:10179000EF00703693150501C1812800153E1385B1
:1017A0004188A14737170140C14637160140B73578
:1017B0000140FD3A37160140B70400209147371722
:1017C0000140914613060640B73501401385440693
:1017D000C5321385418893057100A3030100C53A02
:1017E000938741883EC001E99883B9476305F700B4
:1017F000024785473CAB9305710013854406C13A07
:1018000009E99883B9476306F700938744060547BB
:10181000B8AB0146854537150140EF0080643715A8
:1018200001400146854513050540EF00806382476E
:10183000B82B85476307F70093844406B8286313E1
:10184000F70095477CA06DBD0D47E39BE7EA8965EE
:1018500055469385C5326808CD386808EF00B02931
:1018600093150501C1816808A534054685453715DE
:101870000140EF00005F9147F1B778308547E311F1
:10188000F7E8371501400546854513050540EF008B
:10189000405D64A0B5B518248547E3F3E7E68D47BE
:1018A00055B7711122C037440140930550521305BA
:1018B0000480EF00701829C913050480EF00B016EA
:1018C00083C701819386C18D3386F60083C20604E7
:1018D00085071375F50F93F7F70F08A22388F1809A
:1018E00005469385C18D6395C20203C6F1801DEE46
:1018F000A387A180238006043745014093055052F9
:1019000013050580EF001017024411017300203009
:101910009302A00A631C550003C5F18001E92380EE
:10192000C60423810604A3870180F9B703C7F180A9
:101930000507E353F7FC85472381F50423880180DD
:1019400065BF4145BD2119CD9387419AF4230547D1
:101950006388E6000146854537150140F8A3112349
:101960004145AD212145B12111C983C7B19A054730
:101970006394E700A38CF18821458929094515293D
:1019800001CD83C7B19A05476396E700370700206A
:10199000A30CF70609451D29730020306111854508
:1019A0003705004022C226C0252761C19387419A8E
:1019B000F82385471384419A6312F70683C7E180B1
:1019C00083D6C180850793F7F70F85062396D180CC
:1019D0002387F180AD4663F2F602B71701408545D3
:1019E00013850740AD21B717014013361500854513
:1019F00013850740BD212387018003D7C18093074A
:101A0000301F63FDE700371501408D4701468545CE
:101A100013050540239601807EA0A12178308547DB
:101A20006317F70003D7C18019C32396018078207C
:101A300095476318F70283C7A1800D47850793F781
:101A4000F70F2385F180637EF70085453715014048
:101A5000FD2E1336150085453715014019212385C4
:101A6000018085453705004041251244824421010B
:101A700073002030EFF2CFE2371402401C403707EA
:101A8000FFF8414593E717001CC05C40F98F5CC02C
:101A90001C403707F7FE7D17F98F1CC01C40370725
:101AA000FCFF7D17F98F1CC05C4041777D17F98FD3
:101AB0005CC0B7079F001CC405291C4C93E70702B4
:101AC0001CCCB71701409387074098431377F7F072
:101AD00098C398431367070898C3094798CBB7F78B
:101AE000FF1F03C5477D9307F00F6304F5007D8951
:101AF000E52EB72702409843C176FD16719B98C327
:101B000098431367170098C3B7170240D843D8C348
:101B1000D843758FD8C3D843B7060001D8C39843BC
:101B2000558F98C3B70600029843758F75DFD84369
:101B3000B7160240719BD8C3D84313672700D8C398
:101B40002147DC42B18BE39EE7FE6FF00FD63717DB
:101B500002405C43A146B18B6394D7045C43377564
:101B6000DC02130505C0B7160240D842B7070020B3
:101B70009387070011833D8BBA979C23D84293F536
:101B8000F70F13770708B357F50005E3EFF24FD1CE
:101B9000EFF04FD4370700202328A7006FF0EFD0D5
:101BA00037356E01130505607DBF370700202328F8
:101BB000F700828001A097F1FF1F938121C8138154
:101BC00081FC17F5FFFF1305E54D97E5FF1F938592
:101BD000654317E6FF1F1306E64263FAC50083223A
:101BE000050023A0550011059105E3EAC5FE170580
:101BF00000001305657597E5FF1F9385A54017E65F
:101C0000FF1F1306A64363FAC5008322050023A025
:101C1000550011059105E3EAC5FE17E5FF1F130501
:101C2000E5419385C19B6377B5002320050011052D
:101C3000E36DB5FE896293820288739002308D4213
:101C40007390428097F2FFFF9382C23B93E232008F
:101C500073905230EFF01FE297F2FFFF9382A26B76
:101C60007390123473002030B7F7FF1F03A5477C31
:101C700082801C4141677917F98F1CC12320050020
:101C80002322050023240500B70702402326050070
:101C9000138787006317E500D8431367F700D8C39D
:101CA00082801387C7016316E500D8431367070FC7
:101CB000FDB7138707036318E500D843856693864D
:101CC00006F0558FE9BF138747046315E500D84335
:101CD000BD66C5BF138787056316E500D843B70601
:101CE0000F00C5B71387C7066316E500D843B706CC
:101CF000F000C1BF13870708E314E5FAD843B7061D
:101D0000000FC1B71841E177BD0794517D8F9C4505
:101D1000D58F9449D58FD449D58F944DD58FD44D37
:101D2000D58FD451D58F9455D58FD98F1CC1DC4513
:101D30005CC19C411CC5DC415CC582801C4189C5DD
:101D400093E717001CC1828041677917F98FDDBFC7
:101D500058410C415045B7070140938707403E97D3
:101D600093C6F5FF39C29043758E90C3D043F18E70
:101D7000D4C31443CD8E14C3184190479346F7FF44
:101D8000758E90C7D047F18ED4C7144541466399EC
:101D9000C6009447D98E94C7D447558FD8C7828040
:101DA000B6979443558F98C382801C43F58F1CC30C
:101DB0008280B7070140938707409443DC4B2A8712
:101DC0007D8D01C5F98E3335D0008280B707014083
:101DD00093870740C8CB8280944593F7060113F39D
:101DE000F60081C7DC413363F30083D2050093F72B
:101DF000F20FA9CF0C41611122C226C08147930383
:101E000080023D449304800405473317F70033F6FE
:101E1000E2006310C7026397760258C91396270041
:101E20003317C4001347F7FF6D8F3316C300B36534
:101E3000E60085072147E399E7FC12440CC1824480
:101E400021018280E39C96FC18C9C9BF82805C4551
:101E500033F5F5003335A00082800CC982804CC96F
:101E6000828019C20CC982804CC982803707014028
:101E7000144786058D47B397B70093C7F7FFF58FD3
:101E80001CC71C473315B5005D8D08C7828023AA87
:101E9000A19A828003A7419B854714216310F70212
:101EA0001C31639CE7023C219A0793E707F837E768
:101EB00000E093F7F70F36972300F740054793D7D5
:101EC00056003317D700544189CE938707048A07F9
:101ED000B7E600E0B69798C38280EDF33C219A07FD
:101EE000F9B793870706E5B7371702401C430E057D
:101EF00093F777F05D8D08C38280EFF26F9A371702
:101F000002405C43A1462A84B18B639FD7065C43A1
:101F1000B777DC02938707C01CC0371602405442D3
:101F200037070020130787029182BD8A369708235E
:101F300058429375F50F1377070833D5A70001E7CB
:101F40003E85EFF02F9948C008C448C4B717024037
:101F5000DC438D46AD83FD8B13D737008A07F18BA9
:101F6000D98F13F6370113F7370063F4C6001387D0
:101F700047FFB707002093874701BA978C23EFF0FC
:101F80006F9508C86FF06F92B7376E01938707603F
:101F900061B799C5371702405C4BC98F5CCB828013
:101FA000B7170240D84B1345F5FF798DC8CB828017
:101FB00099C5371702401C4FC98F1CCF8280B717B5
:101FC0000240984F1345F5FF798D88CF828099C5DF
:101FD000371702405C4FC98F5CCF8280B717024031
:101FE000D84F1345F5FF798DC8CF82801E218D66AD
:101FF0009386060433F7D700B6219E21D58FD621CC
:10200000D58FF621D58F9625D58FB625D58FD62598
:10201000D58FF625D58FD98F1EA19E291EA9828026
:102020001E2189C593E707041EA18280C207C183D0
:1020300093F7F7FBC207C183C5BF4EA582804A252F
:1020400082800A256D8D3335A00082801E213737AE
:102050000140130707C0C207C1836306E5003707C5
:1020600000406316E500BA2193F7F7F8D98FFA21FB
:1020700093F7F7CFC207C183D98F1EA1DE215EB5CA
:102080009E211EB5B7370140938707C06314F50042
:102090009C251EB985475EA982801E2189C593E7CC
:1020A00017001EA18280C207C183F99BC207C183AA
:1020B000CDBF5E2501C6CD8F5EA5828093C5F5FF9D
:1020C000ED8FDDBF93C5F5FFC205C1810EA98280EA
:1020D0001E294A25ED8F4205418189C76D8D333513
:1020E000A00082800145828093C5F5FFC205C181B1
:1020F0000EA98280EFE2DFFA1629F577FD17FD8E33
:10210000FE21DA252111D58F1EA95625FD7793874B
:10211000379FFD8EDE212A84AE84D58F9625D58FFC
:10212000B625D58F5EA55E29C207C18393F7F7CF89
:10213000D98F5EA94800D133B74701409387078004
:102140006313F406C247139517005A243E950E05F3
:102150003E9593170701C1878C4063D80704860515
:10216000EFE05FF7930540062AC0EFE0BFF6824735
:1021700093144500930540063E85EFE07FF85E240A
:10218000C207C18763D507020E05930540061305F4
:102190002503EFE03FF41D89C98CC204C18006A469
:1021A00061016FE09FF0B24779BF8A0555BF120504
:1021B0009305400613052503EFE0DFF13D89E9BFF4
:1021C0005E2589C50967D98F5EA5828079777D17DD
:1021D000F98FDDBF13F7F50F85471583B395B7006A
:1021E0006319F7009307C500984301CE4D8F98C33C
:1021F0008280894693074501E318D7FE93070501BE
:10220000E5B793C5F5FFF98D8CC382805E2901C6C1
:10221000CD8F5EA9828093C5F5FFED8FDDBF93F56D
:10222000F51F4EA182804A211375F51F82800A2175
:102230006D8D3335A000828013F7F50F8546158329
:10224000AA873395B6006310D702DA279E23798DCB
:10225000C207C18301C9A18105473317B700F98FB0
:102260003335F000828089466314D7009A2BF9BF7A
:10227000DA2BE9BFA1818547B397B70093C7F7FF72
:10228000C207C1831EA18280EFE29FE1B707002051
:1022900003A50701B7157A0093850520EFE09FE3BA
:1022A0001375F50F238DA19A93175500898F8A070F
:1022B0003E950E05239CA19A6FE03FDFEFE25FDEC3
:1022C00037F400E05C40AA85F99B5CC003D5819B94
:1022D000EFE05FDE08C8232404001C4093E71700EA
:1022E0001CC0B7F700E0D843058B75DF9843799B96
:1022F00098C36FE09FDBAA879823850775FF338516
:10230000A7407D15828000002D2D2D2D2D20414DC3
:102310004F4E204C696E6B202D2D2D2D2D0D0A005A
:102320004465766963652049443A2000436F6E6EC8
:10233000656374696F6E204641494C4544210D0A1E
:042340000000000099
:102344000102030405060708010203040506070841
:10235400006CDC020204060804080C1008101820A3
:102364001020304020406080010203040506070865
:0823740001020304050607083D
:0400000300001000E9
:00000001FF
