:101000006F10E05A00000000D0190000D219000053
:1010100000000000000000000000000000000000D0
:1010200000000000000000000000000000000000C0
:10103000AC25000000000000AC250000000000000E
:10104000AC250000AC250000AC250000AC2500005C
:10105000661E0000AC250000AC250000AC25000099
:10106000AC250000AC250000AC250000AC2500003C
:10107000AC250000AC250000AC250000AC2500002C
:10108000C61D0000AC250000AC250000AC2500000A
:10109000AC250000AC250000A01E000000000000F0
:1010A000511126C022C206C4828282441244A24048
:1010B000310182802A86014593F6150091C232954E
:1010C00085810606F5F9828000000000634E050266
:1010D00063C305042E86AA857D5515C285466378AF
:1010E000B6006356C00006068606E36CB6FE0145F0
:1010F00063E4C500918D558D85820582F5FA828065
:101100008682C93F2E8582823305A0406347B000A6
:10111000B305B040C1B7B305B0408682653F330523
:10112000A0408282868263C70500634905005D375F
:101130002E858282B305B040E35B05FE3305A040F7
:10114000513F3305B040828200002A8309CA83835D
:101150000500230073007D16050385056DFA828066
:1011600015C22A8385466367B500FD561307F6FF4F
:101170003A93BA9583830500230073007D16369356
:10118000B6956DFA82802A8311C62300B3007D16BE
:10119000050365FE82800E2548416F10407C0E29B4
:1011A00048456F10007C0E2548416F10807BEFF2A0
:1011B0003FEF2A84AE8408408945EF10D01865DDE2
:1011C0000840A685EF10B01708408545EF10B0170E
:1011D00065DD0840EF10F0161375F50FF9B5EFF265
:1011E0003FEC0CC150C116A558C51EA92A8465370D
:1011F000228575375DBDEFF2BFEA71112E84B2848E
:101200002AC0A2944D3763179400024569370145FF
:10121000110161BD0C2002450504513FEDB7EFF20D
:101220003FE8611132C2B6842E842AC0AD3F024528
:101230009375F401AD3F2A8402459305F00F853F75
:10124000124608A20245813F91C080A001452101BC
:10125000A9BDEFF2FFE46111B28436C22E842AC028
:10126000993702459375F40193E5050289372A847D
:101270000245A6852D3F0245393F924691C280A284
:10128000014521011DB5EFF2BFE12A84AE84213F63
:101290009305F00F2285213F88A02285ED3D014571
:1012A00029B5EFF2FFDF7111930531002A84E13F88
:1012B000908130AC9377060499CB8547A30BF40655
:1012C000935716409D8B1D476383E7001CBC9377A3
:1012D000060291C78547230CF406A30D04009377FB
:1012E000060191C78547A30CF406A30D04008146AF
:1012F000137606079D452285A93F11017DB3EFF2C4
:101300003FDA61112A84613D22857135130660043C
:101310008145230C0400230D040013054403A53567
:1013200081461306310081452285D53D9081814655
:1013300081451376D60F2285293F85441305400643
:1013400044D4EF1010285C5081468D45903322859F
:101350000D8A01375C508146954590232285158A78
:10136000CD3D5C50A30101009847631497002147CD
:10137000D881D84785469C81630AD70E8946630B7E
:10138000D70E93E767006305070E90818146994564
:101390002285C1355C5081469145D023FE232285AC
:1013A0003D8A92075D8E1376F60FD0815D355C50D5
:1013B00081460546BC2391E3014685452285513D82
:1013C000814605468945228569355C50BC33D5C7C1
:1013D0009D679387073509464C0022857C82213D15
:1013E00081461146F5452285AD3581460546F145D4
:1013F00022858535855705464C0022855C82E53B74
:10140000895705464C0022855C82F53381461306D8
:1014100000079D452285353D1850B147DC81854741
:101420006314F700B547DC819081814681452285B0
:101430000D3581461306310081452285CD339081DB
:1014400081468145136626002285D08119350945DC
:10145000EF10D01A185085476319F7020E28484438
:10146000EF10E04F91475CD4210181B193E7470031
:10147000DC8121BF93E72700E5BF81460146F545A2
:101480002285C13B814601469DB72285093B89479C
:10149000D9BFEFF2FFC0243D61112A8481E0854766
:1014A0003CBC1C5099C791475CC8854426852101E6
:1014B000EDBE834744057D47FD1793F7F70FE366BD
:1014C000F7FE2285E9398146130600039D45231C5A
:1014D00004062285BD3B8957054693057100228588
:1014E000DC83113B2285C1319305000A2285C1317D
:1014F00081470347440563EFE700228569390E28D9
:101500004844EF10C04513054006EF10900B2285AC
:10151000793169BF3307F4008345470322853EC014
:1015200079318247850793F7F70FE1B7EFF25FB79D
:101530001451054751112A8491476390E60613061A
:1015400000028145130555053D392285A30A04068D
:10155000230B0406893993050006228589399305F2
:10156000F00F2285A931AA84228535319387F4FFB3
:1015700093F7F70F7D476376F70285570546930586
:10158000B1002285DC8585398146130600049D451E
:101590002285C1318D47A30B04065CC80545310186
:1015A00029B6228509319305100622850931A287C3
:1015B000338784009305F00F22853AC23EC0C53EB2
:1015C00082471247A38AA7048507E395E7FE228591
:1015D000D9368146130600049D4522859D39014573
:1015E000A30B0406A30A94065DBFEFF27FAB5C5128
:1015F00061112A849C33AE84890793F7F70F3EC0AC
:101600005D369305000322855D368147824613F7D8
:10161000F70F6368D7022285BD3E5C50BC2399CF8B
:10162000228551369305A002228551368147824694
:1016300013F7F70F6360D7022285B13E0145210100
:10164000ADB43387F4000C2322853EC28D36924719
:1016500085076DBF3387F4000C2322853EC2813E8F
:1016600092478507E9B7EFF2BFA351112AC095470A
:1016700063E1B7065C512E84B2849C333EC22536AA
:1016800002459305A40093E5050293F5F50F053691
:10169000854663EC860292470147890793F7F70F67
:1016A0009376F70F63E8F6000245F5340145310102
:1016B0006FF0BF9FB386E4008C2202453EC43AC25D
:1016C000FD341247A2470507E1BF8C200245C5340F
:1016D000E1BF0545E9BFEFF2BF9CB70400201384CA
:1016E00084030346D404814513850185693C37058D
:1016F000002069468145130545042313040423246F
:1017000004042326040423AC04022322040023241B
:101710000400953C6FF07F99EFF29F9871112E8431
:10172000AA8432C04D3F9420024674A09C307CB005
:10173000BC201CA4BC301CB4D82038A4CC302CB4A1
:1017400089CD01473385E400034365003305E40098
:10175000050723066500E347B7FE05470945639E75
:10176000E604130700020D456389E7046361F7048B
:1017700041476391D7041CA230347A209307A0FA22
:101780002303F40493078600A303F4042314E4045E
:101790003C241A24A306C4042306F4042315E404F9
:1017A0009305C40013050405EFF09F9B31A01307B8
:1017B000F00F11456383E700014511016FF0FF8EC3
:1017C0007C219CA17C319CB11C25BCA11C35BCB1E9
:1017D0003C25DCA13C35DCB185E33C3599071CA2F6
:1017E00082803307F50054273387F500850774A3FB
:1017F0003835E3C8E7FED5B78147DDBF2A86697370
:10180000416581467D15050393970601C18363E316
:10181000B7008280B307D6009C233D8DA147137784
:101820001500058111C73347650013150701418174
:10183000FD1793F7F70FE5F78506F9B7EFF25F8627
:1018400071112E842AC0B28479350245914618213F
:101850002303E4041C31A303F4046391D70418A008
:101860001CB0382138A0383138B058315421220703
:10187000558F5AA00C300505B5C9FD15C205C181AB
:10188000B53F5A2085476317A70034204147A94731
:101890006398E6063E8511016FF03F8138212304ED
:1018A000E4043831A304E40458212305E404583146
:1018B000A305E40478212306E4047431A306D404C8
:1018C00091EAB306F500983294222207558F231728
:1018D000E4044DB701473306E5000C263306E40067
:1018E00005072308B604E348D7FEE1BF9385F7FF59
:1018F000C205C18121370357E4048547E31CA7F8DB
:101900008346840405478947E396E6F80347B40411
:10191000930700026300F70263EAE7008D47E30BD9
:10192000D7F6C146E308D7F68147ADB79306F00F67
:101930009147CDBF94A0835784040346D4049305F4
:1019400004057EA08357A4041305C4001EA4835776
:10195000C4043EA4EFF0DF80C1BFEFF26FF4834711
:1019600065042E849CA1834775049CB1834785043C
:10197000BCA183479504BCB18347A504DCA1834780
:10198000B504DCB18347C504FCA18347D504FCB191
:1019900095EF8344D5041305140093857400A104C6
:1019A00093F4F40FA13DA29488A0218188B06FF038
:1019B000CFEF3307F500834607053307F4008507AB
:1019C00014A70347D504E3C6E7FEE1B78147D5BFB7
:1019D00001A0B707EFBE37E700E0938707083CC7D1
:1019E00001A0EFF2EFEB1301C1FD854513051003D4
:1019F00002C402C602C802CA02CC02CE02D002C091
:101A000002C2EF10200B0D448544C1472C0037154E
:101A10000140648422C63EC8EF00506CC1473EC8F6
:101A2000B71701402C0013850740648422C6EF00DD
:101A3000F06A930780023EC8B7170140138507403C
:101A400041472C00788422C6EF00506991450D452E
:101A5000EF0010724147A14648083ACA36CE26D058
:101A600002CCEF00704E930740110A857C804481C0
:101A700026C2EF007072B717014013068004138569
:101A80000740A1462C0032C8748422C6EF001065BE
:101A90008D450D45EF00D06D3147A14648083ACE3F
:101AA00036CA26D002CCEF00304A930740110A858F
:101AB0007C8026C223010100EF00106E1306800413
:101AC00089462C003715014032C8748422C6EF00C5
:101AD000F06085450945EF00B069894631474808FF
:101AE00036CA3ACE26D002CCEF00104693074011FA
:101AF0000A857C8026C223010100EF00F069A1461F
:101B000041472C0037150140748422C63AC8EF00C3
:101B1000F05C914441472C0037150140648422C693
:101B20003AC8EF00B05B414778842C004147371535
:101B3000014022C63AC8EF00705AB717014041472A
:101B40002C0013850740648422C63AC8EF00105960
:101B5000130141026FF06FD5EFF28FD4311185453B
:101B6000054502C402C62318010002C002C2EF00EC
:101B70005076BD473EC4BD679387F7A52C00370557
:101B800000403EC6EF00D07C854537050040EF1091
:101B9000A00313070004B7E700E023A2E7280546E7
:101BA000854537050040EF100001930760127C80E7
:101BB00089475C810A8585473EC2EF00F05D1305C9
:101BC0002003EF10A023854537050040EF00307D4E
:101BD00051016FF08FCDEFF2AFCC11651301C1FD54
:101BE00085451305150202C402C602C802CA02CC0A
:101BF00002CE02D002C002C2EF00D06BB707014094
:101C0000D843B706E0FFED16758FD8C3D843B706A3
:101C1000200037140140558FD8C3930700047C84FB
:101C20008D44E1472C001305044026C63EC8EF0052
:101C3000F04A930700027C842C009147130504406E
:101C400026C63EC8EF009049F167374401409387AC
:101C500007203ECA4C08B7070C00130504803ECE8F
:101C600002CC23100102EF00307905469305505253
:101C700013050480EF106006930700127C800A852C
:101C800085473EC223010100EF0010518545130531
:101C90000480EF104003130141026FF00FC1EFF217
:101CA0002FC0130141FD1306C00281450A85EFF0E4
:101CB0008FCD85450545EF00105EB70402401385C2
:101CC0004404EF00901A37440140930744803EC01B
:101CD000938751A83EC2C1473EC4930700043EC645
:101CE000930700083ECA8A858567138544043ED25F
:101CF00002C802CC02CE02D002D4EF00302005464A
:101D00009305000813050480EF10A0001301C10221
:101D10006FF0AFB9EFF2CFB80565511185451105E8
:101D2000EF0050599307000661447C808A858D47F7
:101D30003715014022C43EC2EF00503A9307000815
:101D40007C808A859147371501403EC4EF001039E9
:101D50009387818937070401D8C39385C1893707E1
:101D600000023735014023A40700D8C780CBEF001D
:101D70003058854537350140EF00D05A31016FF0BA
:101D8000CFB2EFF2EFB1AA84370502402E841305DB
:101D900045048145EF00101A269463848402B747F6
:101DA00001401385078093050008EF00B078B7471E
:101DB000014075D58C20138507808504EF0090764F
:101DC000E9BF6FF08FAE711122C037440140930517
:101DD000505213050480EF0090762DC9130504803E
:101DE000EF00D07483C75189938601A43386F6002F
:101DF00085071375F50F93F7F70F08A2A38AF188EB
:101E00001303A00A138701A4631E650003C341895D
:101E1000631A030085472381F60423800604238A7E
:101E2000018829A883422704054383C64189639317
:101E300062028DE2238AA18823010704374501400D
:101E40009305505213050580EF00307302441101D1
:101E5000730020308506E3D3F6FE85472300F704A0
:101E6000A38A01886DBF4145EF00301401C541458B
:101E7000EF0050152145EF00501319C505472145C6
:101E80002382E194EF0010140945EF00101219C5E8
:101E9000054709452384E18CEF00D0127300203000
:101EA000711185453705004022C0EF00B05239CD91
:101EB000138781AC14270547938781AC6397E600AD
:101EC00083D6218999C223990188F8239147631AFF
:101ED000F70283C701890D47850793F7F70F23881A
:101EE000F1886370F702854537150140EF007026D1
:101EF00013361500854537150140EF00D02623889D
:101F00000188854537050040EF00504E024411011D
:101F100073002030EFF2CF982A84EF0010161305DB
:101F20001003EF00F00A37450008130505FCEF0029
:101F30009017EF00700A8547E30DF5FE0C2037453A
:101F40000008130505FCEF00F00DEF00F0088547D1
:101F5000E30DF5FE4C4037450008130545FCEF0046
:101F6000700CEF0070078547E30DF5FEEF00D0120F
:101F70006FF0AF93EFF2CF92B71701809387A7BAB4
:101F8000138401A423A0F1A4930720109386819ABF
:101F90005EA089477CA0DC42A94513D6870170B0BA
:101FA00013D6070110A4138511A413D687003CA4EF
:101FB00010B4EFF0BF8428B4218148A49305000435
:101FC000138501A47D3B9307800873B007308547D4
:101FD0009386819A1385819A9CA22D3FB707EFBE05
:101FE00037E700E0938707083CC701A0EFF24F8B6B
:101FF0001301C1FC0545EF00D019B123EF003059A2
:10200000EFF03F9EEFF05FB5EFF0FFBC49391933B9
:10201000938781ACDC33138481AC9384C192D5EB7C
:102020000546854537150140EF00F013B71701400D
:102030001385074005468545EF00F0120146A1458E
:1020400037150140EF003012014691453715014028
:10205000EF0070110546C14537150140EF00B01083
:10206000B71701401385074005469145EF00B00FB3
:10207000C52B08C037470008834707FC9386819A21
:1020800093F7F70F9CA2130747FC1843D8C20547E4
:102090006397E7001385819A23800600A53D2303FB
:1020A00004001387018B85472304040023260702BD
:1020B0009386018B7D575CA05CB0A304040023A62B
:1020C00004022307040098BC98BE9307800873A0FD
:1020D0000730938701A403C707048546631FD7020F
:1020E00023800704138641A89385019B138501A4CF
:1020F0003AC2EFF0AFF42AC013060004138501A41E
:102100008145EFF04F888247914612476386D7009A
:1021100029476394E700B93D78A0938701A403C7DA
:1021200037048547631EF700938701A4138611A81F
:102130009385019B13855190A3810704EFF0CFDDB8
:10214000982C8547631CF7001385C192EFF06F95BB
:102150009C3C238BF406930700F09EAC9387018B85
:10216000982F85476312F7021385018BEFF06F9369
:102170009387018B9C3F9386018B1387018B238B65
:10218000F606930700F01EAF782005439377F70F0C
:10219000630E671A09476384E72AE39C07F2130575
:1021A000803EEF00B0458D656146938585E4680803
:1021B000EFE0BFF96808EF00104893150501C181F1
:1021C0006808EFF01FBC8D653146938505E6080869
:1021D000EFE0BFF70808EF00104693150501C18135
:1021E0000808EFF01FBA9145138581ACEFF07FB975
:1021F00085679387D7A068007C8623070100EF00DE
:10220000904393150501C1816800EFF09FB7A14786
:1022100037170140C14637160140B73501401385D5
:10222000C192EFE0DFFB37160140B735014013855F
:10223000018B914737170140914613060640EFE0A6
:102240001FFA9305B1001385C192A3050100EFF0B9
:102250008F8301E99885B94705436303F70C23AAE7
:1022600064009305B1001385018BEFF0CF8109E97C
:102270009885B947630BF70A85471387018B5CCBB9
:102280008D679387C7EBDCD08D67938787EA9CD4F3
:102290001385C19223A0040223AE0400EFF02F8621
:1022A0008C541385C192EFF04FB405479387018B8F
:1022B00098D38D671386018B938787E95CD28D67EE
:1022C000938747E81CD6B6871385018B9386018BCD
:1022D000D8CEEFF0CF821387018B10571385018B77
:1022E00081451506EFF02FB80146854537150140A9
:1022F000EF006067B7170140014685451385074029
:10230000EF006066D44805476389E6009387018B38
:10231000D44BB71701406393E60291477CA055BBAD
:1023200023AA040023A664022DBF9387018B23AA4E
:1023300007001387018B85475CD799B7054685450C
:102340001385074078A0EF00006261B37834631909
:10235000F7021387019B930710507EA3B727110044
:10236000850713860198938501961385019B1CC7E9
:10237000EFF00FC51385C192EFF0AF91A3070400F2
:102380001C3413F7F70F91C78547E304F7D4894747
:1023900071B7938701A483C747048DC3138601983F
:1023A000938501961385019BEFF08FC11385C19230
:1023B000EFF02F8E938701A423820704938701A453
:1023C00083C7170485C7938501A41385019BEFF08C
:1023D000CFD89387019B83C57704138501A4890512
:1023E000EFF03F9A938701A4A380070483C7840773
:1023F00091C73E24238C040685073EA483C7940717
:1024000099CF1E28A38C040611478507C207C183F4
:102410001EA86376F70085477CA489477CA0938734
:10242000018B83C77707E38607CA1385018BEFF01B
:10243000EF8F8547138701A4A301F70459B98D6570
:1024400055469385C5E66808EFE03FD06808EF0081
:10245000901E93150501C1816808EFF09F92054613
:1024600085453715014001238D474DBDEFE25FC320
:10247000371402401C403707FFF8414593E7170027
:102480001CC05C40F98F5CC01C403707F7FE7D170D
:10249000F98F1CC01C403707FCFF7D17F98F1CC04B
:1024A0005C4041777D17F98F5CC0B7079F001CC463
:1024B000352B1C4C93E707021CCCB71701409387C0
:1024C000074098431377F7F098C3984313670708BA
:1024D00098C3094798CBB7F7FF1F03C5477D9307FC
:1024E000F00F6304F5007D891123B727024098435C
:1024F000C176FD16719B98C398431367170098C364
:10250000B7170240D843D8C3D843758FD8C3D84330
:10251000B7060001D8C39843558F98C3B706000289
:102520009843758F75DFD843B7160240719BD8C3A7
:10253000D84313672700D8C32147DC42B18BE39E01
:10254000E7FE6FE09FB6371702405C43A146B18BB0
:102550006394D7045C433775DC02130505C0B716D6
:102560000240D842B70700209387070011833D8BB4
:10257000BA979C23D84293F5F70F13770708B35700
:10258000F50005E3EFE2DFB1EFE0DFB4370700204D
:102590002328A7006FE07FB137356E011305056072
:1025A0007DBF370700202328F700828001A097E134
:1025B000FF1F9381A128138181FC17F5FFFF1305ED
:1025C00065AE97E5FF1F9385E5A317E6FF1F13068A
:1025D00066A363FAC5008322050023A055001105F8
:1025E0009105E3EAC5FE171500001305658E97E512
:1025F000FF1F938525A117E6FF1F130626A463FA84
:10260000C5008322050023A0550011059105E3EACA
:10261000C5FE17E5FF1F130565A2938541AE6377DD
:10262000B500232005001105E36DB5FE8962938294
:102630000288739002308D427390428097F2FFFFC0
:102640009382429C93E2320073905230EFF01FE28B
:10265000970200009382C299739012347300203065
:10266000B7F7FF1F03A5477C82801C41416779179C
:10267000F98F1CC123200500232205002324050017
:10268000B707024023260500138787006317E5007C
:10269000D8431367F700D8C382801387C701631636
:1026A000E500D8431367070FFDB7138707036318C7
:1026B000E500D8438566938606F0558FE9BF1387FA
:1026C00047046315E500D843BD66C5BF138787057A
:1026D0006316E500D843B7060F00C5B71387C706D2
:1026E0006316E500D843B706F000C1BF138707089B
:1026F000E314E5FAD843B706000FC1B71841E177F4
:10270000BD0794517D8F9C45D58F9449D58FD44971
:10271000D58F944DD58FD44DD58FD451D58F945519
:10272000D58FD98F1CC1DC455CC19C411CC5DC41E7
:102730005CC582801C4189C593E717001CC182805B
:1027400041677917F98FDDBF58410C415045B707F4
:102750000140938707403E9793C6F5FF39C29043E7
:10276000758E90C3D043F18ED4C31443CD8E14C361
:10277000184190479346F7FF758E90C7D047F18E6A
:10278000D4C7144541466399C6009447D98E94C76F
:10279000D447558FD8C78280B6979443558F98C336
:1027A00082801C43F58F1CC38280B707014093874A
:1027B00007409443DC4B2A877D8D01C5F98E333564
:1027C000D0008280B707014093870740C8CB828042
:1027D000B7270240C8C78280B7270240C84705898B
:1027E00011E5C8474189133515000D058280B727CB
:1027F0000240C847058911E5C847418913351500CE
:102800000D058280EFE2DF892A84D537854763187A
:10281000F50019E0154529A0D93F7D14C5BF7DD825
:102820006FE0BF88EFE2DF877111AA8409652E840B
:1028300002C0C93F9146631FD502B7270240984B9B
:1028400009651367170098CB1317040141839AA0F9
:10285000553F9146B7270240631BD500890426C027
:1028600002474180096502A3713FB7270240984B98
:10287000799B98CB11016FE05F83B7066745B72757
:102880000240938636123797EFCDD4C31307B79A19
:10289000D8C3D4D3D8D38280372702401C4BA1663B
:1028A000D58F1CCB8280B70700F8AA97116763F613
:1028B000E702B7270240984BB7060200558F98CB26
:1028C000C8CB984B1367070498CBD847058B75FF87
:1028D000984B8176FD16758F98CB8280944593F73F
:1028E000060113F3F60081C7DC413363F30083D2A2
:1028F000050093F7F20FA9CF0C41611122C226C047
:102900008147930380023D449304800405473317B5
:10291000F70033F6E2006310C7026397760258C9E6
:10292000139627003317C4001347F7FF6D8F331634
:10293000C300B365E60085072147E399E7FC12442D
:102940000CC1824421018280E39C96FC18C9C9BF56
:1029500082805C4533F5F5003335A00082800CC9D8
:1029600082804CC9828019C20CC982804CC9828085
:1029700037070140144786058D47B397B70093C7C3
:10298000F7FFF58F1CC71C473315B5005D8D08C7D1
:10299000828023AEA1AC828003A7C1AD85471421FC
:1029A0006310F7021C31639CE7023C219A0793E70E
:1029B00007F837E700E093F7F70F36972300F74063
:1029C000054793D756003317D700544189CE9387D4
:1029D00007048A07B7E600E0B69798C38280EDF354
:1029E0003C219A07F9B793870706E5B737170240E6
:1029F0001C430E0593F777F05D8D08C38280EFE2EC
:102A00002FEA371702405C43A1462A84B18B639FAB
:102A1000D7065C43B777DC02938707C01CC0371624
:102A20000240544237070020130787029182BD8A73
:102A30003697082358429375F50F1377070833D557
:102A4000A70001E73E85EFE0EFE848C008C448C4AE
:102A5000B7170240DC438D46AD83FD8B13D737009B
:102A60008A07F18BD98F13F6370113F7370063F418
:102A7000C600138747FFB707002093874701BA971F
:102A80008C23EFE02FE508C86FE02FE2B7376E0127
:102A90009387076061B799C5371702405C4BC98FB0
:102AA0005CCB8280B7170240D84B1345F5FF798D78
:102AB000C8CB828099C5371702401C4FC98F1CCFE5
:102AC0008280B7170240984F1345F5FF798D88CF64
:102AD000828099C5371702405C4FC98F5CCF8280D6
:102AE000B7170240D84F1345F5FF798DC8CF8280C4
:102AF0001E218D669386060433F7D700B6219E21EA
:102B0000D58FD621D58FF621D58F9625D58FB62591
:102B1000D58FD625D58FF625D58FD98F1EA19E2985
:102B20001EA982801E2189C593E707041EA1828009
:102B3000C207C18393F7F7FBC207C183C5BF4EA588
:102B400082804A2582800A256D8D3335A0008280DF
:102B50001E2137370140130707C0C207C183630630
:102B6000E500370700406316E500BA2193F7F7F850
:102B7000D98FFA2193F7F7CFC207C183D98F1EA14E
:102B8000DE215EB59E211EB5B7370140938707C091
:102B90006314F5009C251EB985475EA982801E211D
:102BA00089C593E717001EA18280C207C183F99BE4
:102BB000C207C183CDBF5E2501C6CD8F5EA58280D1
:102BC00093C5F5FFED8FDDBF93C5F5FFC205C1814C
:102BD0000EA982801E294A25ED8F4205418189C7B1
:102BE0006D8D3335A00082800145828093C5F5FF4D
:102BF000C205C1810EA98280EFE28FCA1629F5773E
:102C0000FD17FD8EFE21DA252111D58F1EA956252F
:102C1000FD779387379FFD8EDE212A84AE84D58F82
:102C20009625D58FB625D58F5EA55E29C207C183AF
:102C300093F7F7CFD98F5EA94800EFF05FDCB74775
:102C40000140938707806313F406C247139517006A
:102C50005A243E950E053E9593170701C1878C4077
:102C600063D807048605EFE0EFC6930540062AC047
:102C7000EFE04FC6824793144500930540063E851A
:102C8000EFE00FC85E24C207C18763D507020E05B7
:102C90009305400613052503EFE0CFC31D89C98CBA
:102CA000C204C18006A461016FE02FC0B24779BFA2
:102CB0008A0555BF12059305400613052503EFE06D
:102CC0006FC13D89E9BF5E2589C50967D98F5EA5BA
:102CD000828079777D17F98FDDBF13F7F50F854770
:102CE0001583B395B7006319F7009307C5009843A0
:102CF00001CE4D8F98C38280894693074501E31822
:102D0000D7FE93070501E5B793C5F5FFF98D8CC391
:102D100082805E2901C6CD8F5EA9828093C5F5FFB2
:102D2000ED8FDDBF93F5F51F4EA182804A2113750B
:102D3000F51F82800A216D8D3335A000828013F744
:102D4000F50F85461583AA873395B6006310D70221
:102D5000DA279E23798DC207C18301C9A181054766
:102D60003317B700F98F3335F0008280894663143A
:102D7000D7009A2BF9BFDA2BE9BFA1818547B3971A
:102D8000B70093C7F7FFC207C1831EA18280EFE29D
:102D90002FB1B707002003A50701B7157A00938567
:102DA0000520EFE02FB31375F50F2381A1AE931724
:102DB0005500898F8A073E950E052390A1AE6FE0DE
:102DC000CFAEEFE2EFAD37F400E05C40AA85F99BAF
:102DD0005CC003C521AEEFE0EFAD08C823240400BA
:102DE0001C4093E717001CC0B7F700E0D843058BE1
:102DF00075DF9843799B98C36FE02FABEFE24FAA42
:102E000037F400E05C40AA85F99B5CC003D501AEB5
:102E1000EFE04FAA08C8232404001C4093E71700E2
:102E20001CC0B7F700E0D843058B75DF9843799B4A
:102E300098C36FE08FA7AA879823850775FF33850E
:102E4000A7407D15828000002D2D2D2D2D20414D78
:102E50004F4E204C696E6B202D2D2D2D2D0D0A000F
:102E60004465766963652049443A2000436F6E6E7D
:102E7000656374696F6E204641494C4544210D0AD3
:102E8000000000000000000000C2A1551201000077
:102E900000000000000000006403010100000000C9
:102EA0000000000001000000D4B2AA785000000029
:102EB00000000000000000000000000046030101C7
:0C2EC0000F00D000000000000000000027
:102ECC0001020304050607080102030405060708AE
:102EDC00006CDC020204060804080C100810182010
:102EEC0010203040204060800102030405060708D2
:082EFC000102030405060708AA
:0400000300001000E9
:00000001FF
