:100000006F00D02900000000EA010000EC010000B0
:1000100000000000000000000000000000000000E0
:1000200000000000000000000000000000000000D0
:100030009A0A0000000000009A0A00000000000078
:100040009A0A00009A0A00009A0A00009A0A000020
:100050000E0800009A0A00009A0A00009A0A00009E
:100060009A0A00009A0A00009A0A00009A0A000000
:100070009A0A00009A0A00009A0A00009A0A0000F0
:10008000CC0700009A0A00009A0A00009A0A0000B1
:100090009A0A00009A0A00006808000000000000A8
:1000A000511126C022C206C4828282441244A24058
:1000B000310182802A86014593F6150091C232955E
:1000C00085810606F5F9828000000000634E050276
:1000D00063C305042E86AA857D5515C285466378BF
:1000E000B6006356C00006068606E36CB6FE014500
:1000F00063E4C500918D558D85820582F5FA828075
:100100008682C93F2E8582823305A0406347B000B6
:10011000B305B040C1B7B305B0408682653F330533
:10012000A0408282868263C70500634905005D376F
:100130002E858282B305B040E35B05FE3305A04007
:10014000513F3305B040828200002A8309CA83836D
:100150000500230073007D16050385056DFA828076
:100160002A8311C62300B3007D16050365FE828035
:100170000E2548416F00903C0E2548416F00503CD1
:10018000EFF21FF22A84AE8408408945EF009059AF
:1001900065DD0840A685EF00705808408545EF00F2
:1001A000705865DD0840EF00B0571375F50FF5BDC9
:1001B000EFF21FEF50C116A558C51EA90CC12A8425
:1001C000453F48440E28EF00B0370145F9BDEFF236
:1001D0003FED2A84AE844D379305F00F22854D37CD
:1001E00088A0228571370145C9B501A0B707EFBEC8
:1001F00037E700E0938707083CC701A0EFF25FEA0A
:100200001301C1FD85451305100302C402C602C8CF
:1002100002CA02CC02CE02D002C002C2EF00704776
:100220000D448544C1472C0037150140648422C623
:100230003EC8EF009028C1473EC8B71701402C00C8
:1002400013850740648422C6EF003027B7170140AA
:1002500041471385074078842C00130780023AC871
:1002600022C6EF00902591450D45EF00502E4147E5
:10027000A14648083ACA36CE26D002CCEF00701B01
:10028000930740110A857C80448126C2EF00B02E7E
:10029000B71701401307800213850740A1462C00C1
:1002A0003AC8748422C6EF0050218D450D45EF00F9
:1002B000102AA146480836CA36CE26D002CCEF0016
:1002C0005017930740110A857C8026C22301010044
:1002D000EF00702A1307800289462C003715014071
:1002E0003AC8748422C6EF00501D85450945EF00C9
:1002F0001026894636CA4808A14636CE26D002CCFA
:10030000EF003013930740110A857C8026C2230139
:100310000100EF005026A14641472C00371501404F
:10032000748422C63AC8EF005019914441472C000A
:1003300037150140648422C63AC8EF0010184147BF
:1003400078842C0041473715014022C63AC8EF0097
:10035000D016B717014041472C001385074064842D
:1003600022C63AC8EF007015130141023DBBEFF2FF
:100370003FD331118545054502C402C6231801004B
:1003800002C002C2EF00D032BD473EC4BD679387B2
:10039000F7A52C00370500403EC6EF0050398545D3
:1003A00037050040EF00304013070004B7E700E0D6
:1003B00023A2E7280546854537050040EF00903D1C
:1003C000930760127C8089475C810A8585473EC21D
:1003D000EF00701A13052003EF00705C85453705A8
:1003E0000040EF00B0395101C9B1EFF27FCB116588
:1003F0001301C1FD85451305150202C402C602C8DA
:1004000002CA02CC02CE02D002C002C2EF007028A3
:10041000B7070140D843B706E0FFED16758FD8C384
:10042000D843B706200037140140558FD8C393072F
:1004300000047C848D44E1472C001305044026C64B
:100440003EC8EF009007930700027C842C00914780
:100450001305044026C63EC8EF003006F167374456
:100460000140938707203ECA4C08B7070C001305CC
:1004700004803ECE02CC23100102EF00D0350546A9
:100480009305505213050480EF00F04293070012C9
:100490007C800A8585473EC223010100EF00B00D34
:1004A000854513050480EF00D03F13014102F5BEDE
:1004B000EFF21FBF130141FD1306C00281450A85FB
:1004C000453185450545EF00F01AB7040240138514
:1004D0004404EF00206837440140930744803EC045
:1004E000938741953EC2C1473EC48D473EC69307A0
:1004F00000083ECA8A858567138544043ED202C837
:1005000002CC02CE02D002D4EF00E06D0546930586
:10051000000813050480EF00903D1301C10271B67D
:10052000EFF21FB80565511185451105EF007016F2
:100530009307000661447C808A858D47371501400A
:1005400022C43EC2EF006077930700087C808A8552
:100550009147371501403EC4EF002076B7070020D1
:100560009387070437070401B7050020D8C3938594
:100570004504370700023735014023A40700D8C7D8
:1005800080CBEF00D014854537350140EF00701760
:10059000310121BEEFF2DFB0AA84370502402E847C
:1005A000130545048145EF00806726946384840227
:1005B000B74701401385078093050008EF005035C9
:1005C000B747014075D58C20138507808504EF005F
:1005D0003033E9BFD9BCEFF2BFAC79710545EF000C
:1005E00020798929EF00703811395133FD3B71654D
:1005F00013050520EF00503E653D1D37938781951B
:10060000DC2313848195B9EB0546854537150140F8
:10061000EF004073B714014005468545138504403B
:10062000EF0040720146A14537150140EF0080718F
:100630000146914537150140EF00C0700546C145A0
:1006400037150140EF0000700546914513850440C1
:10065000EF00406FDD29854708C05CC05C308944ED
:100660006380971663E9F410639F07121305803EB9
:10067000EF00F03285656146938505242808F13442
:100680002808EF00D03A93150501C18128081937D1
:1006900085653146938585256800453C6800EF00F7
:1006A000103993150501C1816800ED359145138519
:1006B0008195CD3585679387D7A028007C84230555
:1006C0000100EF00D03693150501C1812800D9350E
:1006D00013858187A14737170140C146371601406E
:1006E000B7350140F13437160140B7040020914777
:1006F00037170140914613060640B7350140138570
:1007000084057D341385818793057100A30301005F
:100710007D3C938781873EC001E99883B947630593
:10072000F700024785473CAB9305710013858405AC
:10073000793C09E99883B9476306F70093878405F4
:100740000547B8AB0146854537150140E52B371500
:1007500001400146854513050540ED238247B82B2E
:1007600085476307F70093848405B8286313F7006F
:1007700095475CB0E5B50D47E392E7EE8567938555
:10078000472655462808D1322808EF00502A9315ED
:100790000501C1812808FD3B054685453715014007
:1007A00055239147F9B778208547E319F7EA3715BC
:1007B00001400546854513050540692344B079BDD0
:1007C00078308547E3FCE7E88D4765B7711122C0B3
:1007D000374401409305505213050480EF00F01395
:1007E0001DC113050480EF0030129387018D03C7EC
:1007F000070493055052238007043E9708A313056E
:100800000480EF005015024411017300203041456F
:10081000512119CD93878195D43305476388E6002C
:100820000146854537150140D8B3292B4145412163
:1008300021458D2111C983C7E19505476394E700E0
:10084000A386F1882145A5210945A92101CD83C7AA
:10085000E19505476396E70037070020A306F706F2
:100860000945B121730020306111854537050040ED
:1008700022C226C03D2F630D050C93878195D83386
:10088000854713848195631AF7063707002083474D
:10089000C703B704002083D6A403850793F7F70F97
:1008A0008506239DD402230EF702AD4663F4F602BB
:1008B000B71701408545138507409D29B7170140AB
:1008C00013361500854513850740AD2937070020ED
:1008D000230E070203D7A4039307301F63FFE7002B
:1008E000371501408D470146854513050540239D79
:1008F00004025CB023030400B1217820854763190A
:10090000F700B707002003D7A70319C3239D0702E9
:1009100058309547631AF702370400208347840351
:100920000D47850793F7F70F230CF402637EF7005A
:10093000854537150140ED2E1336150085453715D1
:1009400001400921230C0402854537050040B52DDF
:1009500012448244210173002030EFF26FF4371407
:1009600002401C403707FFF8414593E717001CC0C1
:100970005C40F98F5CC01C403707F7FE7D17F98F8C
:100980001CC01C403707FCFF7D17F98F1CC05C4062
:1009900041777D17F98F5CC0B7079F001CC43521D4
:1009A0001C4C93E707021CCCB71701409387074004
:1009B00098431377F7F098C398431367070898C3D1
:1009C000094798CBB7F7FF1F03C5477D9307F00F83
:1009D0006304F5007D89D52EB72702409843C17680
:1009E000FD16719B98C398431367170098C3B717F8
:1009F0000240D843D8C3D843758FD8C3D843B7066D
:100A00000001D8C39843558F98C3B7060002984396
:100A1000758F75DFD843B7160240719BD8C3D84392
:100A200013672700D8C32147DC42B18BE39EE7FE62
:100A30006FF0AFE7371702405C43A146B18B639478
:100A4000D7045C433775DC02130505C0B7160240B6
:100A5000D842B70700209387070011833D8BBA97D0
:100A60009C23D84293F5F70F13770708B357F50087
:100A700005E3EFF2EFE2EFF0EFE537070020232880
:100A8000A7006FF08FE237356E01130505607DBF5B
:100A9000370700202328F700828001A0970100205B
:100AA0009381C1D9138181FC1305000A97F5FF1FBB
:100AB0009385455517F6FF1F1306C65463FAC50004
:100AC0008322050023A0550011059105E3EAC5FE28
:100AD000170500001305C57A97F5FF1F938585520A
:100AE00017F6FF1F1306865563FAC500832205001B
:100AF00023A0550011059105E3EAC5FE17F5FF1F78
:100B00001305C553938501976377B500232005002E
:100B10001105E36DB5FE89629382028873900230FD
:100B20008D427390428097F2FFFF9382A24D93E231
:100B3000320073905230EFF05FE297020000938230
:100B4000C2A97390123473002030B7F7FF1F03A5BA
:100B5000477C82801C4141677917F98F1CC1232093
:100B600005002322050023240500B70702402326A1
:100B70000500138787006317E500D8431367F70064
:100B8000D8C382801387C7016316E500D843136773
:100B9000070FFDB7138707036318E500D843856681
:100BA000938606F0558FE9BF138747046315E50068
:100BB000D843BD66C5BF138787056316E500D843D4
:100BC000B7060F00C5B71387C7066316E500D843FD
:100BD000B706F000C1BF13870708E314E5FAD8434E
:100BE000B706000FC1B71841E177BD0794517D8F5B
:100BF0009C45D58F9449D58FD449D58F944DD58FA9
:100C0000D44DD58FD451D58F9455D58FD98F1CC144
:100C1000DC455CC19C411CC5DC415CC582801C413B
:100C200089C593E717001CC1828041677917F98F46
:100C3000DDBF58410C415045B7070140938707403D
:100C40003E9793C6F5FF39C29043758E90C3D0434B
:100C5000F18ED4C31443CD8E14C3184190479346EC
:100C6000F7FF758E90C7D047F18ED4C71445414623
:100C70006399C6009447D98E94C7D447558FD8C777
:100C80008280B6979443558F98C382801C43F58F1A
:100C90001CC38280B7070140938707409443DC4B15
:100CA0002A877D8D01C5F98E3335D0008280B70744
:100CB000014093870740C8CB8280944593F7060193
:100CC00013F3F60081C7DC413363F30083D20500E0
:100CD00093F7F20FA9CF0C41611122C226C08147C0
:100CE000930380023D449304800405473317F700C3
:100CF00033F6E2006310C7026397760258C9139671
:100D000027003317C4001347F7FF6D8F3316C30056
:100D1000B365E60085072147E399E7FC12440CC15F
:100D2000824421018280E39C96FC18C9C9BF82805D
:100D30005C4533F5F5003335A00082800CC9828014
:100D40004CC9828019C20CC982804CC98280370785
:100D50000140144786058D47B397B70093C7F7FF47
:100D6000F58F1CC71C473315B5005D8D08C7828001
:100D700023A4A196828003A781968547142163103E
:100D8000F7021C31639CE7023C219A0793E707F8BE
:100D900037E700E093F7F70F36972300F740054752
:100DA00093D756003317D700544189CE9387070451
:100DB0008A07B7E600E0B69798C38280EDF33C213E
:100DC0009A07F9B793870706E5B7371702401C4320
:100DD0000E0593F777F05D8D08C38280EFF24FAC7C
:100DE000371702405C43A1462A84B18B639FD70624
:100DF0005C43B777DC02938707C01CC037160240FC
:100E0000544237070020130787029182BD8A369724
:100E1000082358429375F50F1377070833D5A700B9
:100E200001E73E85EFF00FAB48C008C448C4B717D0
:100E30000240DC438D46AD83FD8B13D737008A0714
:100E4000F18BD98F13F6370113F7370063F4C6001F
:100E5000138747FFB707002093874701BA978C2372
:100E6000EFF04FA708C86FF04FA4B7376E01938714
:100E7000076061B799C5371702405C4BC98F5CCBDF
:100E80008280B7170240D84B1345F5FF798DC8CB48
:100E9000828099C5371702401C4FC98F1CCF8280B2
:100EA000B7170240984F1345F5FF798D88CF8280A0
:100EB00099C5371702405C4FC98F5CCF8280B71746
:100EC0000240D84F1345F5FF798DC8CF82801E218F
:100ED0008D669386060433F7D700B6219E21D58F01
:100EE000D621D58FF621D58F9625D58FB625D58FCE
:100EF000D625D58FF625D58FD98F1EA19E291EA95F
:100F000082801E2189C593E707041EA18280C20743
:100F1000C18393F7F7FBC207C183C5BF4EA582808B
:100F20004A2582800A256D8D3335A00082801E21DE
:100F300037370140130707C0C207C1836306E500C6
:100F4000370700406316E500BA2193F7F7F8D98F09
:100F5000FA2193F7F7CFC207C183D98F1EA1DE21F3
:100F60005EB59E211EB5B7370140938707C0631455
:100F7000F5009C251EB985475EA982801E2189C582
:100F800093E717001EA18280C207C183F99BC207A5
:100F9000C183CDBF5E2501C6CD8F5EA5828093C57E
:100FA000F5FFED8FDDBF93C5F5FFC205C1810EA929
:100FB00082801E294A25ED8F4205418189C76D8DAA
:100FC0003335A00082800145828093C5F5FFC205BC
:100FD000C1810EA98280EFF2AF8C1629F577FD173B
:100FE000FD8EFE21DA252111D58F1EA95625FD770C
:100FF0009387379FFD8EDE212A84AE84D58F962578
:10100000D58FB625D58F5EA55E29C207C18393F71C
:10101000F7CFD98F5EA94800D133B74701409387F6
:1010200007806313F406C247139517005A243E95B0
:101030000E053E9593170701C1878C4063D80704BE
:101040008605EFF02F89930540062AC0EFF08F88C0
:10105000824793144500930540063E85EFF04F8A82
:101060005E24C207C18763D507020E0593054006BB
:1010700013052503EFF00F861D89C98CC204C180BA
:1010800006A461016FF06F82B24779BF8A0555BF30
:1010900012059305400613052503EFF0AF833D8944
:1010A000E9BF5E2589C50967D98F5EA582807977FA
:1010B0007D17F98FDDBF13F7F50F85471583B395BE
:1010C000B7006319F7009307C500984301CE4D8F11
:1010D00098C38280894693074501E318D7FE93079A
:1010E0000501E5B793C5F5FFF98D8CC382805E29B4
:1010F00001C6CD8F5EA9828093C5F5FFED8FDDBF60
:1011000093F5F51F4EA182804A211375F51F828049
:101110000A216D8D3335A000828013F7F50F8546C7
:101120001583AA873395B6006310D702DA279E236A
:10113000798DC207C18301C9A18105473317B70063
:10114000F98F3335F000828089466314D7009A2BDB
:10115000F9BFDA2BE9BFA1818547B397B70093C7E1
:10116000F7FFC207C1831EA18280EFE27FF3B707BA
:10117000002003A50701B7157A0093850520EFE04D
:101180007FF51375F50F2387A19693175500898F67
:101190008A073E950E052396A1966FE01FF1EFE2B8
:1011A0003FF037F400E05C40AA85F99B5CC003D5B2
:1011B000C196EFE03FF008C8232404001C4093E7E9
:1011C00017001CC0B7F700E0D843058B75DF9843C4
:1011D000799B98C36FE07FEDEFE29FEC2A84116565
:1011E00011118545130505026D31930700027C80BE
:1011F000371501408D473EC28A85E14713050540FA
:101200003EC4EFF09FAB22C637440140B707080049
:101210006C00130504803ECA02C8231C0100653B14
:10122000854513050480B53D71016FE01FE8AA876D
:101230009823850775FF3385A7407D1582800000C0
:101240002D2D2D2D2D20414D4F4E204C696E6B20A4
:101250002D2D2D2D2D0D0A004465766963652049DD
:10126000443A2000436F6E6E656374696F6E20466A
:0C12700041494C4544210D0A00000000DB
:10127C00010203040506070801020304050607081A
:10128C00006CDC020204060804080C10081018207C
:10129C00102030402040608001020304050607083E
:0812AC00010203040506070816
:00000001FF
