:101000006F10E06800000000FC190000FE190000ED
:1010100000000000000000000000000000000000D0
:1010200000000000000000000000000000000000C0
:101030008C260000000000008C260000000000004C
:101040008C2600008C2600008C2600008C260000D8
:10105000921E00008C2600008C2600008C260000CA
:101060008C2600008C2600008C2600008C260000B8
:101070008C2600008C2600008C2600008C260000A8
:10108000F21D00008C2600008C2600008C2600003B
:101090008C2600008C260000CC1E00000000000002
:1010A000511126C022C206C4828282441244A24048
:1010B000310182802A86014593F6150091C232954E
:1010C00085810606F5F9828000000000634E050266
:1010D00063C305042E86AA857D5515C285466378AF
:1010E000B6006356C00006068606E36CB6FE0145F0
:1010F00063E4C500918D558D85820582F5FA828065
:101100008682C93F2E8582823305A0406347B000A6
:10111000B305B040C1B7B305B0408682653F330523
:10112000A0408282868263C70500634905005D375F
:101130002E858282B305B040E35B05FE3305A040F7
:10114000513F3305B040828200002A8309CA83835D
:101150000500230073007D16050385056DFA828066
:1011600015C22A8385466367B500FD561307F6FF4F
:101170003A93BA9583830500230073007D16369356
:10118000B6956DFA82802A8311C62300B3007D16BE
:10119000050365FE82800E2548416F10500A0E2916
:1011A00048456F10100A0E2548416F109009EFF264
:1011B0003FEF2A84AE8408408945EF10D02665DDD4
:1011C0000840A685EF10B02508408545EF10B025F2
:1011D00065DD0840EF10F0241375F50FF9B5EFF257
:1011E0003FEC0CC150C116A558C51EA92A8465370D
:1011F000228575375DBDEFF2BFEA71112E84B2848E
:101200002AC0A2944D3763179400024569370145FF
:10121000110161BD0C2002450504513FEDB7EFF20D
:101220003FE8611132C2B6842E842AC0AD3F024528
:101230009375F401AD3F2A8402459305F00F853F75
:10124000124608A20245813F91C080A001452101BC
:10125000A9BDEFF2FFE46111B28436C22E842AC028
:10126000993702459375F40193E5050289372A847D
:101270000245A6852D3F0245393F924691C280A284
:10128000014521011DB5EFF2BFE12A84AE84213F63
:101290009305F00F2285213F88A02285ED3D014571
:1012A00029B5EFF2FFDF7111930531002A84E13F88
:1012B000908130AC9377060499CB8547A30BF40655
:1012C000935716409D8B1D476383E7001CBC9377A3
:1012D000060291C78547230CF406A30D04009377FB
:1012E000060191C78547A30CF406A30D04008146AF
:1012F000137606079D452285A93F11017DB3EFF2C4
:101300003FDA61112A84613D22857135130660043C
:101310008145230C0400230D040013054403A53567
:1013200081461306310081452285D53D9081814655
:1013300081451376D60F2285293F85441305400643
:1013400044D4EF1010365C5081468D459033228591
:101350000D8A01375C508146954590232285158A78
:10136000CD3D5C50A30101009847631497002147CD
:10137000D881D84785469C81630AD70E8946630B7E
:10138000D70E93E767006305070E90818146994564
:101390002285C1355C5081469145D023FE232285AC
:1013A0003D8A92075D8E1376F60FD0815D355C50D5
:1013B00081460546BC2391E3014685452285513D82
:1013C000814605468945228569355C50BC33D5C7C1
:1013D0009D679387073509464C0022857C82213D15
:1013E00081461146F5452285AD3581460546F145D4
:1013F00022858535855705464C0022855C82E53B74
:10140000895705464C0022855C82F53381461306D8
:1014100000079D452285353D1850B147DC81854741
:101420006314F700B547DC819081814681452285B0
:101430000D3581461306310081452285CD339081DB
:1014400081468145136626002285D08119350945DC
:10145000EF10D028185085476319F7020E2848442A
:10146000EF10E05D91475CD4210181B193E7470023
:10147000DC8121BF93E72700E5BF81460146F545A2
:101480002285C13B814601469DB72285093B89479C
:10149000D9BFEFF2FFC085473CBD1C5171112A84B2
:1014A00091C791475CC90545110101B183474505C5
:1014B0007D47FD1793F7F70FE367F7FECD318146C0
:1014C000130600039D45231C0406228559338957C2
:1014D0000546930531002285DC81313B2285E131CF
:1014E0009305000A2285E13181448347440563E086
:1014F000F40222854D310E284844EF104054130564
:101500004006EF10101A22855939014571BFB30703
:10151000940083C5470322858504513993F4F40F61
:10152000E9B7EFF2FFB71451054751112A849147EB
:101530006390E60613060002814513055505A131A7
:101540002285A30A0406230B0406B139930500067D
:101550002285B1399305F00F22859139AA8422851D
:101560001D399387F4FF93F7F70F7D476376F702F2
:10157000855705469305B1002285DC85AD39814646
:10158000130600049D452285E9318D47A30B04060F
:101590005CC80545310111BE228531319305100625
:1015A00022853131A287338784009305F00F22858D
:1015B0003AC23EC0ED3E82471247A38AA704850780
:1015C000E395E7FE2285C13E8146130600049D4552
:1015D000228541310145A30B0406A30A94065DBF91
:1015E000EFF21FAC5C5161112A849C33AE848907F1
:1015F00093F7F70F3EC0453E930500032285453E15
:101600008147824613F7F70F6368D7022285613658
:101610005C50BC2399CF228579369305A0022285A0
:1016200079368147824613F7F70F6360D702228528
:101630009D360145210195BC3387F4000C2322859A
:101640003EC2B536924785076DBF3387F4000C2341
:1016500022853EC2A93E92478507E9B7EFF25FA413
:1016600051112AC0954763E1B7065C512E84B284BC
:101670009C333EC20D3E02459305A40093E505024E
:1016800093F5F50F2D36854663EC860292470147A8
:10169000890793F7F70F9376F70F63E8F600024593
:1016A000DD3C014531016FF05FA0B386E4008C2280
:1016B00002453EC43AC2E53C1247A2470507E1BFD6
:1016C0008C200245ED34E1BF0545E9BFEFF25F9D97
:1016D000B7040020138484030346D4048145138592
:1016E00001855534370500206946814513054504B9
:1016F00023130404232404042326040423AC040237
:101700002322040023240400BD3C6FF01F9AEFF253
:101710003F9961112E84AA8432C236C0453F8C2085
:10172000824612466CA09C307CB0BC201CA4BC300D
:101730001CB4D82038A4C83028B409CD014733835D
:10174000E400834263003303E400050723065300EB
:10175000E347A7FE05470945639FE5004547154553
:10176000638BE700636CF7006385B70241470D4563
:101770006383E700014521016FF03F9313070002E7
:101780000D45E38AE7FE138517F0133515000A05AA
:10179000DDB71CA2303415476373C7009CA23034F8
:1017A0007A209307A0FA2303F40493078600A30387
:1017B000F4042314E4043C241A24A306C4042306DA
:1017C000F4042315E4049305C40013050405EFF0A5
:1017D0003F991D454DB77C219CA17C319CB11C25B6
:1017E000BCA11C35BCB13C25DCA13C35DCB185E39A
:1017F0003C3599071CA282803307F50054273387B4
:10180000F500850774A33835E3C8E7FED5B78147EF
:10181000DDBF2A866973416581467D15050393976F
:101820000601C18363E3B7008280B307D6009C231F
:101830003D8DA14713771500058111C7334765001A
:10184000131507014181FD1793F7F70FE5F785069B
:10185000F9B7EFF2FF8471112E842AC0B284BD352E
:101860000245914618212303E4041C31A303F40428
:101870006391D70418A01CB0382138A0383138B093
:10188000583154212207558F5AA00C300505B5C98F
:10189000FD15C205C181B53F5E2005476397A700CE
:1018A0003420C14729476398F6063A8511016FF045
:1018B000CFFF38212304E4043831A304E404582181
:1018C0002305E4045831A305E40478212306E40445
:1018D0007431A306D40491EAB306F5009832942239
:1018E0002207558F2317E4044DB701473306E5005F
:1018F0000C263306E40005072308B604E348D7FEA8
:10190000E1BF9385F7FFC205C18121378357E40406
:101910000547E39CA7F88346840485470947E39677
:10192000F6F88347B40413070002638AE702636191
:10193000F70245461547E38AC7F60147E367F6F61F
:101940000D47E384D7F6C146E381D7F60147B1BF1F
:10195000938717F093B7170013972700B9B794A090
:10196000835784040346D404930504057EA083575B
:10197000A4041305C4001EA48357C4043EA4EFF0BE
:101980002FFE19471DB7EFF2AFF1834765042E8490
:101990009CA1834775049CB183478504BCA1834700
:1019A0009504BCB18347A504DCA18347B504DCB131
:1019B0008347C504FCA18347D504FCB195EF83445C
:1019C000D5041305140093857400A10493F4F40F57
:1019D0008935A29488A0218188B06FF00FED33077C
:1019E000F500834607053307F400850714A703476E
:1019F000D504E3C6E7FEE1B78147D5BF01A0B7072D
:101A0000EFBE37E700E0938707083CC701A0EFF27D
:101A10002FE91301C1FD85451305100302C402C659
:101A200002C802CA02CC02CE02D002C002C2EF102B
:101A300060160D448544C1472C003715014064846D
:101A400022C63EC8EF009077C1473EC8B717014095
:101A50002C0013850740648422C6EF00307693077C
:101A600080023EC8B71701401385074041472C004C
:101A7000788422C6EF00907491450D45EF00507DAB
:101A80004147A14648083ACA36CE26D002CCEF00DC
:101A9000B059930740110A857C80448126C2EF002B
:101AA000B07DB71701401306800413850740A14697
:101AB0002C0032C8748422C6EF0050708D450D454D
:101AC000EF0010793147A14648083ACE36CA26D0F1
:101AD00002CCEF007055930740110A857C8026C226
:101AE00023010100EF0050791306800489462C0081
:101AF0003715014032C8748422C6EF00306C85452A
:101B00000945EF00F07489463147480836CA3ACE95
:101B100026D002CCEF005051930740110A857C80FB
:101B200026C223010100EF003075A14641472C0079
:101B300037150140748422C63AC8EF0030689144DA
:101B400041472C0037150140648422C63AC8EF0093
:101B5000F066414778842C0041473715014022C682
:101B60003AC8EF00B065B717014041472C00138514
:101B70000740648422C63AC8EF0050641301410252
:101B80006FF0AFD2EFF2CFD131118545054502C4D8
:101B900002C62318010002C002C2EF108001BD4737
:101BA0003EC4BD679387F7A52C00370500403EC6AD
:101BB000EF100008854537050040EF10E00E1307D1
:101BC0000004B7E700E023A2E7280546854537056E
:101BD0000040EF10400C930760127C8089475C81C5
:101BE0000A8585473EC2EF00306913052003EF10D8
:101BF000E02E854537050040EF10600851016FF079
:101C0000CFCAEFF2EFC911651301C1FD8545130578
:101C1000150202C402C602C802CA02CC02CE02D019
:101C200002C002C2EF001077B7070140D843B706E1
:101C3000E0FFED16758FD8C3D843B70620003714E0
:101C40000140558FD8C3930700047C848D44E1473D
:101C50002C001305044026C63EC8EF0030569307FB
:101C600000027C842C0091471305044026C63EC820
:101C7000EF00D054F16737440140938707203ECAF4
:101C80004C08B7070C00130504803ECE02CC23108D
:101C90000102EF10600405469305505213050480BD
:101CA000EF10A011930700127C800A8585473EC281
:101CB00023010100EF00505C854513050480EF10FF
:101CC000800E130141026FF04FBEEFF26FBD1301A2
:101CD00041FD1306C00281450A85EFF0CFCA854554
:101CE0000545EF005069B704024013854404EF0036
:101CF000D02537440140930744803EC0938751A8C4
:101D00003EC2C1473EC4930700043EC69307000885
:101D10003ECA8A858567138544043ED202C802CC38
:101D200002CE02D002D4EF00702B054693050008C6
:101D300013050480EF10E00B1301C1026FF0EFB642
:101D4000EFF20FB60565511185451105EF0090645E
:101D50009307000661447C808A858D4737150140D2
:101D600022C43EC2EF009045930700087C808A851C
:101D70009147371501403EC4EF0050449387818955
:101D800037070401D8C39385C18937070002373567
:101D9000014023A40700D8C780CBEF0070638545BE
:101DA00037350140EF00106631016FF00FB0EFF2F0
:101DB0002FAFAA84370502402E84130545048145C0
:101DC000EF005025269463848402B74701401385B1
:101DD000078093050008EF10E003B747014075D571
:101DE0008C20138507808504EF10C001E9BF6FF0D8
:101DF000CFAB711122C037440140930550521305F7
:101E00000480EF10C0012DC913050480EF100000FD
:101E100083C75189938601A43386F600850713751D
:101E2000F50F93F7F70F08A2A38AF1881303A00A0E
:101E3000138701A4631E650003C34189631A03006D
:101E400085472381F60423800604238A018829A874
:101E500083422704054383C64189639362028DE26E
:101E6000238AA18823010704374501409305505276
:101E700013050580EF00707E0244110173002030CD
:101E80008506E3D3F6FE85472300F704A38A01887D
:101E90006DBF4145EF00701F01C54145EF00902027
:101EA0002145EF00901E19C5054721452382E19485
:101EB000EF00501F0945EF00501D19C505470945A2
:101EC0002384E18CEF00101E7300203071118545D2
:101ED0003705004022C0EF00F05D39CD138781AC9B
:101EE00014270547938781AC6397E60083D6218941
:101EF00099C223990188F8239147631AF70283C78F
:101F000001890D47850793F7F70F2388F1886370E0
:101F1000F702854537150140EF00B0311336150043
:101F2000854537150140EF0010322388018885452B
:101F300037050040EF009059024411017300203032
:101F4000EFF20F962A84EF00502113051003EF00E3
:101F5000301637450008130505FCEF00D022EF00CE
:101F6000B0158547E30DF5FE0C2037450008130535
:101F700005FCEF003019EF0030148547E30DF5FE46
:101F80004C4037450008130545FCEF00B017EF0043
:101F9000B0128547E30DF5FEEF00101E6FF0EF90D5
:101FA000EFF20F90B71701809387A7BA138401A4AB
:101FB00023A0F1A4930720109386819A5EA08947FD
:101FC0007CA0DC42A94513D6870170B013D6070167
:101FD00010A4138511A413D687003CA410B4EFF00D
:101FE0005F8328B4218148A493050004138501A4CC
:101FF0007D3B9307800873B0073085479386819AAD
:102000001385819A9CA22D3FB707EFBE37E700E00A
:10201000938707083CC701A0EFF28F881301C1FC2A
:102020000545EF0010250125EF007064EFF03F9E9D
:10203000EFF05FB5EFF0FFBC49391933938781ACFE
:10204000DC33138481AC9384018BDDE7B717014047
:102050001385074005468545EF00F01E0146A14562
:1020600037150140EF00301E0146914537150140FC
:10207000EF00701D0546C14537150140EF00B01C4B
:10208000B71701401385074005469145EF00B01B87
:10209000EF00006B08C037470008834707FC9386B2
:1020A000819A93F7F70F9CA2130747FC1843D8C2F5
:1020B00005476397E7001385819A23800600493519
:1020C000230304001387C1928547230404002326B9
:1020D00007029386C1927D575CA05CB0A304040004
:1020E00023A60402230704002309040098BE98BC19
:1020F0009307800873A00730938701A403C70704E0
:1021000085476314F7043AC2138641A8138701A4D4
:102110009385019B138501A423000704EFF06FF35F
:102120002AC013060004138501A48145EFF0AF8592
:10213000824799466383D72463EBF6229146124780
:10214000638CD7221547638DE722938701A483C749
:1021500037040547639DE7023EC0938701A4938639
:10216000A1AD138611A89385019B13855190A3817E
:102170000704EFF0CFD938288247631AF7008D673C
:10218000938787F7DCD01385018BEFF04F97938708
:10219000C192982F85476312F7021385C192EFF021
:1021A0004F909387C1929C3F9386C1921387C192AF
:1021B000238BF606930700F01EAF982C8547631C0F
:1021C000F7001385018BEFF0CF8D9C3C238BF40639
:1021D000930700F09EAC782005439377F70F630BCD
:1021E000671C0947638DE732E39807F01305803ECB
:1021F000EF00D04E8D656146938585F26808EFE06B
:10220000DFF46808EF00305193150501C1816808BB
:10221000EFF0FFB98D653146938505F40808EFE0CE
:10222000DFF20808EF00304F93150501C18108085F
:10223000EFF0FFB79145138581ACEFF05FB785678D
:102240009387D7A068007C8623070100EF00B04C7D
:1022500093150501C1816800EFF07FB5A1473717DD
:102260000140C14637160140B73501401385C19280
:10227000EFE0FFF637160140B73501401385018BBB
:10228000914737170140914613060640EFE03FF5AE
:102290009305B1001385C192A3050100EFE0BFFED5
:1022A00011E99885B94705436300F70E9387C192FA
:1022B00023AA67009305B1001385018BEFE0BFFCF3
:1022C00019E59885B947630AF70C8547DCC89387F9
:1022D000C19223A007028D679386C1929387C7FAA4
:1022E000DCD28D67938787F99CD6BA871385C19214
:1022F0001387C192232E0700EFF06F801387C192DE
:102300000C571385C192EFF0AFAD0D67130787F837
:10231000D8D00D67130747F698D485471385018BEE
:102320009CD0DCCCEFE0BFFD90541385018B1506EB
:102330008145EFF0AFB20146854537150140EF000A
:102340008070371701400146854513050740EF00AF
:10235000806F9387C192D44B85476387F600D4483A
:10236000371701406390F60491477CA071B3294769
:10237000E39DE7DCEFF0DFC278A023090400F1B3AE
:10238000930700103EA8D1B31387C1929387C192DF
:10239000232A070023A6670231BF854723AA04002A
:1023A000DCD435B77CA00546854513050740EF0012
:1023B000806999B378346319F7021387019B9307F7
:1023C00010507EA3B72711008507138601989385C7
:1023D00001961385019B1CC7EFF0EFBF1385C192D7
:1023E000EFF02F8BA30704001C3413F7F70F91C7EE
:1023F0008547E303F7D089478DBF938701A483C73F
:102400004704B9C313860198938501961385019BF0
:10241000EFF06FBC382885476310F7028D6793870C
:1024200087F8DCD01385018BEFE07FED0146854511
:1024300037150140EF0020611385C192EFF06F85E1
:10244000938701A423820704938701A483C71704F9
:10245000A9C3138701A4938501A41385019BA3003D
:102460000704EFF04FD29387019B83C57704138550
:1024700001A48905EFF0BF933C28014699C7854523
:10248000371501407D23133615008545371501406A
:102490005D2B9387C19283C7870781CB3E24850735
:1024A0003EA49387C192238C07069387C19283C76A
:1024B000970799CF1E281387C192A30C070685079B
:1024C000C207C1831EA811476374F70085477CA427
:1024D00083C7740791CB1385018BEFF08F848547F9
:1024E000138701A4A301F7043C38E38707C093874F
:1024F000019B83C6C704A30904004947E39EE6BEC7
:1025000083C7070505476398E7003CA8054685454E
:102510003715014069BD230904000146CDBF8D6513
:1025200055469385C5F46808EFE03FC26808EF00A0
:10253000901E93150501C1816808EFF05F8705467D
:1025400085453715014001238D4705B5EFE25FB59D
:10255000371402401C403707FFF8414593E7170046
:102560001CC05C40F98F5CC01C403707F7FE7D172C
:10257000F98F1CC01C403707FCFF7D17F98F1CC06A
:102580005C4041777D17F98F5CC0B7079F001CC482
:10259000352B1C4C93E707021CCCB71701409387DF
:1025A000074098431377F7F098C3984313670708D9
:1025B00098C3094798CBB7F7FF1F03C5477D93071B
:1025C000F00F6304F5007D891123B727024098437B
:1025D000C176FD16719B98C398431367170098C383
:1025E000B7170240D843D8C3D843758FD8C3D84350
:1025F000B7060001D8C39843558F98C3B7060002A9
:102600009843758F75DFD843B7160240719BD8C3C6
:10261000D84313672700D8C32147DC42B18BE39E20
:10262000E7FE6FE09FA8371702405C43A146B18BDD
:102630006394D7045C433775DC02130505C0B716F5
:102640000240D842B70700209387070011833D8BD3
:10265000BA979C23D84293F5F70F13770708B3571F
:10266000F50005E3EFE2DFA3EFE0DFA63707002088
:102670002328A7006FE07FA337356E01130505609F
:102680007DBF370700202328F700828001A097E153
:10269000FF1F9381A11A138181FC17F5FFFF13051A
:1026A00065A097E5FF1F9385E59517E6FF1F1306C5
:1026B000669563FAC5008322050023A05500110525
:1026C0009105E3EAC5FE171500001305658F97E530
:1026D000FF1F9385259317E6FF1F1306269663FABF
:1026E000C5008322050023A0550011059105E3EAEA
:1026F000C5FE17E5FF1F13056594938541AE63770B
:10270000B500232005001105E36DB5FE89629382B3
:102710000288739002308D427390428097F2FFFFDF
:102720009382428E93E2320073905230EFF01FE2B8
:10273000970200009382828E7390123473002030CF
:10274000B7F7FF1F03A5477C82801C4141677917BB
:10275000F98F1CC123200500232205002324050036
:10276000B707024023260500138787006317E5009B
:10277000D8431367F700D8C382801387C701631655
:10278000E500D8431367070FFDB7138707036318E6
:10279000E500D8438566938606F0558FE9BF138719
:1027A00047046315E500D843BD66C5BF1387870599
:1027B0006316E500D843B7060F00C5B71387C706F1
:1027C0006316E500D843B706F000C1BF13870708BA
:1027D000E314E5FAD843B706000FC1B71841E17713
:1027E000BD0794517D8F9C45D58F9449D58FD44991
:1027F000D58F944DD58FD44DD58FD451D58F945539
:10280000D58FD98F1CC1DC455CC19C411CC5DC4106
:102810005CC582801C4189C593E717001CC182807A
:1028200041677917F98FDDBF58410C415045B70713
:102830000140938707403E9793C6F5FF39C2904306
:10284000758E90C3D043F18ED4C31443CD8E14C380
:10285000184190479346F7FF758E90C7D047F18E89
:10286000D4C7144541466399C6009447D98E94C78E
:10287000D447558FD8C78280B6979443558F98C355
:1028800082801C43F58F1CC38280B7070140938769
:1028900007409443DC4B2A877D8D01C5F98E333583
:1028A000D0008280B707014093870740C8CB828061
:1028B000B7270240C8C78280B7270240C8470589AA
:1028C00011E5C8474189133515000D058280B727EA
:1028D0000240C847058911E5C847418913351500ED
:1028E0000D058280EFE2CFFB2A84D5378547631838
:1028F000F50019E0154529A0D93F7D14C5BF7DD845
:102900006FE0AFFAEFE2CFF97111AA8409652E8466
:1029100002C0C93F9146631FD502B7270240984BBA
:1029200009651367170098CB1317040141839AA018
:10293000553F9146B7270240631BD500890426C046
:1029400002474180096502A3713FB7270240984BB7
:10295000799B98CB11016FE04FF5B7066745B72714
:102960000240938636123797EFCDD4C31307B79A38
:10297000D8C3D4D3D8D38280372702401C4BA1665A
:10298000D58F1CCB8280B70700F8AA97116763F632
:10299000E702B7270240984BB7060200558F98CB45
:1029A000C8CB984B1367070498CBD847058B75FFA6
:1029B000984B8176FD16758F98CB8280944593F75E
:1029C000060113F3F60081C7DC413363F30083D2C1
:1029D000050093F7F20FA9CF0C41611122C226C066
:1029E0008147930380023D449304800405473317D5
:1029F000F70033F6E2006310C7026397760258C906
:102A0000139627003317C4001347F7FF6D8F331653
:102A1000C300B365E60085072147E399E7FC12444C
:102A20000CC1824421018280E39C96FC18C9C9BF75
:102A300082805C4533F5F5003335A00082800CC9F7
:102A400082804CC9828019C20CC982804CC98280A4
:102A500037070140144786058D47B397B70093C7E2
:102A6000F7FFF58F1CC71C473315B5005D8D08C7F0
:102A7000828023AEA1AC828003A7C1AD854714211B
:102A80006310F7021C31639CE7023C219A0793E72D
:102A900007F837E700E093F7F70F36972300F74082
:102AA000054793D756003317D700544189CE9387F3
:102AB00007048A07B7E600E0B69798C38280EDF373
:102AC0003C219A07F9B793870706E5B73717024005
:102AD0001C430E0593F777F05D8D08C38280EFE20B
:102AE0002FDC371702405C43A1462A84B18B639FD9
:102AF000D7065C43B777DC02938707C01CC0371644
:102B00000240544237070020130787029182BD8A92
:102B10003697082358429375F50F1377070833D576
:102B2000A70001E73E85EFE0EFDA48C008C448C4DB
:102B3000B7170240DC438D46AD83FD8B13D73700BA
:102B40008A07F18BD98F13F6370113F7370063F437
:102B5000C600138747FFB707002093874701BA973E
:102B60008C23EFE02FD708C86FE02FD4B7376E0162
:102B70009387076061B799C5371702405C4BC98FCF
:102B80005CCB8280B7170240D84B1345F5FF798D97
:102B9000C8CB828099C5371702401C4FC98F1CCF04
:102BA0008280B7170240984F1345F5FF798D88CF83
:102BB000828099C5371702405C4FC98F5CCF8280F5
:102BC000B7170240D84F1345F5FF798DC8CF8280E3
:102BD0001E218D669386060433F7D700B6219E2109
:102BE000D58FD621D58FF621D58F9625D58FB625B1
:102BF000D58FD625D58FF625D58FD98F1EA19E29A5
:102C00001EA982801E2189C593E707041EA1828028
:102C1000C207C18393F7F7FBC207C183C5BF4EA5A7
:102C200082804A2582800A256D8D3335A0008280FE
:102C30001E2137370140130707C0C207C18363064F
:102C4000E500370700406316E500BA2193F7F7F86F
:102C5000D98FFA2193F7F7CFC207C183D98F1EA16D
:102C6000DE215EB59E211EB5B7370140938707C0B0
:102C70006314F5009C251EB985475EA982801E213C
:102C800089C593E717001EA18280C207C183F99B03
:102C9000C207C183CDBF5E2501C6CD8F5EA58280F0
:102CA00093C5F5FFED8FDDBF93C5F5FFC205C1816B
:102CB0000EA982801E294A25ED8F4205418189C7D0
:102CC0006D8D3335A00082800145828093C5F5FF6C
:102CD000C205C1810EA98280EFE28FBC1629F5776B
:102CE000FD17FD8EFE21DA252111D58F1EA956254F
:102CF000FD779387379FFD8EDE212A84AE84D58FA2
:102D00009625D58FB625D58F5EA55E29C207C183CE
:102D100093F7F7CFD98F5EA94800EFF05FDCB74794
:102D20000140938707806313F406C2471395170089
:102D30005A243E950E053E9593170701C1878C4096
:102D400063D807048605EFE0EFB8930540062AC074
:102D5000EFE04FB8824793144500930540063E8547
:102D6000EFE00FBA5E24C207C18763D507020E05E4
:102D70009305400613052503EFE0CFB51D89C98CE7
:102D8000C204C18006A461016FE02FB2B24779BFCF
:102D90008A0555BF12059305400613052503EFE08C
:102DA0006FB33D89E9BF5E2589C50967D98F5EA5E7
:102DB000828079777D17F98FDDBF13F7F50F85478F
:102DC0001583B395B7006319F7009307C5009843BF
:102DD00001CE4D8F98C38280894693074501E31841
:102DE000D7FE93070501E5B793C5F5FFF98D8CC3B1
:102DF00082805E2901C6CD8F5EA9828093C5F5FFD2
:102E0000ED8FDDBF93F5F51F4EA182804A2113752A
:102E1000F51F82800A216D8D3335A000828013F763
:102E2000F50F85461583AA873395B6006310D70240
:102E3000DA279E23798DC207C18301C9A181054785
:102E40003317B700F98F3335F00082808946631459
:102E5000D7009A2BF9BFDA2BE9BFA1818547B39739
:102E6000B70093C7F7FFC207C1831EA18280EFE2BC
:102E70002FA3B707002003A50701B7157A00938594
:102E80000520EFE02FA51375F50F2381A1AE931751
:102E90005500898F8A073E950E052390A1AE6FE0FD
:102EA000CFA0EFE2EF9F37F400E05C40AA85F99BEA
:102EB0005CC003C521AEEFE0EF9F08C823240400E7
:102EC0001C4093E717001CC0B7F700E0D843058B00
:102ED00075DF9843799B98C36FE02F9DEFE24F9C7D
:102EE00037F400E05C40AA85F99B5CC003D501AED5
:102EF000EFE04F9C08C8232404001C4093E7170010
:102F00001CC0B7F700E0D843058B75DF9843799B69
:102F100098C36FE08F99AA879823850775FF33853B
:102F2000A7407D15828000002D2D2D2D2D20414D97
:102F30004F4E204C696E6B202D2D2D2D2D0D0A002E
:102F40004465766963652049443A2000436F6E6E9C
:102F5000656374696F6E204641494C4544210D0AF2
:102F6000000000000000000000C2A1551201000096
:102F700000000000000000006403000100000000E9
:102F800000000000010000006403010100000000D7
:102F90000000000001000000D4B2AA785000000038
:102FA00000000000000000000000000046030101D6
:0C2FB0000F00D000000000000000000036
:102FBC0001020304050607080102030405060708BD
:102FCC00006CDC020204060804080C10081018201F
:102FDC0010203040204060800102030405060708E1
:082FEC000102030405060708B9
:0400000300001000E9
:00000001FF
