:101000006F10606A00000000F2190000F41900007F
:1010100000000000000000000000000000000000D0
:1010200000000000000000000000000000000000C0
:10103000A426000000000000A4260000000000001C
:10104000A4260000A4260000A4260000A426000078
:10105000A81E0000A4260000A4260000A42600006C
:10106000A4260000A4260000A4260000A426000058
:10107000A4260000A4260000A4260000A426000048
:10108000E81D0000A4260000A4260000A4260000FD
:10109000A4260000A4260000E21E000000000000BC
:1010A000511126C022C206C4828282441244A24048
:1010B000310182802A86014593F6150091C232954E
:1010C00085810606F5F9828000000000634E050266
:1010D00063C305042E86AA857D5515C285466378AF
:1010E000B6006356C00006068606E36CB6FE0145F0
:1010F00063E4C500918D558D85820582F5FA828065
:101100008682C93F2E8582823305A0406347B000A6
:10111000B305B040C1B7B305B0408682653F330523
:10112000A0408282868263C70500634905005D375F
:101130002E858282B305B040E35B05FE3305A040F7
:10114000513F3305B040828200002A8309CA83835D
:101150000500230073007D16050385056DFA828066
:1011600015C22A8385466367B500FD561307F6FF4F
:101170003A93BA9583830500230073007D16369356
:10118000B6956DFA82802A8311C62300B3007D16BE
:10119000050365FE82800E2548416F10D00B0E2995
:1011A00048456F10900B0E2548416F10100BEFF261
:1011B0003FEF2A84AE8408408945EF10502865DD52
:1011C0000840A685EF10302708408545EF103027EE
:1011D00065DD0840EF1070261375F50FF9B5EFF2D5
:1011E0003FEC0CC150C116A558C51EA92A8465370D
:1011F000228575375DBDEFF2BFEA71112E84B2848E
:101200002AC0A2944D3763179400024569370145FF
:10121000110161BD0C2002450504513FEDB7EFF20D
:101220003FE8611132C2B6842E842AC0AD3F024528
:101230009375F401AD3F2A8402459305F00F853F75
:10124000124608A20245813F91C080A001452101BC
:10125000A9BDEFF2FFE46111B28436C22E842AC028
:10126000993702459375F40193E5050289372A847D
:101270000245A6852D3F0245393F924691C280A284
:10128000014521011DB5EFF2BFE12A84AE84213F63
:101290009305F00F2285213F88A02285ED3D014571
:1012A00029B5EFF2FFDF7111930531002A84E13F88
:1012B000908130AC9377060499CB8547A30BF40655
:1012C000935716409D8B1D476383E7001CBC9377A3
:1012D000060291C78547230CF406A30D04009377FB
:1012E000060191C78547A30CF406A30D04008146AF
:1012F000137606079D452285A93F11017DB3EFF2C4
:101300003FDA61112A84613D22857135130660043C
:101310008145230C0400230D040013054403A53567
:1013200081461306310081452285D53D9081814655
:1013300081451376D60F2285293F85441305400643
:1013400044D4EF1090375C5081468D459033228510
:101350000D8A01375C508146954590232285158A78
:10136000CD3D5C50A30101009847631497002147CD
:10137000D881D84785469C81630AD70E8946630B7E
:10138000D70E93E767006305070E90818146994564
:101390002285C1355C5081469145D023FE232285AC
:1013A0003D8A92075D8E1376F60FD0815D355C50D5
:1013B00081460546BC2391E3014685452285513D82
:1013C000814605468945228569355C50BC33D5C7C1
:1013D0009D679387073509464C0022857C82213D15
:1013E00081461146F5452285AD3581460546F145D4
:1013F00022858535855705464C0022855C82E53B74
:10140000895705464C0022855C82F53381461306D8
:1014100000079D452285353D1850B147DC81854741
:101420006314F700B547DC819081814681452285B0
:101430000D3581461306310081452285CD339081DB
:1014400081468145136626002285D08119350945DC
:10145000EF10502A185085476319F7020E284844A8
:10146000EF10605F91475CD4210181B193E74700A1
:10147000DC8121BF93E72700E5BF81460146F545A2
:101480002285C13B814601469DB72285093B89479C
:10149000D9BFEFF2FFC085473CBD1C5171112A84B2
:1014A00091C791475CC90545110101B183474505C5
:1014B0007D47FD1793F7F70FE367F7FECD318146C0
:1014C000130600039D45231C0406228559338957C2
:1014D0000546930531002285DC81313B2285E131CF
:1014E0009305000A2285E13181448347440563E086
:1014F000F40222854D310E284844EF10C0551305E3
:101500004006EF10901B22855939014571BFB30782
:10151000940083C5470322858504513993F4F40F61
:10152000E9B7EFF2FFB71451054751112A849147EB
:101530006390E60613060002814513055505A131A7
:101540002285A30A0406230B0406B139930500067D
:101550002285B1399305F00F22859139AA8422851D
:101560001D399387F4FF93F7F70F7D476376F702F2
:10157000855705469305B1002285DC85AD39814646
:10158000130600049D452285E9318D47A30B04060F
:101590005CC80545310111BE228531319305100625
:1015A00022853131A287338784009305F00F22858D
:1015B0003AC23EC0ED3E82471247A38AA704850780
:1015C000E395E7FE2285C13E8146130600049D4552
:1015D000228541310145A30B0406A30A94065DBF91
:1015E000EFF21FAC5C5161112A849C33AE848907F1
:1015F00093F7F70F3EC0453E930500032285453E15
:101600008147824613F7F70F6368D7022285613658
:101610005C50BC2399CF228579369305A0022285A0
:1016200079368147824613F7F70F6360D702228528
:101630009D360145210195BC3387F4000C2322859A
:101640003EC2B536924785076DBF3387F4000C2341
:1016500022853EC2A93E92478507E9B7EFF25FA413
:1016600051112AC0954763E1B7065C512E84B284BC
:101670009C333EC20D3E02459305A40093E505024E
:1016800093F5F50F2D36854663EC860292470147A8
:10169000890793F7F70F9376F70F63E8F600024593
:1016A000DD3C014531016FF05FA0B386E4008C2280
:1016B00002453EC43AC2E53C1247A2470507E1BFD6
:1016C0008C200245ED34E1BF0545E9BFEFF25F9D97
:1016D000B7040020138484030346D4048145138592
:1016E00001855534370500206946814513054504B9
:1016F00023130404232404042326040423AC040237
:101700002322040023240400BD3C6FF01F9AEFF253
:101710003F9971112E84AA8432C04D3F9420024615
:1017200074A09C307CB0BC201CA4BC301CB4D8205D
:1017300038A4CC302CB489CD01473385E400034371
:1017400065003305E400050723066500E347B7FE9F
:1017500005470945639FE60045471545638BE7004C
:10176000636CF7006385D70241470D456383E7004B
:10177000014511016FF07F93130700020D45E38AC5
:10178000E7FE138517F0133515000A05DDB71CA217
:1017900030347A209307A0FA2303F40493078600D9
:1017A000A303F4042314E4043C241A24A306C4046D
:1017B0002306F4042315E40419E21D455DBF9305D7
:1017C000C40013050405EFF0BF99C5BF7C219CA19F
:1017D0007C319CB11C25BCA11C35BCB13C25DCA1D5
:1017E0003C35DCB185E33C3599071CA28280330788
:1017F000F50054273387F500850774A33835E3C80F
:10180000E7FED5B78147DDBF2A866973416581460A
:101810007D15050393970601C18363E3B7008280BA
:10182000B307D6009C233D8DA14713771500058192
:1018300011C733476500131507014181FD1793F761
:10184000F70FE5F78506F9B7EFF29F8571112E8442
:101850002AC0B284A53D0245914618212303E40421
:101860001C31A303F4046391D70418A01CB03821E1
:1018700038A0383138B0583154212207558F5AA03A
:101880000C300505B5C9FD15C205C181B53F5E2007
:1018900005476397A7003420C14729476398F60698
:1018A0003A8511016FF07F8038212304E404383138
:1018B000A304E40458212305E4045831A305E404F7
:1018C00078212306E4047431A306D40491EAB30614
:1018D000F500983294222207558F2317E4044DB760
:1018E00001473306E5000C263306E400050723080C
:1018F000B604E348D7FEE1BF9385F7FFC205C18177
:1019000021378357E4040547E39CA7F88346840402
:1019100085470947E396F6F88347B40413070002A6
:10192000638AE7026361F70245461547E38AC7F613
:101930000147E367F6F60D47E384D7F6C146E38136
:10194000D7F60147B1BF938717F093B717001397E6
:101950002700B9B794A0835784040346D4049305A1
:1019600004057EA08357A4041305C4001EA4835756
:10197000C4043EA4EFF0CFFE19471DB7EFF24FF2BB
:10198000834765042E849CA1834775049CB18347DB
:101990008504BCA183479504BCB18347A504DCA1A1
:1019A0008347B504DCB18347C504FCA18347D50454
:1019B000FCB195EF8344D50413051400938574009E
:1019C000A10493F4F40F8935A29488A0218188B0F2
:1019D0006FF0AFED3307F500834607053307F400DA
:1019E000850714A70347D504E3C6E7FEE1B781479F
:1019F000D5BF01A0B707EFBE37E700E09387070820
:101A00003CC701A0EFF2CFE91301C1FD85451305E5
:101A1000100302C402C602C802CA02CC02CE02D01F
:101A200002C002C2EF1080180D448544C1472C004B
:101A300037150140648422C63EC8EF00B079C14723
:101A40003EC8B71701402C0013850740648422C6A6
:101A5000EF005078930780023EC8B7170140138506
:101A6000074041472C00788422C6EF00B0769145AC
:101A70000D45EF00707F4147A14648083ACA36CE6F
:101A800026D002CCEF00D05B930740110A857C8002
:101A9000448126C2EF00D07FB717014013068004AF
:101AA00013850740A1462C0032C8748422C6EF007B
:101AB00070728D450D45EF00307B3147A1464808D7
:101AC0003ACE36CA26D002CCEF0090579307401189
:101AD0000A857C8026C223010100EF00707B13067B
:101AE000800489462C003715014032C8748422C610
:101AF000EF00506E85450945EF0010778946314764
:101B0000480836CA3ACE26D002CCEF00705393076D
:101B100040110A857C8026C223010100EF00507726
:101B2000A14641472C0037150140748422C63AC8AB
:101B3000EF00506A914441472C00371501406484FE
:101B400022C63AC8EF001069414778842C0041470B
:101B50003715014022C63AC8EF00D067B7170140D9
:101B600041472C0013850740648422C63AC8EF0021
:101B70007066130141026FF04FD3EFF26FD2311153
:101B80008545054502C402C62318010002C002C2F1
:101B9000EF10A003BD473EC4BD679387F7A52C0097
:101BA000370500403EC6EF10200A85453705004046
:101BB000EF10001113070004B7E700E023A2E728A5
:101BC0000546854537050040EF10600E930760120B
:101BD0007C8089475C810A8585473EC2EF00506B57
:101BE00013052003EF100031854537050040EF1045
:101BF000800A51016FF06FCBEFF28FCA11651301AC
:101C0000C1FD85451305150202C402C602C802CAF9
:101C100002CC02CE02D002C002C2EF003079B70778
:101C20000140D843B706E0FFED16758FD8C3D843FF
:101C3000B706200037140140558FD8C3930700041E
:101C40007C848D44E1472C001305044026C63EC821
:101C5000EF005058930700027C842C009147130535
:101C6000044026C63EC8EF00F056F16737440140F5
:101C7000938707203ECA4C08B7070C001305048061
:101C80003ECE02CC23100102EF10800605469305DC
:101C9000505213050480EF10C013930700127C808C
:101CA0000A8585473EC223010100EF00705E85452D
:101CB00013050480EF10A010130141026FF0EFBE76
:101CC000EFF20FBE130141FD1306C00281450A85E4
:101CD000EFF06FCB85450545EF00706BB704024010
:101CE00013854404EF00F0273744014093074480F4
:101CF0003EC0938751A83EC2C1473EC4930700042B
:101D00003EC6930700083ECA8A858567138544044A
:101D10003ED202C802CC02CE02D002D4EF00902DF7
:101D200005469305000813050480EF10000E13010B
:101D3000C1026FF08FB7EFF2AFB60565511185455F
:101D40001105EF00B0669307000661447C808A8528
:101D50008D473715014022C43EC2EF00B0479307BC
:101D600000087C808A859147371501403EC4EF000A
:101D700070469387818937070401D8C39385C18949
:101D8000370700023735014023A40700D8C780CBAE
:101D9000EF009065854537350140EF00306831012F
:101DA0006FF0AFB0EFF2CFAFAA84370502402E84B8
:101DB000130545048145EF0070272694638484024F
:101DC000B74701401385078093050008EF10000610
:101DD000B747014075D58C20138507808504EF1027
:101DE000E003E9BF6FF06FAC611122C237440140DC
:101DF000930550521305048026C0EF10C00325C977
:101E000013050480EF10000283C751891376F50F84
:101E1000938401A43387F400850793F7F70F10A389
:101E2000A38AF1881307A00A938501A46316E60428
:101E300003C7418931E385471306000481451385B3
:101E400001A42381F40423800404238A0188EFF091
:101E50008FB38547A38AF1889307A0FA9CA03745E2
:101E600001409305505213050580EF108000124485
:101E7000824421017300203003C32504054503C7B4
:101E800041896318A30011E7238AC18823810504CF
:101E9000F9B70507E355F7FC85472380F504A38AC6
:101EA0000188238A018865BF4145EF00901F01C565
:101EB0004145EF00B0202145EF00B01E19C5054790
:101EC00021452382E194EF00701F0945EF00701D4A
:101ED00019C5054709452384E18CEF00301E7300C6
:101EE0002030711185453705004022C0EF00105E9B
:101EF00039CD138781AC14270547938781AC63974D
:101F0000E60083D6218999C223990188F823914755
:101F1000631AF70283C701890D47850793F7F70F07
:101F20002388F1886370F702854537150140EF007B
:101F3000D03113361500854537150140EF0030329A
:101F400023880188854537050040EF00B0590244D9
:101F5000110173002030EFF2AF942A84EF0070215A
:101F600013051003EF00501637450008130505FC54
:101F7000EF00F022EF00D0158547E30DF5FE0C20B1
:101F800037450008130505FCEF005019EF00501409
:101F90008547E30DF5FE4C4037450008130545FC29
:101FA000EF00D017EF00D0128547E30DF5FEEF00EC
:101FB000301E6FF08F8FEFF2AF8EB71701809387CF
:101FC000A7BA138401A423A0F1A493072010938639
:101FD000819A5EA089477CA0DC42A94513D687017F
:101FE00070B013D6070110A4138511A413D687006F
:101FF0003CA410B4EFF05F8128B4218148A493057C
:102000000004138501A4793B9307800873B007305F
:1020100085479386819A1385819A9CA22D3FB707A5
:10202000EFBE37E700E0938707083CC701A0EFF257
:102030002F871301C1FC0545EF0030250925EF006E
:102040009064EFF03F9CEFF05FB3EFF0FFBA8D3993
:10205000DD31938781ACDC33138481AC9384C192EE
:10206000DDE7B71701401385074005468545EF00BA
:10207000101F0146A14537150140EF00501E0146D3
:10208000914537150140EF00901D0546C1453715B4
:102090000140EF00D01CB7170140138507400546EB
:1020A0009145EF00D01BEF00206B08C037470008B8
:1020B000834707FC9386819A93F7F70F9CA2130737
:1020C00047FC1843D8C205476397E7001385819AF8
:1020D000238006004935230304001387018B8547BD
:1020E00023040400232607029386018B7D575CA0FE
:1020F0005CB0A304040023A6040223070400230900
:10210000040098BC98BE9307800873A0073093879B
:1021100001A403C7070485476314F7043AC2138672
:1021200041A8138701A49385019B138501A4230073
:102130000704EFF06FF12AC013060004138501A411
:102140008145EFF04F84824799466388D72463E046
:10215000F624914612476381D72415476382E7240A
:10216000938701A483C7370405476392E7043EC001
:10217000938701A4138611A89385019B1385519021
:10218000A3810704EFF0AFD81D4782476313E50032
:102190003CA838288547631CF7008D67938707F9AB
:1021A0009386018B1385018BDCD2EFF04F95982C31
:1021B0008547631CF7001385C192EFF08F8E9C3C1E
:1021C000238BF406930700F09EAC9387018B982F26
:1021D00085476312F7021385018BEFF08F8C93878D
:1021E000018B9C3F9386018B1387018B238BF60613
:1021F000930700F01EAF782005439377F70F630B2A
:10220000671C09476389E732E39307F01305803EB3
:10221000EF00504E8D656146938505F46808EFE048
:10222000DFF26808EF00B05093150501C18168081E
:10223000EFF05FB78D653146938585F50808EFE0CF
:10224000DFF00808EF00B04E93150501C1810808C2
:10225000EFF05FB59145138581ACEFF0BFB48567B2
:102260009387D7A068007C8623070100EF00304CDD
:1022700093150501C1816800EFF0DFB2A147371760
:102280000140C14637160140B73501401385C19260
:10229000EFE0FFF437160140B73501401385018B9D
:1022A000914737170140914613060640EFE03FF390
:1022B0009305B1001385C192A3050100EFE0BFFCB7
:1022C00001E99885B94705436300F70E23AA640026
:1022D0009305B1001385018BEFE0FFFA09E99885BA
:1022E000B9476308F70C85471387018B5CCB8D6773
:1022F000938747FCDCD08D67938707FB9CD41385BD
:10230000C19223A0040223AE0400EFE05FFF8C54CF
:102310001385C192EFF0CFAC05479387018B98D31B
:102320008D671386018B938707FA5CD28D6793873D
:10233000C7F71CD6B6871385018B9386018BD8CE41
:10234000EFE0FFFB1387018B10571385018B81454D
:102350001506EFF0AFB00146854537150140EF0097
:102360000070B71701400146854513850740EF000F
:10237000006FD44805476389E6009387018BD44BEF
:10238000B71701406390E60491477CA049B3294701
:10239000E398E7DCEFF03FC278A023090400C9B35B
:1023A000930700103EA86DBB23AA040023A6640275
:1023B00005B79387018B23AA07001387018B8547F5
:1023C0005CD735B778A00546854513850740EF00F3
:1023D000006935BB78346319F7021387019B9307B3
:1023E00010507EA3B72711008507138601989385A7
:1023F00001961385019B1CC7EFF04FBD1385C19259
:10240000EFF02F89A30704001C3413F7F70F91C7CF
:102410008547E30EF7CE89478DBF938701A483C715
:102420004704A9C713860198938501961385019BDC
:10243000EFF0CFB9382885476312F7028D6793878D
:1024400007FA9386018B1385018BDCD2EFE03FEB1B
:102450000146854537150140EF0060601385C19244
:10246000EFF02F83938701A423820704938701A4AD
:1024700083C71704A9C3138701A4938501A41385F7
:10248000019BA3000704EFF06FCF9387019B83C5E7
:102490007704138501A48905EFF0DF903C280146FD
:1024A00099C78545371501404D23133615008545DD
:1024B000371501406D2383C7840791C73E24238CC1
:1024C000040685073EA483C7940789CF1E28A38CE2
:1024D000040611478507C207C1831EA86374F7006D
:1024E00085477CA49387018B83C7770791CB13859E
:1024F000018BEFF00F838547138701A4A301F70435
:102500003C38E38607C09387019B83C6C704A309B1
:1025100004004947E39DE6BE83C707050547639866
:10252000E7003CA805468545371501404DB5230910
:1025300004000146CDBF8D655546938545F6680874
:10254000EFE0BFC06808EF00901E93150501C18140
:102550006808EFF03F8505468545371501400123A2
:102560008D4725B5EFE2DFB3371402401C40370733
:10257000FFF8414593E717001CC05C40F98F5CC031
:102580001C403707F7FE7D17F98F1CC01C4037072A
:10259000FCFF7D17F98F1CC05C4041777D17F98FD8
:1025A0005CC0B7079F001CC4352B1C4C93E7070287
:1025B0001CCCB71701409387074098431377F7F077
:1025C00098C398431367070898C3094798CBB7F790
:1025D000FF1F03C5477D9307F00F6304F5007D8956
:1025E0001123B72702409843C176FD16719B98C30B
:1025F00098431367170098C3B7170240D843D8C34E
:10260000D843758FD8C3D843B7060001D8C39843C1
:10261000558F98C3B70600029843758F75DFD8436E
:10262000B7160240719BD8C3D84313672700D8C39D
:102630002147DC42B18BE39EE7FE6FE01FA737170F
:1026400002405C43A146B18B6394D7045C43377569
:10265000DC02130505C0B7160240D842B7070020B8
:102660009387070011833D8BBA979C23D84293F53B
:10267000F70F13770708B357F50005E3EFE25FA202
:10268000EFE05FA5370700202328A7006FE0FFA138
:1026900037356E01130505607DBF370700202328FD
:1026A000F700828001A097E1FF1F93812119138118
:1026B00081FC17F5FFFF1305E59E97E5FF1F938546
:1026C000659417E6FF1F1306E69363FAC50083229D
:1026D000050023A0550011059105E3EAC5FE171575
:1026E00000001305658F97E5FF1F9385A59117E6F9
:1026F000FF1F1306A69463FAC5008322050023A0DA
:10270000550011059105E3EAC5FE17E5FF1F130506
:10271000E592938541AE6377B5002320050011054E
:10272000E36DB5FE896293820288739002308D4218
:102730007390428097F2FFFF9382C28C93E2320043
:1027400073905230EFF01FE2970200009382628E86
:102750007390123473002030B7F7FF1F03A5477C36
:1027600082801C4141677917F98F1CC12320050025
:102770002322050023240500B70702402326050075
:10278000138787006317E500D8431367F700D8C3A2
:1027900082801387C7016316E500D8431367070FCC
:1027A000FDB7138707036318E500D8438566938652
:1027B00006F0558FE9BF138747046315E500D8433A
:1027C000BD66C5BF138787056316E500D843B70606
:1027D0000F00C5B71387C7066316E500D843B706D1
:1027E000F000C1BF13870708E314E5FAD843B70622
:1027F000000FC1B71841E177BD0794517D8F9C450B
:10280000D58F9449D58FD449D58F944DD58FD44D3C
:10281000D58FD451D58F9455D58FD98F1CC1DC4518
:102820005CC19C411CC5DC415CC582801C4189C5E2
:1028300093E717001CC1828041677917F98FDDBFCC
:1028400058410C415045B7070140938707403E97D8
:1028500093C6F5FF39C29043758E90C3D043F18E75
:10286000D4C31443CD8E14C3184190479346F7FF49
:10287000758E90C7D047F18ED4C7144541466399F1
:10288000C6009447D98E94C7D447558FD8C7828045
:10289000B6979443558F98C382801C43F58F1CC311
:1028A0008280B7070140938707409443DC4B2A8717
:1028B0007D8D01C5F98E3335D0008280B707014088
:1028C00093870740C8CB8280B7270240C8C7828061
:1028D000B7270240C847058911E5C8474189133524
:1028E00015000D058280B7270240C847058911E50C
:1028F000C8474189133515000D058280EFE24FFA74
:102900002A84D53785476318F50019E0154529A0B5
:10291000D93F7D14C5BF7DD86FE02FF9EFE24FF8A6
:102920007111AA8409652E8402C0C93F9146631FB4
:10293000D502B7270240984B09651367170098CB5B
:102940001317040141839AA0553F9146B7270240CF
:10295000631BD500890426C002474180096502A394
:10296000713FB7270240984B799B98CB11016FE0DC
:10297000CFF3B7066745B7270240938636123797DD
:10298000EFCDD4C31307B79AD8C3D4D3D8D382809A
:10299000372702401C4BA166D58F1CCB8280B7071E
:1029A00000F8AA97116763F6E702B7270240984B31
:1029B000B7060200558F98CBC8CB984B1367070416
:1029C00098CBD847058B75FF984B8176FD16758F90
:1029D00098CB8280944593F7060113F3F60081C7E4
:1029E000DC413363F30083D2050093F7F20FA9CFE4
:1029F0000C41611122C226C08147930380023D44ED
:102A00009304800405473317F70033F6E2006310A0
:102A1000C7026397760258C9139627003317C4007C
:102A20001347F7FF6D8F3316C300B365E6008507C4
:102A30002147E399E7FC12440CC1824421018280C2
:102A4000E39C96FC18C9C9BF82805C4533F5F5004C
:102A50003335A00082800CC982804CC9828019C2A3
:102A60000CC982804CC98280370701401447860513
:102A70008D47B397B70093C7F7FFF58F1CC71C4767
:102A80003315B5005D8D08C7828023AEA1AC82806E
:102A900003A7C1AD854714216310F7021C31639C65
:102AA000E7023C219A0793E707F837E700E093F73E
:102AB000F70F36972300F740054793D75600331793
:102AC000D700544189CE938707048A07B7E600E010
:102AD000B69798C38280EDF33C219A07F9B79387A4
:102AE0000706E5B7371702401C430E0593F777F04A
:102AF0005D8D08C38280EFE2AFDA371702405C4396
:102B0000A1462A84B18B639FD7065C43B777DC026A
:102B1000938707C01CC03716024054423707002075
:102B2000130787029182BD8A36970823584293750E
:102B3000F50F1377070833D5A70001E73E85EFE0CF
:102B40006FD948C008C448C4B7170240DC438D465B
:102B5000AD83FD8B13D737008A07F18BD98F13F61E
:102B6000370113F7370063F4C600138747FFB70731
:102B7000002093874701BA978C23EFE0AFD508C8B0
:102B80006FE0AFD2B7376E019387076061B799C521
:102B9000371702405C4BC98F5CCB8280B71702406D
:102BA000D84B1345F5FF798DC8CB828099C537176F
:102BB00002401C4FC98F1CCF8280B7170240984F2C
:102BC0001345F5FF798D88CF828099C5371702406C
:102BD0005C4FC98F5CCF8280B7170240D84F134536
:102BE000F5FF798DC8CF82801E218D6693860604FD
:102BF00033F7D700B6219E21D58FD621D58FF62168
:102C0000D58F9625D58FB625D58FD625D58FF62588
:102C1000D58FD98F1EA19E291EA982801E2189C50C
:102C200093E707041EA18280C207C18393F7F7FBD5
:102C3000C207C183C5BF4EA582804A2582800A256E
:102C40006D8D3335A00082801E2137370140130778
:102C500007C0C207C1836306E5003707004063165B
:102C6000E500BA2193F7F7F8D98FFA2193F7F7CF58
:102C7000C207C183D98F1EA1DE215EB59E211EB57C
:102C8000B7370140938707C06314F5009C251EB930
:102C900085475EA982801E2189C593E717001EA182
:102CA0008280C207C183F99BC207C183CDBF5E2565
:102CB00001C6CD8F5EA5828093C5F5FFED8FDDBF88
:102CC00093C5F5FFC205C1810EA982801E294A2540
:102CD000ED8F4205418189C76D8D3335A00082801B
:102CE0000145828093C5F5FFC205C1810EA982808E
:102CF000EFE20FBB1629F577FD17FD8EFE21DA25D1
:102D00002111D58F1EA95625FD779387379FFD8EFC
:102D1000DE212A84AE84D58F9625D58FB625D58F12
:102D20005EA55E29C207C18393F7F7CFD98F5EA94D
:102D30004800EFF05FDCB7470140938707806313DB
:102D4000F406C247139517005A243E950E053E958A
:102D500093170701C1878C4063D807048605EFE00D
:102D60006FB7930540062AC0EFE0CFB682479314B1
:102D70004500930540063E85EFE08FB85E24C2070C
:102D8000C18763D507020E05930540061305250389
:102D9000EFE04FB41D89C98CC204C18006A4610153
:102DA0006FE0AFB0B24779BF8A0555BF12059305F2
:102DB000400613052503EFE0EFB13D89E9BF5E252D
:102DC00089C50967D98F5EA5828079777D17F98FCC
:102DD000DDBF13F7F50F85471583B395B70063196A
:102DE000F7009307C500984301CE4D8F98C38280AA
:102DF000894693074501E318D7FE93070501E5B718
:102E000093C5F5FFF98D8CC382805E2901C6CD8FF5
:102E10005EA9828093C5F5FFED8FDDBF93F5F51FA9
:102E20004EA182804A211375F51F82800A216D8D83
:102E30003335A000828013F7F50F85461583AA87E6
:102E40003395B6006310D702DA279E23798DC20727
:102E5000C18301C9A18105473317B700F98F333505
:102E6000F000828089466314D7009A2BF9BFDA2BD1
:102E7000E9BFA1818547B397B70093C7F7FFC207A2
:102E8000C1831EA18280EFE2AFA1B707002003A596
:102E90000701B7157A0093850520EFE0AFA31375FE
:102EA000F50F2381A1AE93175500898F8A073E95B0
:102EB0000E052390A1AE6FE04F9FEFE26F9E37F4B7
:102EC00000E05C40AA85F99B5CC003C521AEEFE041
:102ED0006F9E08C8232404001C4093E717001CC001
:102EE000B7F700E0D843058B75DF9843799B98C30B
:102EF0006FE0AF9BEFE2CF9A37F400E05C40AA8529
:102F0000F99B5CC003D501AEEFE0CF9A08C823243B
:102F100004001C4093E717001CC0B7F700E0D8433B
:102F2000058B75DF9843799B98C36FE00F98AA874C
:102F30009823850775FF3385A7407D1582800000A3
:102F40002D2D2D2D2D20414D4F4E204C696E6B2087
:102F50002D2D2D2D2D0D0A004465766963652049C0
:102F6000443A2000436F6E6E656374696F6E20464D
:102F700041494C4544210D0A0000000000000000BA
:102F800000C2A15512010000000000000000000076
:102F900064030001000000000000000001000000C8
:102FA00064030001000000000000000001000000B8
:102FB000D4B2AA7850000000000000000000000019
:102FC00000000000460300010F00D00000000000D8
:042FD00000000000FD
:102FD40001020304050607080102030405060708A5
:102FE400006CDC020204060804080C100810182007
:102FF40010203040204060800102030405060708C9
:083004000102030405060708A0
:0400000300001000E9
:00000001FF
