:101000006F10007600000000F4190000F6190000CF
:1010100000000000000000000000000000000000D0
:1010200000000000000000000000000000000000C0
:101030005E270000000000005E27000000000000A6
:101040005E2700005E2700005E2700005E2700008C
:10105000AA1E00005E2700005E2700005E27000039
:101060005E2700005E2700005E2700005E2700006C
:101070005E2700005E2700005E2700005E2700005C
:10108000EA1D00005E2700005E2700005E270000CA
:101090005E2700005E270000E41E00000000000044
:1010A000511126C022C206C4828282441244A24048
:1010B000310182802A86014593F6150091C232954E
:1010C00085810606F5F9828000000000634E050266
:1010D00063C305042E86AA857D5515C285466378AF
:1010E000B6006356C00006068606E36CB6FE0145F0
:1010F00063E4C500918D558D85820582F5FA828065
:101100008682C93F2E8582823305A0406347B000A6
:10111000B305B040C1B7B305B0408682653F330523
:10112000A0408282868263C70500634905005D375F
:101130002E858282B305B040E35B05FE3305A040F7
:10114000513F3305B040828200002A8309CA83835D
:101150000500230073007D16050385056DFA828066
:1011600015C22A8385466367B500FD561307F6FF4F
:101170003A93BA9583830500230073007D16369356
:10118000B6956DFA82802A8311C62300B3007D16BE
:10119000050365FE82800E2548416F1070170E29E9
:1011A00048456F1030170E2548416F10B016EFF20A
:1011B0003FEF2A84AE8408408945EF10F03365DDA7
:1011C0000840A685EF10D03208408545EF10D03298
:1011D00065DD0840EF1010321375F50FF9B5EFF229
:1011E0003FEC0CC150C116A558C51EA92A8465370D
:1011F000228575375DBDEFF2BFEA71112E84B2848E
:101200002AC0A2944D3763179400024569370145FF
:10121000110161BD0C2002450504513FEDB7EFF20D
:101220003FE8611132C2B6842E842AC0AD3F024528
:101230009375F401AD3F2A8402459305F00F853F75
:10124000124608A20245813F91C080A001452101BC
:10125000A9BDEFF2FFE46111B28436C22E842AC028
:10126000993702459375F40193E5050289372A847D
:101270000245A6852D3F0245393F924691C280A284
:10128000014521011DB5EFF2BFE12A84AE84213F63
:101290009305F00F2285213F88A02285ED3D014571
:1012A00029B5EFF2FFDF7111930531002A84E13F88
:1012B000908130AC9377060499CB8547A30BF40655
:1012C000935716409D8B1D476383E7001CBC9377A3
:1012D000060291C78547230CF406A30D04009377FB
:1012E000060191C78547A30CF406A30D04008146AF
:1012F000137606079D452285A93F11017DB3EFF2C4
:101300003FDA61112A84613D22857135130660043C
:101310008145230C0400230D040013054403A53567
:1013200081461306310081452285D53D9081814655
:1013300081451376D60F2285293F85441305400643
:1013400044D4EF1030435C5081468D459033228564
:101350000D8A01375C50814695459023228513768E
:10136000F607C53D5C50A301010098476314970040
:101370002147D881D84785469C81630AD70E894684
:10138000630BD70E93E767006305070E90818146D4
:10139000994522857D3D5C5081469145D023FE23B1
:1013A00022853D8A92075D8E1376F60FD0815535E2
:1013B0005C5081460546BC2391E301468545228564
:1013C000493D814605468945228561355C50BC33DF
:1013D000D5C79D679387073509464C0022857C82D7
:1013E000193D81461146F5452285A53581460546BC
:1013F000F1452285B93D855705464C0022855C8222
:10140000DD3B895705464C0022855C82ED338146E1
:10141000130600079D4522852D3D1850B147DC81FC
:1014200085476314F700B547DC819081814681458B
:101430002285053581461306310081452285C53355
:10144000908181468145136626002285D081113521
:101450000945EF10D035185085476319F7020E285B
:101460004844EF10E06A91475CD421013DB993E70D
:101470004700DC8121BF93E72700E5BF8146014695
:10148000F5452285F933814601469DB72285013B0A
:101490008947D9BFEFF2DFC085473CBD1C517111B0
:1014A0002A8491C791475CC905451101FDBE834758
:1014B00045057D47FD1793F7F70FE367F7FEC53145
:1014C0008146130600039D45231C040622855133E3
:1014D00089570546930531002285DC81293B228509
:1014E000D9319305000A2285D931814483474405C7
:1014F00063E0F402228545310E284844EF10406134
:1015000013054006EF10102722855139014571BFA0
:10151000B307940083C5470322858504493993F4B2
:10152000F40FE9B7EFF2DFB71451054751112A84E0
:1015300091476390E60613060002814513055505A1
:1015400099312285A30A0406230B0406A9399305C1
:1015500000062285A9399305F00F22858939AA84CE
:10156000228515399387F4FF93F7F70F7D4763764C
:10157000F702855705469305B1002285DC85A5391C
:101580008146130600049D452285E1318D47A30B5A
:1015900004065CC80545310109BE22852931930541
:1015A000100622852931A287338784009305F00F26
:1015B00022853AC23EC0E53E82471247A38AA7046D
:1015C0008507E395E7FE2285F93681461306000478
:1015D0009D452285BD390145A30B0406A30A940647
:1015E0005DBFEFF2FFAB5C5161112A849C33AE8486
:1015F000890793F7F70F3EC07D36930500032285D8
:101600007D368147824613F7F70F6368D70222853C
:1016100059365C50BC2399CF228571369305A002C0
:10162000228571368147824613F7F70F6360D70230
:1016300022859536014521018DBC3387F4000C23AA
:1016400022853EC2AD36924785076DBF3387F400D1
:101650000C2322853EC2A13E92478507E9B7EFF2EF
:101660003FA451112AC0954763E1B7065C512E840F
:10167000B2849C333EC2053E02459305A40093E527
:10168000050293F5F50F2536854663EC86029247F1
:101690000147890793F7F70F9376F70F63E8F60092
:1016A0000245D53C014531016FF03FA0B386E4000F
:1016B0008C2202453EC43AC2DD3C1247A2470507D0
:1016C000E1BF8C200245E534E1BF0545E9BFEFF2FB
:1016D0003F9DB7040020138484030346D40481454E
:1016E000138501854D343705002069468145130572
:1016F000450423130404232404042326040423ACF4
:1017000004022322040023240400B53C6FF0FF9957
:10171000EFF21F9971112E84AA8432C04D3F94209C
:10172000024674A09C307CB0BC201CA4BC301CB40D
:10173000D82038A4CC302CB489CD01473385E400BF
:10174000034365003305E400050723066500E3470E
:10175000B7FE05470945639FE60045471545638B7E
:10176000E700636CF7006385D70241470D4563834B
:10177000E700014511016FF05F93130700020D456B
:10178000E38AE7FE138517F0133515000A05DDB768
:101790001CA230347A209307A0FA2303F4049307A1
:1017A0008600A303F4042314E4043C241A24A306AF
:1017B000C4042306F4042315E40419E21D455DBFA7
:1017C0009305C40013050405EFF09F99C5BF7C2164
:1017D0009CA17C319CB11C25BCA11C35BCB13C2515
:1017E000DCA13C35DCB185E33C3599071CA2828045
:1017F0003307F50054273387F500850774A3383580
:10180000E3C8E7FED5B78147DDBF2A866973416526
:1018100081467D15050393970601C18363E3B700F5
:101820008280B307D6009C233D8DA1471377150016
:10183000058111C733476500131507014181FD1765
:1018400093F7F70FE5F78506F9B7EFF27F8571118A
:101850002E842AC0B284A53D024591461821230357
:10186000E4041C31A303F4046391D70418A01CB052
:10187000382138A0383138B0583154212207558FDB
:101880005AA00C300505B5C9FD15C205C181B53F8B
:101890005E2005476397A7003420C1472947639816
:1018A000F6063A8511016FF05F8038212304E404C5
:1018B0003831A304E40458212305E4045831A30576
:1018C000E40478212306E4047431A306D40491EAE5
:1018D000B306F500983294222207558F2317E404AB
:1018E0004DB701473306E5000C263306E400050733
:1018F0002308B604E348D7FEE1BF9385F7FFC2058E
:10190000C18121378357E4040547E39CA7F8834648
:10191000840485470947E396F6F88347B404130720
:101920000002638AE7026361F70245461547E38ACE
:10193000C7F60147E367F6F60D47E384D7F6C146DD
:10194000E381D7F60147B1BF938717F093B717002C
:1019500013972700B9B794A0835784040346D4048F
:10196000930504057EA08357A4041305C4001EA498
:101970008357C4043EA4EFF0AFFE19471DB7EFF242
:101980002FF2834765042E849CA1834775049CB184
:1019900083478504BCA183479504BCB18347A50454
:1019A000DCA18347B504DCB18347C504FCA18347B0
:1019B000D504FCB195EF8344D50413051400938539
:1019C0007400A10493F4F40F8935A29488A02181B6
:1019D00088B06FF08FED3307F500834607053307B6
:1019E000F400850714A70347D504E3C6E7FEE1B773
:1019F0008147D5BF01A0B707EFBE37E700E0938767
:101A000007083CC701A0EFF2AFE91301C1FD85450E
:101A10001305100302C402C602C802CA02CC02CED9
:101A200002D002C002C2EF1000240D448544C14719
:101A30002C0037150140648422C63EC8EF102005F3
:101A4000C1473EC8B71701402C0013850740648486
:101A500022C6EF10C003930780023EC8B7170140AB
:101A60001385074041472C00788422C6EF102002DE
:101A700091450D45EF10E00A4147A14648083ACA92
:101A800036CE26D002CCEF005067930740110A856E
:101A90007C80448126C2EF10400BB717014013062B
:101AA000800413850740A1462C0032C8748422C6E6
:101AB000EF00F07D8D450D45EF10A0063147A146A2
:101AC00048083ACE36CA26D002CCEF0010639307FE
:101AD00040110A857C8026C223010100EF10E00638
:101AE0001306800489462C003715014032C87484DF
:101AF00022C6EF00D07985450945EF10800289465E
:101B00003147480836CA3ACE26D002CCEF00F05E04
:101B1000930740110A857C8026C223010100EF1043
:101B2000C002A14641472C0037150140748422C6EB
:101B30003AC8EF00D075914441472C003715014059
:101B4000648422C63AC8EF009074414778842C0020
:101B500041473715014022C63AC8EF005073B71706
:101B6000014041472C0013850740648422C63AC8CF
:101B7000EF00F071130141026FF02FD3EFF24FD25B
:101B800031118545054502C402C62318010002C073
:101B900002C2EF10200FBD473EC4BD679387F7A573
:101BA0002C00370500403EC6EF10A01585453705CF
:101BB0000040EF10801C13070004B7E700E023A2E9
:101BC000E7280546854537050040EF10E0199307E3
:101BD00060127C8089475C810A8585473EC2EF00A0
:101BE000D07613052003EF10803C85453705004073
:101BF000EF10001651016FF04FCBEFF26FCA116575
:101C00001301C1FD85451305150202C402C602C8B1
:101C100002CA02CC02CE02D002C002C2EF10A0045F
:101C2000B7070140D843B706E0FFED16758FD8C35C
:101C3000D843B706200037140140558FD8C3930707
:101C400000047C848D44E1472C001305044026C623
:101C50003EC8EF00D063930700027C842C009147BC
:101C60001305044026C63EC8EF007062F167374492
:101C70000140938707203ECA4C08B7070C001305A4
:101C800004803ECE02CC23100102EF100012054664
:101C90009305505213050480EF10401F9307001264
:101CA0007C800A8585473EC223010100EF00F06970
:101CB000854513050480EF10201C130141026FF0CD
:101CC000CFBEEFF2EFBD130141FD1306C002814507
:101CD0000A85EFF04FCB85450545EF00F076B70458
:101CE000024013854404EF007033374401409307EA
:101CF00044803EC0938751A83EC2C1473EC493076B
:101D000000043EC6930700083ECA8A85856713858E
:101D100044043ED202C802CC02CE02D002D4EF006C
:101D2000103905469305000813050480EF1080194B
:101D30001301C1026FF06FB7EFF28FB60565511155
:101D400085451105EF0030729307000661447C80E1
:101D50008A858D473715014022C43EC2EF003053BB
:101D6000930700087C808A859147371501403EC45F
:101D7000EF00F0519387818937070401D8C3938519
:101D8000C189370700023735014023A40700D8C7AF
:101D900080CBEF001071854537350140EF00B073FF
:101DA00031016FF08FB0EFF2AFAFAA843705024078
:101DB0002E84130545048145EF00F0322694638498
:101DC0008402B74701401385078093050008EF1090
:101DD0008011B747014075D58C2013850780850495
:101DE000EF10600FE9BF6FF04FAC611122C23744B2
:101DF0000140930550521305048026C0EF10400F98
:101E000025C913050480EF10800D83C7518913760F
:101E1000F50F938401A43387F400850793F7F70F38
:101E200010A3A38AF1881307A00A938501A463165F
:101E3000E60403C7418931E3854713060004814561
:101E4000138501A42381F40423800404238A0188D8
:101E5000EFF06FB38547A38AF1889307A0FA9CA09F
:101E6000374501409305505213050580EF10000CD3
:101E70001244824421017300203003C32504054528
:101E800003C741896318A30011E7238AC18823810E
:101E90000504F9B70507E355F7FC85472380F504EA
:101EA000A38A0188238A018865BF4145EF00102B72
:101EB00001C54145EF00302C2145EF00302A19C5FE
:101EC000054721452382E194EF00F02A0945EF0000
:101ED000F02819C5054709452384E18CEF00B02996
:101EE00073002030711185453705004022C0EF0096
:101EF000906939CD138781AC14270547938781AC4E
:101F00006397E60083D6218999C223990188F82333
:101F10009147631AF70283C701890D47850793F735
:101F2000F70F2388F1886370F70285453715014064
:101F3000EF00503D13361500854537150140EF0081
:101F4000B03D23880188854537050040EF003065A6
:101F50000244110173002030EFF28F942A84EF00C5
:101F6000F02C13051003EF00D021374500081305AE
:101F700005FCEF00702EEF0050218547E30DF5FEC4
:101F80000C2037450008130505FCEF00D024EF00B6
:101F9000D01F8547E30DF5FE4C403745000813057B
:101FA00045FCEF005023EF00501E8547E30DF5FE82
:101FB000EF00B0296FF06F8FEFF28F8EB7170180AF
:101FC0009387A7BA138401A423A0F1A49307201038
:101FD0009386819A5EA089477CA0DC42A94513D6EE
:101FE000870170B013D6070110A4138511A413D66E
:101FF00087003CA410B4EFF05F8128B4218148A48D
:1020000093050004138501A4793B9307800873B0FE
:10201000073085479386819A1385819A9CA22D3F2C
:10202000B707EFBE37E700E0938707083CC701A07A
:10203000EFF20F871301C1FC0545EF00B030EF0050
:10204000A06BEF00F06FEFF01F9CEFF03FB3EFF0ED
:10205000DFBA8539D531938781ACDC33138481AC09
:10206000CDEBB71401400546854513850440EF00CC
:10207000B02A0146A14537150140EF00F02901467D
:10208000914537150140EF0030290546C145371508
:102090000140EF0070280546914513850440EF008C
:1020A000B027EF00007708C037470008834707FCD8
:1020B0009386819A93F7F70F9CA2130747FC184366
:1020C000D8C205476397E7001385819A23800600ED
:1020D00061351387C192232607021387018B2303DF
:1020E0000400232607029386C1927D57854798BE38
:1020F000230404009386018B5CA05CB0A30404005D
:10210000230704002309040098BE9307800873A0E6
:102110000730938701A403C707048547938401A46C
:102120006312F704138501A4138641A89385019BCC
:102130003AC223800404EFF04FF12AC013060004D2
:10214000138501A48145EFF00F8482479946638C83
:10215000D72C63E4F62C914612476385D72C15479C
:102160006386E72C83C7340405476390E70413862E
:1021700011A89385019B138551903EC0A38104044F
:10218000EFF00FD91D4782476313E5003CA83828BC
:102190008547631CF7008D67938787049386018BBF
:1021A0001385018BDCD2EFF08F959387C192982F26
:1021B00085476312F7021385C192EFF08F8E9387E4
:1021C000C1929C3F9386C1921387C192238BF606DE
:1021D000930700F01EAF9387018B982F85476312FA
:1021E000F7021385018BEFF0CF8B9387018B9C3F18
:1021F0009386018B1387018B238BF606930700F0E0
:102200001EAF782005439377F70F630267280947CD
:102210006380E73EE39F07EE1305803EEF003059F1
:102220008D656146938585FF6808EFE01FF26808B9
:10223000EF00905B93150501C1816808EFF0BFB610
:102240008D653146938505010808EFE01FF0080809
:10225000EF00905993150501C1810808EFF0BFB454
:102260009145138581ACEFF01FB485679387D7A0A4
:1022700068007C8623070100EF00105793150501C5
:10228000C1816800EFF03FB2A14737170140C14656
:1022900037160140B73501401385C192EFE03FF496
:1022A0003716014091473717014091461306064003
:1022B000B73501401385018BEFE07FF2130540062F
:1022C000EF00F04E9305B1001385C192A305010004
:1022D000EFE07FFB9C851307D00F0543FD1793F7B5
:1022E000F70F6379F7149387C19223AA67002945F2
:1022F000EF00F04B9305B1001385018BEFE0BFF8C1
:1023000009ED9C851307D00FFD1793F7F70F637640
:10231000F71485471387018B5CCB2945EF003049C3
:102320009387C192DC4B8544638B97049387C1925A
:1023300023A007028D679386C1929387C7078D6597
:10234000DCD2938785069CD6938585069387C192B8
:102350001385C19223AE0700EFF0AFA81385C19299
:10236000EFE0FFF91385C1929305B100EFE0BFF1F3
:102370009885B9476305F7009387C192C4CB294577
:10238000EF00F0429387018BDC4B8544638B97040D
:102390009387018B84D38D679386018B9387870501
:1023A000DCD28D67938747030D669CD61306960390
:1023B0009387018B81451385018BC4CFEFF02FAA42
:1023C0001385018BEFE0BFF31385018B9305B100FB
:1023D000EFE07FEB9885B9476305F7009387018BA2
:1023E000C4CB0146854537150140EF00E072B714B4
:1023F00001400146854513850440EF00E071938755
:10240000C192D84B85476307F7001387018B584B60
:102410006317F70691477CA0EDB92947E394E7D409
:10242000EFF09FB978A0230904002DBB930700109B
:102430003EA80DBB1385C1928146130600079D453A
:10244000BE84EFE01FE11387C1929387C1920543D9
:10245000232A070023A6670259BD1385018B8146F5
:10246000130600079D45BA84EFE0BFDE9387018B1A
:1024700023AA07001387018B85475CD779BD7CA011
:102480000546854513850440EF00006959B178344D
:102490006319F7021387019B930710507EA3B72798
:1024A0001100850713860198938501961385019B7A
:1024B0001CC7EFF0CFB11385C192EFE0BFFDA307BA
:1024C00004001C3413F7F70F91C78547E303F7C4E3
:1024D000894791B783C74404B9C31386019893858C
:1024E00001961385019BEFF08FAE38288547631264
:1024F000F7028D67938787059386018B1385018B80
:10250000DCD2EFE0DFDF0146854537150140EF0003
:10251000A0601385C192EFE0FFF72382040483C714
:102520001404A9C3938501A41385019BA38004040B
:10253000EFF0EFC49387019B83C57704138501A453
:102540008905EFF05F863C28014681CB854537152C
:102550000140EF00205B133615008545371501401B
:10256000EF00805B9387C19283C7870781CB3E24AE
:1025700085073EA49387C192238C07069387C19257
:1025800083C7970799CF1E281387C192A30C07060C
:102590008507C207C1831EA811476374F7008547EA
:1025A0007CA49387018B83C7770781CB1385018B2D
:1025B000EFE05FF78547A381F4043C38E38B07B471
:1025C0009387019B83C6C704A30904004947E3928C
:1025D000E6B483C7070505476398E7003CA80546AE
:1025E0008545371501404DB5230904000146CDBF8F
:1025F0008D6555469385C5016808EFE01FB56808ED
:10260000EF00901E93150501C1816808EFF0AFF946
:10261000054685453715014001238D47EDBBEFE2A7
:102620003FA8371402401C403707FFF8414593E7A5
:1026300017001CC05C40F98F5CC01C403707F7FED8
:102640007D17F98F1CC01C403707FCFF7D17F98FE1
:102650001CC05C4041777D17F98F5CC0B7079F00B5
:102660001CC4352B1C4C93E707021CCCB717014048
:102670009387074098431377F7F098C398431367FD
:10268000070898C3094798CBB7F7FF1F03C5477DD5
:102690009307F00F6304F5007D891123B7270240EB
:1026A0009843C176FD16719B98C398431367170032
:1026B00098C3B7170240D843D8C3D843758FD8C33F
:1026C000D843B7060001D8C39843558F98C3B706BF
:1026D00000029843758F75DFD843B7160240719B8F
:1026E000D8C3D84313672700D8C32147DC42B18B36
:1026F000E39EE7FE6FE07F9B371702405C43A146F5
:10270000B18B6394D7045C433775DC02130505C0B5
:10271000B7160240D842B7070020938707001183FD
:102720003D8BBA979C23D84293F5F70F1377070890
:10273000B357F50005E3EFE2BF96EFE0BF99370727
:1027400000202328A7006FE05F9637356E01130540
:1027500005607DBF370700202328F700828001A095
:1027600097E1FF1F9381810D138181FC17F5FFFF16
:102770001305459397E5FF1F9385C58817E6FF1F4F
:102780001306468863FAC5008322050023A055007E
:1027900011059105E3EAC5FE171500001305458FE5
:1027A00097E5FF1F9385058617E6FF1F1306068929
:1027B00063FAC5008322050023A055001105910589
:1027C000E3EAC5FE17E5FF1F13054587938541AE74
:1027D0006377B500232005001105E36DB5FE89621E
:1027E00093820288739002308D427390428097F2F8
:1027F000FFFF9382228193E2320073905230EFF018
:102800001FE2970200009382E282739012347300F9
:102810002030B7F7FF1F03A5477C82801C4141672A
:102820007917F98F1CC123200500232205002324DA
:102830000500B707024023260500138787006317AA
:10284000E500D8431367F700D8C382801387C70118
:102850006316E500D8431367070FFDB71387070317
:102860006318E500D8438566938606F0558FE9BF67
:10287000138747046315E500D843BD66C5BF1387BA
:1028800087056316E500D843B7060F00C5B7138761
:10289000C7066316E500D843B706F000C1BF13872B
:1028A0000708E314E5FAD843B706000FC1B718418B
:1028B000E177BD0794517D8F9C45D58F9449D58F85
:1028C000D449D58F944DD58FD44DD58FD451D58F34
:1028D0009455D58FD98F1CC1DC455CC19C411CC56A
:1028E000DC415CC582801C4189C593E717001CC18F
:1028F000828041677917F98FDDBF58410C415045FF
:10290000B7070140938707403E9793C6F5FF39C24A
:102910009043758E90C3D043F18ED4C31443CD8EB3
:1029200014C3184190479346F7FF758E90C7D04760
:10293000F18ED4C7144541466399C6009447D98E99
:1029400094C7D447558FD8C78280B6979443558F84
:1029500098C382801C43F58F1CC38280B707014057
:10296000938707409443DC4B2A877D8D01C5F98E00
:102970003335D0008280B707014093870740C8CB2A
:102980008280B7270240C8C78280B7270240C84765
:10299000058911E5C8474189133515000D05828069
:1029A000B7270240C847058911E5C8474189133553
:1029B00015000D058280EFE2AFEE2A84D5378547FA
:1029C0006318F50019E0154529A0D93F7D14C5BF4E
:1029D0007DD86FE08FEDEFE2AFEC7111AA8409654D
:1029E0002E8402C0C93F9146631FD502B72702401B
:1029F000984B09651367170098CB1317040141839F
:102A00009AA0553F9146B7270240631BD500890421
:102A100026C002474180096502A3713FB7270240E3
:102A2000984B799B98CB11016FE02FE8B70667456B
:102A3000B7270240938636123797EFCDD4C31307DA
:102A4000B79AD8C3D4D3D8D38280372702401C4B3F
:102A5000A166D58F1CCB8280B70700F8AA971167B3
:102A600063F6E702B7270240984BB7060200558F7E
:102A700098CBC8CB984B1367070498CBD847058BE6
:102A800075FF984B8176FD16758F98CB82809445A3
:102A900093F7060113F3F60081C7DC413363F300BB
:102AA00083D2050093F7F20FA9CF0C41611122C226
:102AB00026C08147930380023D4493048004054768
:102AC0003317F70033F6E2006310C702639776020C
:102AD00058C9139627003317C4001347F7FF6D8FAB
:102AE0003316C300B365E60085072147E399E7FC89
:102AF00012440CC1824421018280E39C96FC18C9D7
:102B0000C9BF82805C4533F5F5003335A000828073
:102B10000CC982804CC9828019C20CC982804CC900
:102B2000828037070140144786058D47B397B70069
:102B300093C7F7FFF58F1CC71C473315B5005D8D94
:102B400008C7828023AEA1AC828003A7C1AD8547B0
:102B500014216310F7021C31639CE7023C219A07A1
:102B600093E707F837E700E093F7F70F369723006E
:102B7000F740054793D756003317D700544189CE05
:102B8000938707048A07B7E600E0B69798C3828068
:102B9000EDF33C219A07F9B793870706E5B7371796
:102BA00002401C430E0593F777F05D8D08C38280C9
:102BB000EFE20FCF371702405C43A1462A84B18B66
:102BC000639FD7065C43B777DC02938707C01CC0BE
:102BD00037160240544237070020130787029182BC
:102BE000BD8A3697082358429375F50F1377070867
:102BF00033D5A70001E73E85EFE0CFCD48C008C43C
:102C000048C4B7170240DC438D46AD83FD8B13D714
:102C100037008A07F18BD98F13F6370113F7370086
:102C200063F4C600138747FFB70700209387470167
:102C3000BA978C23EFE00FCA08C86FE00FC7B73709
:102C40006E019387076061B799C5371702405C4BE7
:102C5000C98F5CCB8280B7170240D84B1345F5FF74
:102C6000798DC8CB828099C5371702401C4FC98F18
:102C70001CCF8280B7170240984F1345F5FF798D1E
:102C800088CF828099C5371702405C4FC98F5CCFCF
:102C90008280B7170240D84F1345F5FF798DC8CF12
:102CA00082801E218D669386060433F7D700B621F5
:102CB0009E21D58FD621D58FF621D58F9625D58FFC
:102CC000B625D58FD625D58FF625D58FD98F1EA1C0
:102CD0009E291EA982801E2189C593E707041EA193
:102CE0008280C207C18393F7F7FBC207C183C5BFC8
:102CF0004EA582804A2582800A256D8D3335A0003D
:102D000082801E2137370140130707C0C207C183E5
:102D10006306E500370700406316E500BA2193F724
:102D2000F7F8D98FFA2193F7F7CFC207C183D98F6C
:102D30001EA1DE215EB59E211EB5B73701409387E7
:102D400007C06314F5009C251EB985475EA98280E3
:102D50001E2189C593E717001EA18280C207C18387
:102D6000F99BC207C183CDBF5E2501C6CD8F5EA58D
:102D7000828093C5F5FFED8FDDBF93C5F5FFC205DA
:102D8000C1810EA982801E294A25ED8F420541810D
:102D900089C76D8D3335A00082800145828093C53F
:102DA000F5FFC205C1810EA98280EFE26FAF16293F
:102DB000F577FD17FD8EFE21DA252111D58F1EA98D
:102DC0005625FD779387379FFD8EDE212A84AE84BA
:102DD000D58F9625D58FB625D58F5EA55E29C207DE
:102DE000C18393F7F7CFD98F5EA94800EFF05FDC7E
:102DF000B7470140938707806313F406C2471395D2
:102E000017005A243E950E053E9593170701C1877A
:102E10008C4063D807048605EFE0CFAB93054006EE
:102E20002AC0EFE02FAB824793144500930540067C
:102E30003E85EFE0EFAC5E24C207C18763D5070291
:102E40000E059305400613052503EFE0AFA81D8985
:102E5000C98CC204C18006A461016FE00FA5B2470E
:102E600079BF8A0555BF1205930540061305250352
:102E7000EFE04FA63D89E9BF5E2589C50967D98F77
:102E80005EA5828079777D17F98FDDBF13F7F50F87
:102E900085471583B395B7006319F7009307C500FD
:102EA000984301CE4D8F98C3828089469307450190
:102EB000E318D7FE93070501E5B793C5F5FFF98D34
:102EC0008CC382805E2901C6CD8F5EA9828093C5A6
:102ED000F5FFED8FDDBF93F5F51F4EA182804A21EE
:102EE0001375F51F82800A216D8D3335A000828015
:102EF00013F7F50F85461583AA873395B60063103F
:102F0000D702DA279E23798DC207C18301C9A18127
:102F100005473317B700F98F3335F00082808946B3
:102F20006314D7009A2BF9BFDA2BE9BFA18185473B
:102F3000B397B70093C7F7FFC207C1831EA1828072
:102F4000EFE20F96B707002003A50701B7157A0037
:102F500093850520EFE00F981375F50F2381A1AE3F
:102F600093175500898F8A073E950E052390A1AED1
:102F70006FE0AF93EFE2CF9237F400E05C40AA85B8
:102F8000F99B5CC003C521AEEFE0CF9208C82324B3
:102F900004001C4093E717001CC0B7F700E0D843BB
:102FA000058B75DF9843799B98C36FE00F90EFE234
:102FB0002F8F37F400E05C40AA85F99B5CC003D5F5
:102FC00001AEEFE02F8F08C8232404001C4093E7D4
:102FD00017001CC0B7F700E0D843058B75DF984396
:102FE000799B98C36FE06F8CAA879823850775FF3C
:102FF0003385A7407D1582802D2D2D2D2D20414D0F
:103000004F4E204C696E6B202D2D2D2D2D0D0A005D
:103010004465766963652049443A2000436F6E6ECB
:10302000656374696F6E204641494C4544210D0A21
:10303000000000000000000000C2A15512010000C5
:103040000000000000000000640300010000000018
:103050000000000001000000640300010000000007
:103060000000000001000000D4B2AA785000000067
:103070000000000000000000000000004603000106
:0C3080000F00D000000000000000000065
:10308C0001020304050607080102030405060708EC
:10309C00006CDC020204060804080C10081018204E
:1030AC001020304020406080010203040506070810
:0830BC000102030405060708E8
:0400000300001000E9
:00000001FF
