:100000006F00301700000000700100007201000056
:1000100000000000000000000000000000000000E0
:1000200000000000000000000000000000000000D0
:1000300070090000000000007009000000000000CE
:1000400070090000700900007009000070090000CC
:1000500038070000700900007009000070090000F6
:1000600070090000700900007009000070090000AC
:10007000700900007009000070090000700900009C
:10008000B606000070090000700900007009000049
:1000900070090000700900007807000000000000EF
:1000A000511126C022C206C4828282441244A24058
:1000B000310182802A86014593F6150091C232955E
:1000C00085810606F5F9828000000000634E050276
:1000D00063C305042E86AA857D5515C285466378BF
:1000E000B6006356C00006068606E36CB6FE014500
:1000F00063E4C500918D558D85820582F5FA828075
:100100008682C93F2E8582823305A0406347B000B6
:10011000B305B040C1B7B305B0408682653F330533
:10012000A0408282868263C70500634905005D376F
:100130002E858282B305B040E35B05FE3305A04007
:10014000513F3305B040828200002A8309CA83836D
:100150000500230073007D16050385056DFA828076
:100160002A8311C62300B3007D16050365FE828035
:1001700001A0B707EFBE37E700E0938707083CC749
:1001800001A0EFF2FFF11301C1FD85451305100336
:1001900002C402C602C802CA02CC02CE02D002C009
:1001A00002C2EF00F03B0D448544C1472C003715D7
:1001B0000140648422C63EC8EF00901DC1473EC87E
:1001C000B71701402C0013850740648422C6EF0056
:1001D000301CB717014041471385074078842C0035
:1001E000130780023AC822C6EF00901A91450D45C8
:1001F000EF00D0224147A14648083ACA36CE26D061
:1002000002CCEF007010930740110A857C80448176
:1002100026C2EF003023B717014013078002138571
:100220000740A1462C003AC8748422C6EF0050163D
:100230008D450D45EF00901EA146480836CA36CEC2
:1002400026D002CCEF00500C930740110A857C8029
:1002500026C223010100EF00F01E13078002894629
:100260002C00371501403AC8748422C6EF005012A2
:1002700085450D45EF00901A894636CA4808A146C3
:1002800036CE26D002CCEF003008930740110A8505
:100290007C8026C223010100EF00D01AA14641470D
:1002A0002C0037150140748422C63AC8EF00500E66
:1002B000914441472C0037150140648422C63AC856
:1002C000EF00100D414778842C004147371501405D
:1002D00022C63AC8EF00D00BB717014041472C00A7
:1002E00013850740648422C63AC8EF00700A1301E0
:1002F000410265BBEFF2DFDA31118545054502C4E5
:1003000002C62318010002C002C2EF005027BD47F9
:100310003EC4BD679387F7A52C00370500403EC655
:10032000EF00D02D854537050040EF00B03405467D
:10033000854537050040EF00D032930760127C807E
:100340000A8585475C813EC2EF00D00F85453705A1
:100350000040EF00902F510189BBEFF27FD411656F
:100360001301C1FD85451305050202C402C602C87A
:1003700002CA02CC02CE02D002C002C2EF00501E5E
:1003800037140140930700047C848D44E1472C001E
:100390001305044026C63EC8EF00807F9307000285
:1003A0007C842C0091471305044026C63EC8EF000C
:1003B000207EF16737440140938707203ECA4C08EE
:1003C000B7070C00130504803ECE02CC23100102B7
:1003D000EF00502D05469305505213050480EF00A1
:1003E000703A930700127C800A8585473EC223013C
:1003F0000100EF003005854513050480EF005037FC
:10040000130141025DB1EFF2BFC9130141FD1306B3
:10041000C00281450A85A93385450545EF00701264
:10042000B70402401385440409253744014093076B
:1004300044803EC09387A18B3EC2C1473EC48D47D6
:100440003EC6930700083ECA8A8585671385440423
:100450003ED202C802CC02CE02D002D4EF00006627
:1004600005469305000813050480EF00303513019D
:10047000C10225B9EFF2DFC20565511185451105AD
:10048000EF00100EB71401409307000661447C8012
:100490008A858D471385048022C43EC2EF00406FD9
:1004A000930700087C808A859147138504803EC4A9
:1004B000EF00006EB70700209387C70337070401DA
:1004C000B7050020D8C393850504370700023735E8
:1004D000014023A40700D8C780CBEF00300C85452E
:1004E00037350140EF00D00E3101C1B6EFF25FBBEE
:1004F000130141FD1306C00281450A8595318545EA
:100500000545EF001004370402401305C401312BE8
:10051000B7370140B1073EC09387A18B3EC28D47DC
:100520003EC6930700083ECA8A8589671305C40141
:100530003ED202C402C802CC02CE02D002D4BD2BED
:100540000546854537350140EF00300A1301C102E9
:10055000A9BEEFF2FFB4AA84370502402E8413052A
:1005600045048145412B269463848402B7470140AA
:100570001385078093050008EF007026B7470140F8
:1005800075D58C20138507808504EF005024E9BFC2
:1005900029BEEFF2FFB0130181FD05454D25B526BB
:1005A000EF009029F93EB9334D3B716513050520E5
:1005B000EF00702F893D7D3D153F9387018CD82337
:1005C0009384018C0DE3054685453715014091253F
:1005D0003715014005468545130505401D2D892128
:1005E000054788C0D8C0D83089466300D70C63E57A
:1005F000E6086316070A1305803EEF00302785657D
:1006000061469385C510080889360808EF00F02E6A
:1006100093150501C18108082D3F856531469385F5
:10062000451248001D364800EF00302D9315050196
:10063000C1814800393F91451385018C193F0567F9
:100640001307D7A00A85788023010100EF00F02A64
:1006500093150501C1810A85ED3D01468545371594
:100660000140452B371501400146854513050540DE
:100670004D230547D8B085BF8D46E316D7F685676D
:100680009385071355460808C9340808EF00F0267B
:1006900093150501C18108086D3D1147E1BFF020A8
:1006A0000547E312E6F4D4B03DBFF4300547E37CE0
:1006B000D7F20D47C1B7611126C0B7440140930579
:1006C00050521385048022C2EF00101229C11385F5
:1006D0000480EF0050109387418AB8271384418A21
:1006E000BA9788A313850480EF00F00E29479387FB
:1006F000018C6313E502054798AB814737450140FC
:1007000093055052130505803CA4EF00B01112442C
:10071000824421017300203013850480EF00B00B68
:1007200035479387018CE308E5FC238807003C24C8
:10073000850793F7F70FD9B74145052911C9938765
:10074000018CD43305476385E6004145D8B31D29A4
:100750002145212911C5054721452381E1861D2118
:100760000945212101C9B707002005470945238B09
:10077000E7040929730020306111854537050040E1
:1007800022C226C0F52D45C19387018CD8338547F9
:100790001384018C631AF706370700208347A703E9
:1007A000B704002083D68403850793F7F70F8506E7
:1007B000239CD402230DF702AD4663F4F602B7176B
:1007C00001408545138507403D29B7170140133681
:1007D00015008545138507402D2937070020230D77
:1007E000070203D784039307301F63FFE700371521
:1007F00001408D470146854513050540239C0402B1
:100800005CB0230304003121782085476319F70089
:10081000B707002003D7870319C3239C0702854528
:1008200037050040952D1244824421017300203089
:10083000EFF21F87371402401C403707FFF841458D
:1008400093E717001CC05C40F98F5CC01C40370761
:10085000F7FE7D17F98F1CC01C403707FCFF7D1782
:10086000F98F1CC05C4041777D17F98F5CC0B707DA
:100870009F001CC415211C4C93E707021CCCB71722
:1008800001409387074098431377F7F098C3984344
:100890001367070898C3094798CBB7F7FF1F03C52D
:1008A000477D9307F00F6304F5007D89F526B72790
:1008B00002409843C176FD16719B98C39843136715
:1008C000170098C3B7170240D843D8C3D843758FD1
:1008D000D8C3D843B7060001D8C39843558F98C3EF
:1008E000B70600029843758F75DFD843B7160240EC
:1008F000719BD8C3D84313672700D8C32147DC4274
:10090000B18BE39EE7FE6FF04FFA371702405C436E
:10091000A146B18B6394D7045C433775DC021305A1
:1009200005C0B7160240D842B707002093870700DA
:1009300011833D8BBA979C23D84293F5F70F137719
:100940000708B357F50005E3EFF28FF5EFF08FF8E6
:10095000370700202328A7006FF02FF537356E01E9
:10096000130505607DBF370700202328F70082802C
:1009700001A097010020938161EC138181FC130594
:10098000000A97F5FF1F9385E56717F6FF1F13060B
:10099000666763FAC5008322050023A05500110590
:1009A0009105E3EAC5FE170500001305257A97F5C2
:1009B000FF1F9385256517F6FF1F1306266863FA48
:1009C000C5008322050023A0550011059105E3EA27
:1009D000C5FE17F5FF1F130565669385C18D637707
:1009E000B500232005001105E36DB5FE89629382F1
:1009F0000288739002308D427390428097F2FFFF1D
:100A00009382426093E2320073905230EFF05FE2E3
:100A100097020000938222B8739012347300203042
:100A2000B7F7FF1F03A5477C82801C4141677917F8
:100A3000F98F1CC123200500232205002324050073
:100A4000B707024023260500138787006317E500D8
:100A5000D8431367F700D8C382801387C701631692
:100A6000E500D8431367070FFDB713870703631823
:100A7000E500D8438566938606F0558FE9BF138756
:100A800047046315E500D843BD66C5BF13878705D6
:100A90006316E500D843B7060F00C5B71387C7062E
:100AA0006316E500D843B706F000C1BF13870708F7
:100AB000E314E5FAD843B706000FC1B71841E17750
:100AC000BD0794517D8F9C45D58F9449D58FD449CE
:100AD000D58F944DD58FD44DD58FD451D58F945576
:100AE000D58FD98F1CC1DC455CC19C411CC5DC4144
:100AF0005CC582801C4189C593E717001CC18280B8
:100B000041677917F98FDDBF58410C415045B70750
:100B10000140938707403E9793C6F5FF39C2904343
:100B2000758E90C3D043F18ED4C31443CD8E14C3BD
:100B3000184190479346F7FF758E90C7D047F18EC6
:100B4000D4C7144541466399C6009447D98E94C7CB
:100B5000D447558FD8C78280B6979443558F98C392
:100B600082801C43F58F1CC38280B70701409387A6
:100B700007409443DC4B2A877D8D01C5F98E3335C0
:100B8000D0008280B707014093870740C8CB82809E
:100B9000944593F7060113F3F60081C7DC413363F4
:100BA000F30083D2050093F7F20FA9CF0C41611136
:100BB00022C226C08147930380023D4493048004EF
:100BC00005473317F70033F6E2006310C702639757
:100BD000760258C9139627003317C4001347F7FF4E
:100BE0006D8F3316C300B365E60085072147E3998F
:100BF000E7FC12440CC1824421018280E39C96FCF4
:100C000018C9C9BF82805C4533F5F5003335A000B3
:100C1000828019C20CC982804CC98280370701408A
:100C2000144786058D47B397B70093C7F7FFF58F35
:100C30001CC71C473315B5005D8D08C7828023AAE9
:100C4000A18C828003A7418D854714216310F70290
:100C50001C31639CE7023C219A0793E707F837E7CA
:100C600000E093F7F70F36972300F740054793D737
:100C700056003317D700544189CE938707048A075B
:100C8000B7E600E0B69798C38280EDF33C219A075F
:100C9000F9B793870706E5B7371702401C430E05DF
:100CA00093F777F05D8D08C38280EFF26FBF37173F
:100CB00002405C43A1462A84B18B639FD7065C4304
:100CC000B777DC02938707C01CC037160240544236
:100CD00037070020130787029182BD8A36970823C1
:100CE00058429375F50F1377070833D5A70001E72E
:100CF0003E85EFF02FBE48C008C448C4B717024075
:100D0000DC438D46AD83FD8B13D737008A07F18B0B
:100D1000D98F13F6370113F7370063F4C600138732
:100D200047FFB707002093874701BA978C23EFF05E
:100D30006FBA08C86FF06FB7B7376E019387076057
:100D400061B799C5371702405C4BC98F5CCB828075
:100D5000B7170240D84B1345F5FF798DC8CB828079
:100D600099C5371702401C4FC98F1CCF8280B71717
:100D70000240984F1345F5FF798D88CF828099C541
:100D8000371702405C4FC98F5CCF8280B717024093
:100D9000D84F1345F5FF798DC8CF82801E218D660F
:100DA0009386060433F7D700B6219E21D58FD6212E
:100DB000D58FF621D58F9625D58FB625D58FD625FB
:100DC000D58FF625D58FD98F1EA19E291EA9828089
:100DD0001E2189C593E707041EA18280C207C18333
:100DE00093F7F7FBC207C183C5BF5E2101C6CD8F54
:100DF0005EA1828093C5F5FFED8FDDBF1E213737E1
:100E00000140130707C0C207C1836306E500370727
:100E100000406316E500BA2193F7F7F8D98FFA215D
:100E200093F7F7CFC207C183D98F1EA1DE215EB52C
:100E30009E211EB5B7370140938707C06314F500A4
:100E40009C251EB985475EA982801E2189C593E72E
:100E500017001EA18280C207C183F99BC207C1830C
:100E6000CDBF5E2501C6CD8F5EA5828093C5F5FFFF
:100E7000ED8FDDBF93C5F5FFC205C1810EA982804C
:100E80001E294A25ED8F4205418189C76D8D333575
:100E9000A00082800145828093C5F5FFC205C18113
:100EA0000EA98280EFF2CF9F1629F577FD17FD8EF0
:100EB000FE21DA252111D58F1EA95625FD779387AE
:100EC000379FFD8EDE212A84AE84D58F9625D58F5F
:100ED000B625D58F5EA55E29C207C18393F7F7CFEC
:100EE000D98F5EA94800D133B74701409387078067
:100EF0006313F406C247139517005A243E950E0556
:100F00003E9593170701C1878C4063D80704860577
:100F1000EFF04F9C930540062AC0EFF0AF9B82474D
:100F200093144500930540063E85EFF06F9D5E24C7
:100F3000C207C18763D507020E0593054006130556
:100F40002503EFF02F991D89C98CC204C18006A426
:100F500061016FF08F95B24779BF8A0555BF1205C1
:100F60009305400613052503EFF0CF963D89E9BFB1
:100F70005E2589C50967D98F5EA5828079777D173F
:100F8000F98FDDBF13F7F50F85471583B395B700CC
:100F90006319F7009307C500984301CE4D8F98C39E
:100FA0008280894693074501E318D7FE9307050120
:100FB000E5B793C5F5FFF98D8CC382805E2901C624
:100FC000CD8F5EA9828093C5F5FFED8FDDBF93F5D0
:100FD000F51F4EA182804A211375F51F82800A21D8
:100FE0006D8D3335A000828013F7F50F854615838C
:100FF000AA873395B6006310D702DA279E23798D2E
:10100000C207C18301C9A18105473317B700F98F12
:101010003335F000828089466314D7009A2BF9BFDC
:10102000DA2BE9BFA1818547B397B70093C7F7FFD4
:10103000C207C1831EA18280EFF28F86B70700200E
:1010400003A50701B7157A0093850520EFF08F8877
:101050001375F50F238DA18C93175500898F8A077F
:101060003E950E05239CA18C6FF02F84EFF24F83E9
:1010700037F400E05C40AA85F99B5CC003D5818D04
:10108000EFF04F8308C8232404001C4093E71700A7
:101090001CC0B7F700E0D843058B75DF9843799BF8
:1010A00098C36FF08F80EFE2BFFF2A8411651111A2
:1010B0008545130505026D31930700027C803715C5
:1010C00001408D473EC28A85E147130505403EC475
:1010D000C13422C637440140B70708006C0013052D
:1010E00004803ECA02C8231C01006D3B85451305E0
:1010F0000480BD3D71016FE05FFBAA8798238507DF
:1011000075FF3385A7407D15828000002D2D2D2D84
:101110002D20414D4F4E204C696E6B202D2D2D2DD5
:101120002D0D0A004465766963652049443A200024
:10113000436F6E6E656374696F6E204641494C451E
:0811400044210D0A000000002B
:10114800010203040506070801020304050607084F
:10115800006CDC020204060804080C1008101820B1
:101168001020304020406080010203040506070873
:0811780001020304050607084B
:00000001FF
