:101000006F106034000000009E170000A017000061
:1010100000000000000000000000000000000000D0
:1010200000000000000000000000000000000000C0
:1010300044230000000000004423000000000000E2
:101040004423000044230000442300004423000004
:10105000461C0000442300004423000044230000F9
:1010600044230000442300004423000044230000E4
:1010700044230000442300004423000044230000D4
:10108000981B000044230000442300004423000078
:1010900044230000442300009E1C000000000000C8
:1010A000511126C022C206C4828282441244A24048
:1010B000310182802A86014593F6150091C232954E
:1010C00085810606F5F9828000000000634E050266
:1010D00063C305042E86AA857D5515C285466378AF
:1010E000B6006356C00006068606E36CB6FE0145F0
:1010F00063E4C500918D558D85820582F5FA828065
:101100008682C93F2E8582823305A0406347B000A6
:10111000B305B040C1B7B305B0408682653F330523
:10112000A0408282868263C70500634905005D375F
:101130002E858282B305B040E35B05FE3305A040F7
:10114000513F3305B040828200002A8309CA83835D
:101150000500230073007D16050385056DFA828066
:101160002A8311C62300B3007D16050365FE828025
:101170000E2548416F1020580E2948456F10E05742
:101180000E2548416F106057EFF29FF12A84AE841C
:1011900008408945EF10A07465DD0840A685EF1072
:1011A000807308408545EF10807365DD0840EF10BF
:1011B000C0721375F50FD5BDEFF29FEE0CC150C193
:1011C00016A558C51EA92A84653722857537F1BD35
:1011D000EFF21FED71112E84B2842AC0A2944D3714
:1011E0006317940002456937014511017DBD0C204C
:1011F00002450504513FEDB7EFF29FEA611132C29B
:10120000B6842E842AC0AD3F02459375F401AD3FEC
:101210002A8402459305F00F853F124608A2024535
:10122000813F91C080A00145210141B5EFF25FE708
:101230006111B28436C22E842AC099370245937553
:10124000F40193E5050289372A840245A6852D3FDE
:101250000245393F924691C280A201452101B1B5B4
:10126000EFF21FE42A84AE84213F9305F00F22851C
:10127000213F88A02285ED3D014505BDEFF25FE2EB
:101280007111930531002A84E13F908130AC93774E
:10129000060499CB8547230BF406935716409D8B84
:1012A0001D476383E7001CBC9377060281C785470F
:1012B000A30BF4069377060181C78547230CF40638
:1012C0008146137606079D4522858D371101F1BBB6
:1012D000EFF21FDD61112A8445352285513D130649
:1012E00050048145230C0400230D0400130544031E
:1012F000853D81461306310081452285F53D90816B
:10130000814681451376D60F22850D378544130516
:10131000400644D4EF1050045C5081468D45903314
:1013200022850D8A21375C50814695459023228580
:10133000158AED3D5C50A3010100984763149700A6
:101340002147D881D84785469C81630AD70E8946B4
:10135000630BD70E93E767006305070E9081814604
:1013600099452285E1355C5081469145D023FE2385
:1013700022853D8A92075D8E1376F60FD0817D35EA
:101380005C5081460546BC2391E301468545228594
:10139000713D8146054689452285493D5C50BC33F7
:1013A000D5C79D679387073509464C0022857C8207
:1013B000053581461146F54522858D3D8146054618
:1013C000F1452285A535855705464C0022855C826E
:1013D0000135895705464C0022855C82D53B814604
:1013E000130600079D45228591351850B147DC81D1
:1013F00085476314F700B547DC81908181468145BC
:1014000022852D3581461306310081452285ED3335
:10141000908181468145136626002285D081393529
:101420000945EF100077185085476319F7020E2819
:101430004844EF10402C91475CD42101BDB193E7A3
:101440004700DC8121BF93E72700E5BF81460146C5
:10145000F5452285E13B814601469DB72285293B22
:101460008947D9BFEFF2DFC31451054751112A84D0
:1014700091476395E60429339305000622852933B5
:101480009305F00F22850933AA842285D5319387ED
:10149000F4FF93F7F70F7D476376F702855705460C
:1014A0009305B1002285DC852533814613060004AF
:1014B0009D452285A53B8D47230B04065CC8054549
:1014C0003101E5B622856D399305100622856D3907
:1014D000A287338784009305F00F22853AC23EC06D
:1014E000653182471247A38AA7048507E395E7FE83
:1014F0002285BD390145230B0406A30A9406C9B70A
:10150000EFF21FBA5C5161112A849C33AE848907C3
:1015100093F7F70F3EC0AD31930500032285AD313F
:101520008147824613F7F70F6365D7022285893119
:101530002285B9319305A0022285B93181478246BF
:1015400013F7F70F6360D70222851D310145210192
:10155000A9BE3387F4000C2322853EC23531924761
:101560008507C1B73387F4000C2322853EC2293991
:1015700092478507E9B7EFF2BFB251112AC09547EC
:1015800063E0B7065C512E84B2849C333EC2CD3EEC
:1015900002459305A40093E5050293F5F50FED369A
:1015A000854663EB860292470147890793F7F70F59
:1015B0009376F70F63E7F60002455D3E0145310182
:1015C000EDB4B386E4008C2202453EC43AC26D3EBF
:1015D0001247A2470507E9BF8C2002457536E9BFCF
:1015E0000545F1BF1C2291461CA1183218B1631E9B
:1015F000D7009CA198B13C22BCA13C32BCB15C326A
:101600005822A207D98FDEA182803C223CA13C3225
:101610003CB15C225CA15C325CB17C227CA1743266
:1016200074B189CE8147B305F60003C38500B305C5
:10163000F500850723856500E3C7D7FE3A961C327F
:101640001822A207D98F1EA58280EFF27FA5B704CA
:1016500000201384040470308145138521810936EC
:1016600023A0040423220400231404003DBC2A8682
:101670006973416581467D15050393970601C18312
:1016800063E3B7008280B307D6009C233D8DA1475A
:1016900013771500058111C733476500131507013E
:1016A0004181FD1793F7F70FE5F78506F9B7EFF2DC
:1016B0003F9F61112AC0AE8432C2413F0246B70744
:1016C0000020370400209385870313050404193F85
:1016D000B7070020938787038C3382471385170051
:1016E00095C5FD15C205C1815937B70700209387FD
:1016F0008703D22385466317A600B023C147A946B6
:101700006315F602368521016FF03F9A93070404B2
:101710008C33FD15C205C181993FB707002093871F
:1017200007049E278546E39FA7FC130604042C228A
:10173000B70700200545938707048946E394A5FC75
:101740005032930600026300D60263EAC6008D465B
:10175000C147E309B6FAE307F6FA814665B793078E
:10176000F00F9146CDBF1247130404040CA3B42319
:1017700094A0B43394B0D423B4A0D433B4B0F4233D
:10178000D4A0F433D4B09546F03305041106E346F3
:10179000D6FC6C243386D40085060CA2F5B701A0D4
:1017A000B707EFBE37E700E0938707083CC701A003
:1017B000EFF21F8F1301C1FD85451305100302C40D
:1017C00002C602C802CA02CC02CE02D002C002C2C5
:1017D000EF10C0070D448544C1472C003715014068
:1017E000648422C63EC8EF00F068C1473EC8B71700
:1017F00001402C0013850740648422C6EF009067E7
:10180000930780023EC8B717014013850740414740
:101810002C00788422C6EF00F06591450D45EF005D
:10182000B06E4147A14648083ACA36CE26D002CC0F
:10183000EF00104B930740110A857C80448126C23B
:10184000EF00106FB717014013068004138507409F
:10185000A1462C0032C8748422C6EF00B0618D45C9
:101860000D45EF00706A3147A14648083ACE36CAA6
:1018700026D002CCEF00D046930740110A857C8029
:1018800026C223010100EF00B06A130680048946D6
:101890002C003715014032C8748422C6EF00905DD9
:1018A00085450945EF00506689463147480836CAE4
:1018B0003ACE26D002CCEF00B042930740110A8501
:1018C0007C8026C223010100EF009066A1464147BB
:1018D0002C0037150140748422C63AC8EF00905995
:1018E000914441472C0037150140648422C63AC810
:1018F000EF005058414778842C004147371501408C
:1019000022C63AC8EF001057B717014041472C00D4
:1019100013850740648422C63AC8EF00B05513010E
:1019200041026FF08FF8EFF2AFF7311185450545B1
:1019300002C402C62318010002C002C2EF00F07206
:10194000BD473EC4BD679387F7A52C00370500400F
:101950003EC6EF007079854537050040EF10400026
:1019600013070004B7E700E023A2E72805468545F2
:1019700037050040EF00B07D930760127C808947F7
:101980005C810A8585473EC2EF00905A130520030B
:10199000EF102020854537050040EF00D079510138
:1019A0006FF0AFF0EFF2CFEF11651301C1FD854588
:1019B0001305150202C402C602C802CA02CC02CE36
:1019C00002D002C002C2EF007068B7070140D843DE
:1019D000B706E0FFED16758FD8C3D843B7062000D1
:1019E00037140140558FD8C3930700047C848D447D
:1019F000E1472C001305044026C63EC8EF0090477F
:101A0000930700027C842C0091471305044026C6EE
:101A10003EC8EF003046F167374401409387072006
:101A20003ECA4C08B7070C00130504803ECE02CC1A
:101A300023100102EF00D07505469305505213059F
:101A40000480EF10E002930700127C800A8585472E
:101A50003EC223010100EF00B04D8545130504800F
:101A6000EF00D07F130141026FF02FE4EFF24FE35C
:101A7000130141FD1306C00281450A85EFF04FEEC8
:101A800085450545EF00B05AB7040240138544046C
:101A9000EF00301737440140930744803EC09387DE
:101AA000919B3EC2C1473EC4930700043EC69307C4
:101AB00000083ECA8A858567138544043ED202C861
:101AC00002CC02CE02D002D4EF00D01C0546930512
:101AD000000813050480EF00307D1301C1026FF090
:101AE000CFDCEFF2EFDB0565511185451105EF0005
:101AF000F0559307000661447C808A858D47371531
:101B0000014022C43EC2EF00F036930700087C80FB
:101B10008A859147371501403EC4EF00B035B707BD
:101B200000209387470537070401D8C393850182B6
:101B3000370700023735014023A40700D8C780CB00
:101B4000EF009054854537350140EF0030573101A3
:101B50006FF0AFD5EFF2CFD4AA84370502402E84C0
:101B6000130545048145EF007016269463848402B2
:101B7000B74701401385078093050008EF00F07414
:101B8000B747014075D58C20138507808504EF0089
:101B9000D072E9BF6FF06FD1711122C0374401409C
:101BA0009305505213050480EF00D07221CD130528
:101BB0000480EF00107183C781819386419333863F
:101BC000F60085071375F50F93F7F70F08A2238C1E
:101BD000F1801303A00A138741936319650203C3BD
:101BE00071816315030285472380F604238106046F
:101BF000A38B0180374501409305505213050580A2
:101C0000EF00107102441101730020308342070479
:101C1000054383C671816398620091E6A38BA1801E
:101C200023000704C1BF8506E3D6F6FC85472301E0
:101C3000F704238C01807DBF1306000481451385C2
:101C400041936FF0EFD14145EF00B00F0DC1938785
:101C5000C19FF42305476389E60001468545371592
:101C60000140F8A3EF00B0294145EF00300F2145B6
:101C7000EF00300D19C5054721452384E18CEF00A5
:101C8000F00D0945EF00F00B09C9B7070020054723
:101C900009452382E708EF00700C730020306111C2
:101CA00085453705004022C226C0EF00304C63094D
:101CB000050C9387C19FF82385471384C19F631741
:101CC000F70683C7618183D64181850793F7F70FB4
:101CD0008506239AD180238BF180AD4663F4F6020A
:101CE000B7170140854513850740EF001020B7174F
:101CF000014013361500854513850740EF0030205D
:101D0000238B018003D741819307301F63F0E702E3
:101D1000371501408D470146854513050540239A37
:101D200001807CA023040400EF00701D1824854767
:101D30006317F70003D7418119C3239A01807820E4
:101D40009547631AF70283C721810D47850793F7EB
:101D5000F70F2389F1806370F7028545371501403D
:101D6000EF00B01813361500854537150140EF0018
:101D7000101923890180854537050040EF00904008
:101D800012448244210173002030EFF26FB12A84A3
:101D9000EF00300813051003EF00007D3745000801
:101DA000130505FCEF00B009EF00807C8547E30DCB
:101DB000F5FE0C2037450008130505FCEF00100068
:101DC000EF00007B8547E30DF5FE4C4037450008EA
:101DD000130545FCEF00807EEF0080798547E30D19
:101DE000F5FEEF00F0046FF04FACEFF26FABB717FA
:101DF00001809387A7BA1384419323AAF192930792
:101E000020109386C1925EA089477CA0DC42A94540
:101E100013D6870170B013D6070110A41385519310
:101E200013D687003CA410B4EFF07F8428B421813E
:101E300048A49305000413854193293B9307800828
:101E400073B0073085479386C1921385C1929CA2D7
:101E50002D3FB707EFBE37E700E0938707083CC781
:101E600001A0EFF2EFA31301C1FC0545EF00F00B59
:101E7000BD21EF00304BEFF0BF93EFF0DFAAEFF0A2
:101E80007FB2EFF0BFBEB1399387C19FDC331384BB
:101E9000C19F370700209304C706CDE3054685455B
:101EA00037150140EF00B005B71701401385074013
:101EB00005468545EF00B0040146A14537150140B0
:101EC000EF00F0030146914537150140EF00300364
:101ED0000546C14537150140EF007002B7170140B4
:101EE0001385074005469145EF007001312308C076
:101EF00037470008834707FC9386C19293F7F70F93
:101F00009CA2130747FC1843D8C205476397E70014
:101F10001385C192238006008D3D9387018B23A6F4
:101F20000702930710105EA02314040023A60402E6
:101F3000230304009307800873A00730938741931D
:101F400083C7270405476397E7023EC21385419381
:101F50001386819B93857197EFF06FF52AC0E9395D
:101F60000245114792476306E500A9476314F5004F
:101F7000AD3D7CA09387018B982F8547631AF700AE
:101F80001385018BEFF08FAF9387018B238C0700B4
:101F9000982C8547631BF700B70700201385C706F9
:101FA000EFF0CFAD930700F09EAC7C200947638033
:101FB000E7206368F718639E071C1305803EEF0057
:101FC000503D8D6561469385C5BD6808EFF0EF977C
:101FD0006808EF00B03F93150501C1816808EFF074
:101FE0007FB78D653146938545BF0808EFF0EF95C3
:101FF0000808EF00B03D93150501C1810808EFF016
:102000007FB591451385C19FEFF0DFB48567938756
:10201000D7A068007C8623070100EF00303B9315B2
:102020000501C1816800EFF0FFB2A14737170140F9
:10203000C14637160140B73501401385018BEFF0DB
:10204000AF973703002037160140B735014013051D
:10205000C306914737170140914613060640EFF03B
:10206000AF959305B1001385018BA3050100EFF037
:102070002F9F09E99885B947630FF70E85471387A6
:10208000018B5CCBB70700209305B1001385C70611
:10209000EFF00F9D19E59885B9476307F70E85475F
:1020A000DCC89387018B23A007028D679386018B81
:1020B000938707C5DCD28D679387C7C39CD6BA8741
:1020C0001385018B1387018B232E0700EFF04FA0A0
:1020D0001387018B0C571385018BEFF06FC20D67CF
:1020E0001307C7C2D8D00D67130787C198D4370725
:1020F000002085471305C7069CD0DCCCEFF04F9D30
:102100009054370700201305C70615068145EFF0E8
:102110008FC60146854537150140D5233715014047
:102120000146854513050540D92B9387018BD84B74
:1021300085476305F700D8486313F70095477CA0EF
:10214000F5BB0D47E39CE7DE8D655546938505C0DD
:102150006808EFE09FFF6808EF005027931505011E
:10216000C1816808EFF01F9F05468545371501407E
:1021700079239147E9B79387018B23AA0700138737
:10218000018B85475CD7FDBD854723AA0400DCD4BD
:1021900009BF14248547E393F6DA37150140054655
:1021A000854513050540A12B094778A041BB1C3488
:1021B00099C70547E38AE7F88D477CA071B79387F5
:1021C000018B83C7770781C73E2485073EA4938789
:1021D000018B83C7870789CF1E2811478507C20750
:1021E000C1831EA86376F70085477CA48D477CA039
:1021F00083C76407B1DBB70700201385C706EFF07C
:102200006FA699B7EFE2DFE9371402401C403707A9
:10221000FFF8414593E717001CC05C40F98F5CC094
:102220001C403707F7FE7D17F98F1CC01C4037078D
:10223000FCFF7D17F98F1CC05C4041777D17F98F3B
:102240005CC0B7079F001CC4352B1C4C93E70702EA
:102250001CCCB71701409387074098431377F7F0DA
:1022600098C398431367070898C3094798CBB7F7F3
:10227000FF1F03C5477D9307F00F6304F5007D89B9
:102280001123B72702409843C176FD16719B98C36E
:1022900098431367170098C3B7170240D843D8C3B1
:1022A000D843758FD8C3D843B7060001D8C3984325
:1022B000558F98C3B70600029843758F75DFD843D2
:1022C000B7160240719BD8C3D84313672700D8C301
:1022D0002147DC42B18BE39EE7FE6FE01FDD37173D
:1022E00002405C43A146B18B6394D7045C433775CD
:1022F000DC02130505C0B7160240D842B70700201C
:102300009387070011833D8BBA979C23D84293F59E
:10231000F70F13770708B357F50005E3EFE25FD82F
:10232000EFE05FDB370700202328A7006FE0FFD72F
:1023300037356E01130505607DBF37070020232860
:10234000F700828001A097E1FF1F9381214F138145
:1023500081FC17F5FFFF1305E5D497E5FF1F938573
:1023600065CA17E6FF1F1306E6C963FAC500832294
:10237000050023A0550011059105E3EAC5FE1715D8
:1023800000001305258E97E5FF1F9385A5C717E667
:10239000FF1F1306A6CA63FAC5008322050023A007
:1023A000550011059105E3EAC5FE17E5FF1F13056A
:1023B000E5C8938581A16377B50023200500110549
:1023C000E36DB5FE896293820288739002308D427C
:1023D0007390428097F2FFFF9382C2C293E2320071
:1023E00073905230EFF01FE2970200009382A2A791
:1023F0007390123473002030B7F7FF1F03A5477C9A
:1024000082801C4141677917F98F1CC12320050088
:102410002322050023240500B707024023260500D8
:10242000138787006317E500D8431367F700D8C305
:1024300082801387C7016316E500D8431367070F2F
:10244000FDB7138707036318E500D84385669386B5
:1024500006F0558FE9BF138747046315E500D8439D
:10246000BD66C5BF138787056316E500D843B70669
:102470000F00C5B71387C7066316E500D843B70634
:10248000F000C1BF13870708E314E5FAD843B70685
:10249000000FC1B71841E177BD0794517D8F9C456E
:1024A000D58F9449D58FD449D58F944DD58FD44DA0
:1024B000D58FD451D58F9455D58FD98F1CC1DC457C
:1024C0005CC19C411CC5DC415CC582801C4189C546
:1024D00093E717001CC1828041677917F98FDDBF30
:1024E00058410C415045B7070140938707403E973C
:1024F00093C6F5FF39C29043758E90C3D043F18ED9
:10250000D4C31443CD8E14C3184190479346F7FFAC
:10251000758E90C7D047F18ED4C714454146639954
:10252000C6009447D98E94C7D447558FD8C78280A8
:10253000B6979443558F98C382801C43F58F1CC374
:102540008280B7070140938707409443DC4B2A877A
:102550007D8D01C5F98E3335D0008280B7070140EB
:1025600093870740C8CB8280B7270240C8C78280C4
:10257000B7270240C847058911E5C8474189133587
:1025800015000D058280B7270240C847058911E56F
:10259000C8474189133515000D058280EFE25FB011
:1025A0002A84D53785476318F50019E0154529A019
:1025B000D93F7D14C5BF7DD86FE03FAFEFE25FAE7E
:1025C0007111AA8409652E8402C0C93F9146631F18
:1025D000D502B7270240984B09651367170098CBBF
:1025E0001317040141839AA0553F9146B727024033
:1025F000631BD500890426C002474180096502A3F8
:10260000713FB7270240984B799B98CB11016FE03F
:10261000DFA9B7066745B72702409386361237977A
:10262000EFCDD4C31307B79AD8C3D4D3D8D38280FD
:10263000372702401C4BA166D58F1CCB8280B70781
:1026400000F8AA97116763F6E702B7270240984B94
:10265000B7060200558F98CBC8CB984B1367070479
:1026600098CBD847058B75FF984B8176FD16758FF3
:1026700098CB8280944593F7060113F3F60081C747
:10268000DC413363F30083D2050093F7F20FA9CF47
:102690000C41611122C226C08147930380023D4450
:1026A0009304800405473317F70033F6E200631004
:1026B000C7026397760258C9139627003317C400E0
:1026C0001347F7FF6D8F3316C300B365E600850728
:1026D0002147E399E7FC12440CC182442101828026
:1026E000E39C96FC18C9C9BF82805C4533F5F500B0
:1026F0003335A00082800CC982804CC9828019C207
:102700000CC982804CC98280370701401447860576
:102710008D47B397B70093C7F7FFF58F1CC71C47CA
:102720003315B5005D8D08C7828023A8A1A08280E3
:1027300003A701A1854714216310F7021C31639C94
:10274000E7023C219A0793E707F837E700E093F7A1
:10275000F70F36972300F740054793D756003317F6
:10276000D700544189CE938707048A07B7E600E073
:10277000B69798C38280EDF33C219A07F9B7938707
:102780000706E5B7371702401C430E0593F777F0AD
:102790005D8D08C38280EFE2BF90371702405C4333
:1027A000A1462A84B18B639FD7065C43B777DC02CE
:1027B000938707C01CC037160240544237070020D9
:1027C000130787029182BD8A369708235842937572
:1027D000F50F1377070833D5A70001E73E85EFE033
:1027E0007F8F48C008C448C4B7170240DC438D46F9
:1027F000AD83FD8B13D737008A07F18BD98F13F682
:10280000370113F7370063F4C600138747FFB70794
:10281000002093874701BA978C23EFE0BF8B08C84D
:102820006FE0BF88B7376E019387076061B799C5BE
:10283000371702405C4BC98F5CCB8280B7170240D0
:10284000D84B1345F5FF798DC8CB828099C53717D2
:1028500002401C4FC98F1CCF8280B7170240984F8F
:102860001345F5FF798D88CF828099C537170240CF
:102870005C4FC98F5CCF8280B7170240D84F134599
:10288000F5FF798DC8CF82801E218D669386060460
:1028900033F7D700B6219E21D58FD621D58FF621CB
:1028A000D58F9625D58FB625D58FD625D58FF625EC
:1028B000D58FD98F1EA19E291EA982801E2189C570
:1028C00093E707041EA18280C207C18393F7F7FB39
:1028D000C207C183C5BF4EA582804A2582800A25D2
:1028E0006D8D3335A00082801E21373701401307DC
:1028F00007C0C207C1836306E500370700406316BF
:10290000E500BA2193F7F7F8D98FFA2193F7F7CFBB
:10291000C207C183D98F1EA1DE215EB59E211EB5DF
:10292000B7370140938707C06314F5009C251EB993
:1029300085475EA982801E2189C593E717001EA1E5
:102940008280C207C183F99BC207C183CDBF5E25C8
:1029500001C6CD8F5EA5828093C5F5FFED8FDDBFEB
:1029600093C5F5FFC205C1810EA982801E294A25A3
:10297000ED8F4205418189C76D8D3335A00082807E
:102980000145828093C5F5FFC205C1810EA98280F1
:10299000EFE20FF11629F577FD17FD8EFE21DA25FE
:1029A0002111D58F1EA95625FD779387379FFD8E60
:1029B000DE212A84AE84D58F9625D58FB625D58F76
:1029C0005EA55E29C207C18393F7F7CFD98F5EA9B1
:1029D0004800D133B7470140938707806313F4065B
:1029E000C247139517005A243E950E053E9593173E
:1029F0000701C1878C4063D807048605EFE08FED9F
:102A0000930540062AC0EFE0EFEC8247931445009F
:102A1000930540063E85EFE0AFEE5E24C207C18716
:102A200063D507020E059305400613052503EFE065
:102A30006FEA1D89C98CC204C18006A461016FE0E0
:102A4000CFE6B24779BF8A0555BF12059305400608
:102A500013052503EFE00FE83D89E9BF5E2589C531
:102A60000967D98F5EA5828079777D17F98FDDBFE1
:102A700013F7F50F85471583B395B7006319F70072
:102A80009307C500984301CE4D8F98C38280894635
:102A900093074501E318D7FE93070501E5B793C5F2
:102AA000F5FFF98D8CC382805E2901C6CD8F5EA9AA
:102AB000828093C5F5FFED8FDDBF93F5F51F4EA125
:102AC00082804A211375F51F82800A216D8D33356E
:102AD000A000828013F7F50F85461583AA873395EA
:102AE000B6006310D702DA279E23798DC207C1830F
:102AF00001C9A18105473317B700F98F3335F000BD
:102B0000828089466314D7009A2BF9BFDA2BE9BF7C
:102B1000A1818547B397B70093C7F7FFC207C18369
:102B20001EA18280EFE2CFD7B707002003A50701DF
:102B3000B7157A0093850520EFE0CFD91375F50F0F
:102B4000238BA1A093175500898F8A073E950E0508
:102B5000239AA1A06FE06FD5EFE28FD437F400E0A5
:102B60005C40AA85F99B5CC003C561A1EFE08FD4EE
:102B700008C8232404001C4093E717001CC0B7F7C3
:102B800000E0D843058B75DF9843799B98C36FE0CD
:102B9000CFD1EFE2EFD037F400E05C40AA85F99B9B
:102BA0005CC003D541A1EFE0EFD008C823240400A6
:102BB0001C4093E717001CC0B7F700E0D843058B13
:102BC00075DF9843799B98C36FE02FCEAA8798232F
:102BD000850775FF3385A7407D1582802D2D2D2D0E
:102BE0002D20414D4F4E204C696E6B202D2D2D2DEB
:102BF0002D0D0A004465766963652049443A20003A
:102C0000436F6E6E656374696F6E204641494C4533
:102C100044210D0A000000000000000000E7E7E783
:102C2000E7E7000000000000000000002A030101A7
:102C3000000000000000000001000000E7E7E7E7F7
:102C4000E70000000000000000000000000000009D
:102C50002803010103001000000000000000000034
:102C6000010203040506070801020304050607081C
:102C7000006CDC020204060804080C10081018207E
:102C80001020304020406080010203040506070840
:082C9000010203040506070818
:0400000300001000E9
:00000001FF
