:101000006F00106300000000A0130000A213000096
:1010100000000000000000000000000000000000D0
:1010200000000000000000000000000000000000C0
:101030002E1E0000000000002E1E00000000000018
:101040002E1E00002E1E00002E1E00002E1E000070
:101050003A1800002E1E00002E1E00002E1E00005A
:101060002E1E00002E1E00002E1E00002E1E000050
:101070002E1E00002E1E00002E1E00002E1E000040
:101080008C1700002E1E00002E1E00002E1E0000D9
:101090002E1E00002E1E0000A218000000000000FE
:1010A000511126C022C206C4828282441244A24048
:1010B000310182802A86014593F6150091C232954E
:1010C00085810606F5F9828000000000634E050266
:1010D00063C305042E86AA857D5515C285466378AF
:1010E000B6006356C00006068606E36CB6FE0145F0
:1010F00063E4C500918D558D85820582F5FA828065
:101100008682C93F2E8582823305A0406347B000A6
:10111000B305B040C1B7B305B0408682653F330523
:10112000A0408282868263C70500634905005D375F
:101130002E858282B305B040E35B05FE3305A040F7
:10114000513F3305B040828200002A8309CA83835D
:101150000500230073007D16050385056DFA828066
:101160002A8311C62300B3007D16050365FE828025
:101170000E2548416F10C0060E2548416F108006AD
:10118000EFF21FF22A84AE8408408945EF10C02395
:1011900065DD0840A685EF10A02208408545EF10C8
:1011A000A02265DD0840EF10E0211375F50FF5BDB5
:1011B000EFF21FEF50C116A558C51EA90CC12A8415
:1011C000453F0E284844EF10E001C5B5EFF25FED52
:1011D0002A84AE8455379305F00F2285553788A0B1
:1011E000228579370145D1B51C2291461CA11832C0
:1011F00018B1631ED7009CA198B13C22BCA13C321F
:10120000BCB15C325822A207D98FDEA182803C2279
:101210003CA13C323CB15C225CA15C325CB17C22E2
:101220007CA1743274B189CE8147B305F60003C343
:101230008500B305F500850723856500E3C7D7FE64
:101240003A961C321822A207D98F1EA58280EFF28F
:101250003FE5B704002013840404703081451385F2
:101260002181FD3D23A00404232204002314040053
:101270002DBD2A866973416581467D1505039397C7
:101280000601C18363E3B7008280B307D6009C23C5
:101290003D8DA14713771500058111C733476500C0
:1012A000131507014181FD1793F7F70FE5F7850641
:1012B000F9B7EFF2FFDE61112AC0AE8432C2413FBE
:1012C0000246B707002037040020938587031305E3
:1012D0000404193FB7070020938787038C338247A4
:1012E000138517008DC5FD15C205C1815937B70794
:1012F000002093878703D22385466317A600B02377
:10130000C147A9466314F6023685210179BB9307CC
:1013100004048C33FD15C205C181A13FB70700202D
:10132000938707049E278546E390A7FE13060404CF
:101330002C22B70700200545938707048946E395CB
:10134000A5FC5032930600026300D60263EAC60091
:101350008D46C147E30AB6FAE308F6FA81466DB74F
:101360009307F00F9146CDBF1247130404040CA35A
:10137000B42394A0B43394B0D423B4A0D433B4B081
:10138000F423D4A0F433D4B09546F0330504110609
:10139000E346D6FC6C243386D40085060CA2F5B750
:1013A00001A0B707EFBE37E700E0938707083CC707
:1013B00001A0EFF2FFCE1301C1FD85451305100317
:1013C00002C402C602C802CA02CC02CE02D002C0C7
:1013D00002C2EF0050760D448544C1472C003715FA
:1013E0000140648422C63EC8EF007057C1473EC822
:1013F000B71701402C0013850740648422C6EF0014
:101400001056B717014041471385074078842C00D8
:10141000130780023AC822C6EF00705491450D456B
:10142000EF00305D4147A14648083ACA36CE26D083
:1014300002CCEF009039930740110A857C804481EB
:1014400026C2EF00905DB717014013078002138595
:101450000740A1462C003AC8748422C6EF003050E1
:101460008D450D45EF00F058A146480836CA36CEE6
:1014700026D002CCEF007035930740110A857C809E
:1014800026C223010100EF0050591307800289464C
:101490002C00371501403AC8748422C6EF00304C46
:1014A00085450945EF00F054894636CA4808A146EB
:1014B00036CE26D002CCEF005031930740110A857A
:1014C0007C8026C223010100EF003055A146414730
:1014D0002C0037150140748422C63AC8EF0030480A
:1014E000914441472C0037150140648422C63AC814
:1014F000EF00F046414778842C0041473715014002
:1015000022C63AC8EF00B045B717014041472C004A
:1015100013850740648422C63AC8EF005044130183
:10152000410261B6EFF2DFB731118545054502C4CE
:1015300002C62318010002C002C2EF00B061BD471D
:101540003EC4BD679387F7A52C00370500403EC613
:10155000EF003068854537050040EF00106F130736
:101560000004B7E700E023A2E728054685453705D4
:101570000040EF00706C930760127C8089475C81AB
:101580000A8585473EC2EF00504913052003EF103E
:10159000400B854537050040EF009068510131B69A
:1015A000EFF21FB011651301C1FD8545130515024A
:1015B00002C402C602C802CA02CC02CE02D002C0D5
:1015C00002C2EF005057B7070140D843B706E0FF0B
:1015D000ED16758FD8C3D843B706200037140140E5
:1015E000558FD8C3930700047C848D44E1472C00B9
:1015F0001305044026C63EC8EF007036930700026C
:101600007C842C0091471305044026C63EC8EF0099
:101610001035F16737440140938707203ECA4C08D4
:10162000B7070C00130504803ECE02CC2310010244
:10163000EF00B06405469305505213050480EF0097
:10164000D071930700127C800A8585473EC2230132
:101650000100EF00903C854513050480EF00B06E5B
:101660001301410299B4EFF2BFA3130141FD130628
:10167000C00281450A85ED3485450545EF00D04916
:10168000B704024013854404EF005006374401407C
:10169000930744803EC0938711973EC2C1473EC422
:1016A000930700043EC6930700083ECA8A858567F3
:1016B000138544043ED202C802CC02CE02D002D42A
:1016C000EF00F00B05469305000813050480EF00BA
:1016D000506C1301C102D1BAEFF29F9C0565511104
:1016E00085451105EF0030459307000661447C8075
:1016F0008A858D473715014022C43EC2EF0030264F
:10170000930700087C808A859147371501403EC4C5
:10171000EF00F024B707002093874705370704013F
:10172000D8C393850182370700023735014023A4CF
:101730000700D8C780CBEF00D0438545373501403F
:10174000EF007046310195B2EFF29F95AA843705FC
:1017500002402E84130545048145EF00D0052694F0
:1017600063848402B747014013850780930500080E
:10177000EF005064B747014075D58C201385078072
:101780008504EF003062E9BF6FF03F92711122C013
:10179000374401409305505213050480EF00306236
:1017A00021CD13050480EF00706083C7818193868B
:1017B000C18E3386F60085071375F50F93F7F70F83
:1017C00008A2238CF1801303A00A1387C18E63192A
:1017D000650203C371816315030285472380F60404
:1017E00023810604A38B01803745014093055052A5
:1017F00013050580EF007060024411017300203072
:1018000083420704054383C671816398620091E6B1
:10181000A38BA18023000704C1BF8506E3D6F6FC95
:1018200085472301F704238C01807DBF1306000444
:1018300081451385C18E6FF0BF924145EF00007F57
:101840000DC19387419BF42305476389E600014658
:10185000854537150140F8A3EF0010194145EF0009
:10186000807E2145EF00807C19C983C7B19B054765
:101870006394E700A380F18A2145EF00C07C09450D
:10188000EF00C07A09CD83C7B19B05476396E70097
:1018900037070020A300F7080945EF00C07A73005E
:1018A0002030611185453705004022C226C0EF0077
:1018B000903A71C59387419BF82385471384419BD8
:1018C0006315F70683C7618183D64181850793F746
:1018D000F70F8506239AD180238BF180AD4663F400
:1018E000F602B7170140854513850740EF00900EBB
:1018F000B717014013361500854513850740EF00E3
:10190000B00E238B018003D741819307301F63FE04
:10191000E700371501408D47014685451305054011
:10192000239A01807EA0EF00300C78308547631742
:10193000F70003D7418119C3239A01807820954786
:10194000631AF70283C721810D47850793F7F70FC5
:101950002389F1806370F702854537150140EF0058
:10196000700713361500854537150140EF00D00785
:1019700023890180854537050040EF00502F124430
:101980008244210173002030EFF28FF12A84EF00AE
:10199000E07613051003EF00C06B37450008130510
:1019A00005FCEF006078EF00406B8547E30DF5FE26
:1019B0000C2037450008130505FCEF00C06EEF0052
:1019C000C0698547E30DF5FE4C4037450008130517
:1019D00045FCEF00406D51258547E30EF5FEEF0015
:1019E000C0736FF08FECEFF2AFEBB7170180938706
:1019F000A7BA1384C18E23A6F18E93072010938675
:101A0000418E5EA089477CA0DC42A94513D68701A0
:101A100070B013D6070110A41385D18E13D687009A
:101A20003CA410B4EFF0FF8428B4218148A49305AE
:101A300000041385C18E093B9307800873B00730FB
:101A400085479386418E1385418E9CA2353FB7070B
:101A5000EFBE37E700E0938707083CC701A0EFF22D
:101A60002FE479710545EF00E07AB92EEF00303AA6
:101A7000EFF03F94453C2D36FD36B9399387419BB5
:101A8000DC331384419BD9EB05468545371501406E
:101A9000EF008075B7140140054685451385044065
:101AA000EF0080740146A14537150140EF00C07377
:101AB0000146914537150140EF0000730546C145C9
:101AC00037150140EF0040720546914513850440EB
:101AD000EF008071392108C037470008834707FCB1
:101AE0009386418E93F7F70F9CA2130747FC184388
:101AF000D8C205476397E7001385418E238006000F
:101B000061352381018A23850184930710105CC00D
:101B1000230404009307800873A007309387C18EC5
:101B200083C7270405476396E7023EC01385C18E2D
:101B3000138601979385F192EFF0AFF7AA84FD31F8
:101B4000114782476386E400A9476394F400613D2E
:101B50007CA07C2089446386971863EEF412639519
:101B600007161305803EEF00D02D896561469385E9
:101B7000C5682808EFF06FDD2808EF0030309315B6
:101B80000501C1812808C936896531469385456AB2
:101B90006800EFF08FDB6800EF00502E9315050111
:101BA000C1816800553691451385419B713E85671B
:101BB0009387D7A028007C8423050100EF00102C18
:101BC00093150501C1812800413685429387C1885C
:101BD00037030020238B57009307C306238B57003E
:101BE0001385C188A14737170140C1463716014008
:101BF000B7350140EFF0CFDB370300203716014047
:101C00001305C30691473717014091461306064056
:101C1000B7350140EFF0CFD91385C1889305710026
:101C2000A3030100EFF08FDA9384C188370300200B
:101C300001E99883B9476305F70085422389540079
:101C4000930571001305C306EFF04FD819E9988387
:101C5000B9476308F7003707002085471307C70611
:101C60003CAB0146854537150140BD2B371501407A
:101C70000146854513050540852BB828854763092E
:101C8000F700370700201307C706382B6313F70048
:101C900095477CA061B50D47E392E7E88965554615
:101CA0009385056B2808EFF04FCA2808EF00101D38
:101CB00093150501C1812808413C05468545371526
:101CC00001401D239147F1B778308547E318F7E4C9
:101CD000371501400546854513050540312364A0AD
:101CE00035BD18248547E3FBE7E28D475DB7EFF28A
:101CF0002FBB371402401C403707FFF8414593E7DC
:101D000017001CC05C40F98F5CC01C403707F7FE11
:101D10007D17F98F1CC01C403707FCFF7D17F98F1A
:101D20001CC05C4041777D17F98F5CC0B7079F00EE
:101D30001CC4352B1C4C93E707021CCCB717014081
:101D40009387074098431377F7F098C39843136736
:101D5000070898C3094798CBB7F7FF1F03C5477D0E
:101D60009307F00F6304F5007D891123B727024024
:101D70009843C176FD16719B98C39843136717006B
:101D800098C3B7170240D843D8C3D843758FD8C378
:101D9000D843B7060001D8C39843558F98C3B706F8
:101DA00000029843758F75DFD843B7160240719BC8
:101DB000D8C3D84313672700D8C32147DC42B18B6F
:101DC000E39EE7FE6FF06FAE371702405C43A1461B
:101DD000B18B6394D7045C433775DC02130505C0EF
:101DE000B7160240D842B707002093870700118337
:101DF0003D8BBA979C23D84293F5F70F13770708CA
:101E0000B357F50005E3EFF2AFA9EFF0AFAC37073A
:101E100000202328A7006FF04FA937356E01130566
:101E200005607DBF370700202328F700828001A0CE
:101E300097F1FF1F938181A0138181FC17F5FFFFAC
:101E40001305452697E5FF1F9385C51B17E6FF1F62
:101E50001306461B63FAC5008322050023A0550024
:101E600011059105E3EAC5FE171500001305058667
:101E700097E5FF1F9385051917E6FF1F1306061C3C
:101E800063FAC5008322050023A0550011059105C2
:101E9000E3EAC5FE17E5FF1F1305451A9385C19CAC
:101EA0006377B500232005001105E36DB5FE896257
:101EB00093820288739002308D427390428097F231
:101EC000FFFF9382221493E2320073905230EFF0BE
:101ED0001FE2970200009382C2B87390123473001D
:101EE0002030B7F7FF1F03A5477C82801C41416764
:101EF0007917F98F1CC12320050023220500232414
:101F00000500B707024023260500138787006317E3
:101F1000E500D8431367F700D8C382801387C70151
:101F20006316E500D8431367070FFDB71387070350
:101F30006318E500D8438566938606F0558FE9BFA0
:101F4000138747046315E500D843BD66C5BF1387F3
:101F500087056316E500D843B7060F00C5B713879A
:101F6000C7066316E500D843B706F000C1BF138764
:101F70000708E314E5FAD843B706000FC1B71841C4
:101F8000E177BD0794517D8F9C45D58F9449D58FBE
:101F9000D449D58F944DD58FD44DD58FD451D58F6D
:101FA0009455D58FD98F1CC1DC455CC19C411CC5A3
:101FB000DC415CC582801C4189C593E717001CC1C8
:101FC000828041677917F98FDDBF58410C41504538
:101FD000B7070140938707403E9793C6F5FF39C284
:101FE0009043758E90C3D043F18ED4C31443CD8EED
:101FF00014C3184190479346F7FF758E90C7D0479A
:10200000F18ED4C7144541466399C6009447D98ED2
:1020100094C7D447558FD8C78280B6979443558FBD
:1020200098C382801C43F58F1CC38280B707014090
:10203000938707409443DC4B2A877D8D01C5F98E39
:102040003335D0008280B707014093870740C8CB63
:102050008280B7270240C8C78280B7270240C8479E
:10206000058911E5C8474189133515000D058280A2
:10207000B7270240C847058911E5C847418913358C
:1020800015000D058280EFF2AF812A84D537854790
:102090006318F50019E0154529A0D93F7D14C5BF87
:1020A0007DD86FF08F80EFE2BFFF7111AA840965C0
:1020B0002E8402C0C93F9146631FD502B727024054
:1020C000984B09651367170098CB131704014183D8
:1020D0009AA0553F9146B7270240631BD50089045B
:1020E00026C002474180096502A3713FB72702401D
:1020F000984B799B98CB11016FE03FFBB706674582
:10210000B7270240938636123797EFCDD4C3130713
:10211000B79AD8C3D4D3D8D38280372702401C4B78
:10212000A166D58F1CCB8280B70700F8AA971167EC
:1021300063F6E702B7270240984BB7060200558FB7
:1021400098CBC8CB984B1367070498CBD847058B1F
:1021500075FF984B8176FD16758F98CB82809445DC
:1021600093F7060113F3F60081C7DC413363F300F4
:1021700083D2050093F7F20FA9CF0C41611122C25F
:1021800026C08147930380023D44930480040547A1
:102190003317F70033F6E2006310C7026397760245
:1021A00058C9139627003317C4001347F7FF6D8FE4
:1021B0003316C300B365E60085072147E399E7FCC2
:1021C00012440CC1824421018280E39C96FC18C910
:1021D000C9BF82805C4533F5F5003335A0008280AD
:1021E0000CC982804CC9828019C20CC982804CC93A
:1021F000828037070140144786058D47B397B700A3
:1022000093C7F7FFF58F1CC71C473315B5005D8DCD
:1022100008C7828023A2A19C828003A7419C854796
:1022200014216310F7021C31639CE7023C219A07DA
:1022300093E707F837E700E093F7F70F36972300A7
:10224000F740054793D756003317D700544189CE3E
:10225000938707048A07B7E600E0B69798C38280A1
:10226000EDF33C219A07F9B793870706E5B73717CF
:1022700002401C430E0593F777F05D8D08C3828002
:10228000EFE21FE2371702405C43A1462A84B18B7C
:10229000639FD7065C43B777DC02938707C01CC0F7
:1022A00037160240544237070020130787029182F5
:1022B000BD8A3697082358429375F50F13770708A0
:1022C00033D5A70001E73E85EFE0DFE048C008C452
:1022D00048C4B7170240DC438D46AD83FD8B13D74E
:1022E00037008A07F18BD98F13F6370113F73700C0
:1022F00063F4C600138747FFB707002093874701A1
:10230000BA978C23EFE01FDD08C86FE01FDAB737FC
:102310006E019387076061B799C5371702405C4B20
:10232000C98F5CCB8280B7170240D84B1345F5FFAD
:10233000798DC8CB828099C5371702401C4FC98F51
:102340001CCF8280B7170240984F1345F5FF798D57
:1023500088CF828099C5371702405C4FC98F5CCF08
:102360008280B7170240D84F1345F5FF798DC8CF4B
:1023700082801E218D669386060433F7D700B6212E
:102380009E21D58FD621D58FF621D58F9625D58F35
:10239000B625D58FD625D58FF625D58FD98F1EA1F9
:1023A0009E291EA982801E2189C593E707041EA1CC
:1023B0008280C207C18393F7F7FBC207C183C5BF01
:1023C0004EA582804A2582800A256D8D3335A00076
:1023D00082801E2137370140130707C0C207C1831F
:1023E0006306E500370700406316E500BA2193F75E
:1023F000F7F8D98FFA2193F7F7CFC207C183D98FA6
:102400001EA1DE215EB59E211EB5B7370140938720
:1024100007C06314F5009C251EB985475EA982801C
:102420001E2189C593E717001EA18280C207C183C0
:10243000F99BC207C183CDBF5E2501C6CD8F5EA5C6
:10244000828093C5F5FFED8FDDBF93C5F5FFC20513
:10245000C1810EA982801E294A25ED8F4205418146
:1024600089C76D8D3335A00082800145828093C578
:10247000F5FFC205C1810EA98280EFE27FC2162955
:10248000F577FD17FD8EFE21DA252111D58F1EA9C6
:102490005625FD779387379FFD8EDE212A84AE84F3
:1024A000D58F9625D58FB625D58F5EA55E29C20717
:1024B000C18393F7F7CFD98F5EA94800D133B747CF
:1024C0000140938707806313F406C24713951700F2
:1024D0005A243E950E053E9593170701C1878C40FF
:1024E00063D807048605EFE0FFBE930540062AC0C7
:1024F000EFE05FBE824793144500930540063E859A
:10250000EFE01FC05E24C207C18763D507020E0536
:102510009305400613052503EFE0DFBB1D89C98C39
:10252000C204C18006A461016FE03FB8B24779BF21
:102530008A0555BF12059305400613052503EFE0F4
:102540007FB93D89E9BF5E2589C50967D98F5EA539
:10255000828079777D17F98FDDBF13F7F50F8547F7
:102560001583B395B7006319F7009307C500984327
:1025700001CE4D8F98C38280894693074501E318A9
:10258000D7FE93070501E5B793C5F5FFF98D8CC319
:1025900082805E2901C6CD8F5EA9828093C5F5FF3A
:1025A000ED8FDDBF93F5F51F4EA182804A21137593
:1025B000F51F82800A216D8D3335A000828013F7CC
:1025C000F50F85461583AA873395B6006310D702A9
:1025D000DA279E23798DC207C18301C9A1810547EE
:1025E0003317B700F98F3335F000828089466314C2
:1025F000D7009A2BF9BFDA2BE9BFA1818547B397A2
:10260000B70093C7F7FFC207C1831EA18280EFE224
:102610003FA9B707002003A50701B7157A009385E6
:102620000520EFE03FAB1375F50F2385A19C9317B1
:102630005500898F8A073E950E052394A19C6FE073
:10264000DFA6EFE2FFA537F400E05C40AA85F99B26
:102650005CC003D5819CEFE0FFA508C823240400DB
:102660001C4093E717001CC0B7F700E0D843058B68
:1026700075DF9843799B98C36FE03FA3AA8798239F
:10268000850775FF3385A7407D1582802D2D2D2D63
:102690002D20414D4F4E204C696E6B202D2D2D2D40
:1026A0002D0D0A004465766963652049443A20008F
:1026B000436F6E6E656374696F6E204641494C4589
:0826C00044210D0A0000000096
:1026C80001020304050607080102030405060708BA
:1026D800006CDC020204060804080C10081018201C
:1026E80010203040204060800102030405060708DE
:0826F8000102030405060708B6
:0400000300001000E9
:00000001FF
