:101000006F00704000000000BC120000BE12000023
:1010100000000000000000000000000000000000D0
:1010200000000000000000000000000000000000C0
:10103000041C000000000000041C00000000000070
:10104000041C0000041C0000041C0000041C000020
:1010500092190000041C0000041C0000041C000085
:10106000041C0000041C0000041C0000041C000000
:10107000041C0000041C0000041C0000041C0000F0
:10108000AA160000041C0000041C0000041C000040
:10109000041C0000041C0000EC190000000000000B
:1010A000511126C022C206C4828282441244A24048
:1010B000310182802A86014593F6150091C232954E
:1010C00085810606F5F9828000000000634E050266
:1010D00063C305042E86AA857D5515C285466378AF
:1010E000B6006356C00006068606E36CB6FE0145F0
:1010F00063E4C500918D558D85820582F5FA828065
:101100008682C93F2E8582823305A0406347B000A6
:10111000B305B040C1B7B305B0408682653F330523
:10112000A0408282868263C70500634905005D375F
:101130002E858282B305B040E35B05FE3305A040F7
:10114000513F3305B040828200002A8309CA83835D
:101150000500230073007D16050385056DFA828066
:101160002A8311C62300B3007D16050365FE828025
:101170000E2548416F0070530E2548416F003053D3
:10118000EFF21FF22A84AE8408408945EF007070A8
:1011900065DD0840A685EF00506F08408545EF00EB
:1011A000506F65DD0840EF00906E1375F50FF5BDCB
:1011B000EFF21FEF50C116A558C51EA90CC12A8415
:1011C000453F0E284844EF00904EC5B5EFF25FED65
:1011D0002A84AE8455379305F00F2285553788A0B1
:1011E000228579370145D1B59C211CA1943114B1D8
:1011F000BC213CA1BC313CB1DC215CA1DC315CB147
:10120000FC217CA1F83178B109CF81473386F50004
:10121000034386003306F500850723056600E3C710
:10122000E7FEB6959C319821A207D98F1EA5828032
:10123000EFF21FE73704002061119307840332C2E5
:10124000F0332AC0AE841385A1808145113F8245C9
:101250001307840313058403232C040223220700AD
:1012600023140700513793078403B0238545631F78
:10127000B6028E2785EDC8339305000292466317A8
:10128000B50290A2B4231304840394A0B43394B0A1
:10129000D423B4A0D433B4B0F423D4A0F433D4B062
:1012A0009546F033050411066354D6002101F5BBC1
:1012B0006C243386D40085060CA2E5B701A0B707DD
:1012C000EFBE37E700E0938707083CC701A0EFF2C5
:1012D0003FDD1301C1FD85451305100302C402C69D
:1012E00002C802CA02CC02CE02D002C002C2EF0083
:1012F00030510D448544C1472C00371501406484AA
:1013000022C63EC8EF005032C1473EC8B717014061
:101310002C0013850740648422C6EF00F030B71715
:10132000014041471385074078842C001307800251
:101330003AC822C6EF00502F91450D45EF001038F6
:101340004147A14648083ACA36CE26D002CCEF0023
:101350003025930740110A857C80448126C2EF0026
:101360007038B71701401307800213850740A14664
:101370002C003AC8748422C6EF00102B8D450D4511
:10138000EF00D033A146480836CA36CE26D002CC6C
:10139000EF001021930740110A857C8026C22301AB
:1013A0000100EF0030341307800289462C00371506
:1013B00001403AC8748422C6EF00102785450945CC
:1013C000EF00D02F894636CA4808A14636CE26D02F
:1013D00002CCEF00F01C930740110A857C8026C2E6
:1013E00023010100EF001030A14641472C003715C2
:1013F0000140748422C63AC8EF001023914441474B
:101400002C0037150140648422C63AC8EF00D02171
:10141000414778842C0041473715014022C63AC81D
:10142000EF009020B717014041472C00138507407B
:10143000648422C63AC8EF00301F13014102B5B1DF
:10144000EFF21FC631118545054502C402C62318B7
:10145000010002C002C2EF00903CBD473EC4BD6720
:101460009387F7A52C00370500403EC6EF001043D8
:10147000854537050040EF00F04913070004B7E742
:1014800000E023A2E7280546854537050040EF0028
:101490005047930760127C8089475C810A858547A5
:1014A0003EC2EF00302413052003EF00306685456F
:1014B00037050040EF0070435101C5BEEFF25FBE3B
:1014C00011651301C1FD85451305150202C402C64D
:1014D00002C802CA02CC02CE02D002C002C2EF0091
:1014E0003032B7070140D843B706E0FFED16758FDD
:1014F000D8C3D843B706200037140140558FD8C34E
:10150000930700047C848D44E1472C0013050440BC
:1015100026C63EC8EF005011930700027C842C00C1
:1015200091471305044026C63EC8EF00F00FF1674F
:1015300037440140938707203ECA4C08B7070C0088
:10154000130504803ECE02CC23100102EF00903F31
:1015500005469305505213050480EF00B04C9307E5
:1015600000127C800A8585473EC223010100EF00FE
:101570007017854513050480EF009049130141025F
:101580002DB6EFF2FFB1130141FD1306C0028145F4
:101590000A85F93685450545EF00B024B7040240B9
:1015A00013854404EF00E071374401409307448001
:1015B0003EC0938791963EC2C1473EC49307000444
:1015C0003EC6930700083ECA8A8585671385440492
:1015D0003ED202C802CC02CE02D002D4EF00807705
:1015E00005469305000813050480EF0030471301FA
:1015F000C10265BCEFF2DFAA0565511185451105F1
:10160000EF0010209307000661447C808A858D4797
:101610003715014022C43EC2EF00100193070008B5
:101620007C808A859147371501403EC4EF00C07F1A
:10163000B70700209387C70437070401B7050020C8
:10164000D8C393850505370700023735014023A429
:101650000700D8C780CBEF00701E854537350140A5
:10166000EF001021310191B4EFF29FA3AA84370556
:1016700002402E84130545048145EF002071269415
:1016800063848402B74701401385078093050008EF
:10169000EF00F03EB747014075D58C2013850780D9
:1016A0008504EF00D03CE9BF09B4711122C0374472
:1016B00001409305505213050480EF00F03C29C906
:1016C00013050480EF00303B83C701819386418E70
:1016D0003386F60083C2060485071375F50F93F76A
:1016E000F70F08A22388F18005469385418E639504
:1016F000C20203C6F1801DEEA387A18023800604E9
:10170000374501409305505213050580EF00903B8B
:1017100002441101730020309302A00A631C55009B
:1017200003C5F18001E92380C60423810604A38751
:101730000180F9B703C7F1800507E353F7FC85473C
:101740002381F5042388018065BF130600048145C9
:101750001385418E31B4EFF2BF9479710545EF00E6
:1017600000783529EF0050379D36D939813B113D3E
:1017700051359387C19ADC331384C19AADEF054686
:10178000854537150140EF00C072B714014013853D
:10179000044005468545EF00C0710146A145371557
:1017A0000140EF0000710146914537150140EF00FF
:1017B00040700546C14537150140EF00806F054672
:1017C000914513850440EF00C06EFD2108C03747E6
:1017D0000008834607FC9387C18D94A3130747FC39
:1017E000184323040400D8C3930710105CC0930768
:1017F000800873A007309387418E03C7270485476D
:10180000631AF70013868196938571921385418E32
:101810000534253F7C2089446387971663EFF410D5
:10182000639607141305803EEF00502E89656146CC
:10183000938585352808EFF05F912808EF00B030D8
:1018400093150501C18128080535896531469385C1
:1018500005376800EFF07F8F6800EF00D02E9315FA
:101860000501C1816800093591451385C19AED3B99
:1018700085679387D7A028007C8423050100EF00AB
:10188000902C93150501C1812800F93B13854188EF
:10189000A14737170140C14637160140B73501400F
:1018A000EFF01F9137160140B7040020914737171A
:1018B0000140914613060640B735014013854406A2
:1018C000EFF01F8F1385418893057100A30301007A
:1018D000EFF0DF8F938741883EC001E99883B947D5
:1018E0006305F700024785473CAB930571001385FC
:1018F0004406EFF0BF8D09E99883B9476306F70006
:10190000938744060547B8AB014685453715014026
:101910004D23371501400146854513050540512BE0
:101920008247B82B85476307F70093844406B8289D
:101930006313F70095477CA07DBD0D47E39DE7EA63
:10194000896555469385C5372808EFF01F8028081C
:10195000EF00701F93150501C1812808313305463A
:10196000854537150140B1239147F1B77830854758
:10197000E313F7E837150140054685451305054093
:101980000D2B64A08DBD18248547E3F6E7E68D474F
:101990005DB74145BD2119CD9387C19AF423054711
:1019A0006388E6000146854537150140F8A31123F9
:1019B0004145AD212145B12111C983C7319B05475F
:1019C0006394E700A38CF1882145892909451529ED
:1019D00001CD83C7319B05476396E7003707002099
:1019E000A30CF70609451D297300203061118545B8
:1019F0003705004022C226C0252761C19387C19ABE
:101A0000F82385471384C19A6312F70683C7E180E0
:101A100083D6C180850793F7F70F85062396D1807B
:101A20002387F180AD4663F2F602B7170140854582
:101A300013850740AD21B7170140133615008545C2
:101A400013850740BD212387018003D7C1809307F9
:101A5000301F63FDE700371501408D47014685457E
:101A600013050540239601807EA0A121783085478B
:101A70006317F70003D7C18019C32396018078202C
:101A800095476318F70283C7A1800D47850793F731
:101A9000F70F2385F180637EF700854537150140F8
:101AA000FD2E133615008545371501401921238574
:101AB00001808545370500404125124482442101BB
:101AC00073002030EFF2CFDD371402401C4037079F
:101AD000FFF8414593E717001CC05C40F98F5CC0DC
:101AE0001C403707F7FE7D17F98F1CC01C403707D5
:101AF000FCFF7D17F98F1CC05C4041777D17F98F83
:101B00005CC0B7079F001CC405291C4C93E7070263
:101B10001CCCB71701409387074098431377F7F021
:101B200098C398431367070898C3094798CBB7F73A
:101B3000FF1F03C5477D9307F00F6304F5007D8900
:101B4000E52EB72702409843C176FD16719B98C3D6
:101B500098431367170098C3B7170240D843D8C3F8
:101B6000D843758FD8C3D843B7060001D8C398436C
:101B7000558F98C3B70600029843758F75DFD84319
:101B8000B7160240719BD8C3D84313672700D8C348
:101B90002147DC42B18BE39EE7FE6FF00FD1371790
:101BA00002405C43A146B18B6394D7045C43377514
:101BB000DC02130505C0B7160240D842B707002063
:101BC0009387070011833D8BBA979C23D84293F5E6
:101BD000F70F13770708B357F50005E3EFF24FCC83
:101BE000EFF04FCF370700202328A7006FF0EFCB8F
:101BF00037356E01130505607DBF370700202328A8
:101C0000F700828001A097F1FF1F938121C3138108
:101C100081FC17F5FFFF1305E54897E5FF1F938546
:101C2000653E17E6FF1F1306E63D63FAC5008322F3
:101C3000050023A0550011059105E3EAC5FE17052F
:101C400000001305657597E5FF1F9385A53B17E613
:101C5000FF1F1306A63E63FAC5008322050023A0DA
:101C6000550011059105E3EAC5FE17E5FF1F1305B1
:101C7000E53C9385419C6377B50023200500110561
:101C8000E36DB5FE896293820288739002308D42C3
:101C90007390428097F2FFFF9382C23693E2320044
:101CA00073905230EFF01FE2970200009382E2AA95
:101CB0007390123473002030B7F7FF1F03A5477CE1
:101CC00082801C4141677917F98F1CC123200500D0
:101CD0002322050023240500B70702402326050020
:101CE000138787006317E500D8431367F700D8C34D
:101CF00082801387C7016316E500D8431367070F77
:101D0000FDB7138707036318E500D84385669386FC
:101D100006F0558FE9BF138747046315E500D843E4
:101D2000BD66C5BF138787056316E500D843B706B0
:101D30000F00C5B71387C7066316E500D843B7067B
:101D4000F000C1BF13870708E314E5FAD843B706CC
:101D5000000FC1B71841E177BD0794517D8F9C45B5
:101D6000D58F9449D58FD449D58F944DD58FD44DE7
:101D7000D58FD451D58F9455D58FD98F1CC1DC45C3
:101D80005CC19C411CC5DC415CC582801C4189C58D
:101D900093E717001CC1828041677917F98FDDBF77
:101DA00058410C415045B7070140938707403E9783
:101DB00093C6F5FF39C29043758E90C3D043F18E20
:101DC000D4C31443CD8E14C3184190479346F7FFF4
:101DD000758E90C7D047F18ED4C71445414663999C
:101DE000C6009447D98E94C7D447558FD8C78280F0
:101DF000B6979443558F98C382801C43F58F1CC3BC
:101E00008280B7070140938707409443DC4B2A87C1
:101E10007D8D01C5F98E3335D0008280B707014032
:101E200093870740C8CB8280944593F7060113F34C
:101E3000F60081C7DC413363F30083D2050093F7DA
:101E4000F20FA9CF0C41611122C226C08147930332
:101E500080023D449304800405473317F70033F6AE
:101E6000E2006310C7026397760258C913962700F1
:101E70003317C4001347F7FF6D8F3316C300B365E4
:101E8000E60085072147E399E7FC12440CC1824430
:101E900021018280E39C96FC18C9C9BF82805C4501
:101EA00033F5F5003335A00082800CC982804CC91F
:101EB000828019C20CC982804CC9828037070140D8
:101EC000144786058D47B397B70093C7F7FFF58F83
:101ED0001CC71C473315B5005D8D08C7828023AE33
:101EE000A19A828003A7C19B854714216310F70242
:101EF0001C31639CE7023C219A0793E707F837E718
:101F000000E093F7F70F36972300F740054793D784
:101F100056003317D700544189CE938707048A07A8
:101F2000B7E600E0B69798C38280EDF33C219A07AC
:101F3000F9B793870706E5B7371702401C430E052C
:101F400093F777F05D8D08C38280EFF26F953717B6
:101F500002405C43A1462A84B18B639FD7065C4351
:101F6000B777DC02938707C01CC037160240544283
:101F700037070020130787029182BD8A369708230E
:101F800058429375F50F1377070833D5A70001E77B
:101F90003E85EFF02F9448C008C448C4B7170240EC
:101FA000DC438D46AD83FD8B13D737008A07F18B59
:101FB000D98F13F6370113F7370063F4C600138780
:101FC00047FFB707002093874701BA978C23EFF0AC
:101FD0006F9008C86FF06F8DB7376E0193870760F9
:101FE00061B799C5371702405C4BC98F5CCB8280C3
:101FF000B7170240D84B1345F5FF798DC8CB8280C7
:1020000099C5371702401C4FC98F1CCF8280B71764
:102010000240984F1345F5FF798D88CF828099C58E
:10202000371702405C4FC98F5CCF8280B7170240E0
:10203000D84F1345F5FF798DC8CF82801E218D665C
:102040009386060433F7D700B6219E21D58FD6217B
:10205000D58FF621D58F9625D58FB625D58FD62548
:10206000D58FF625D58FD98F1EA19E291EA98280D6
:102070001E2189C593E707041EA18280C207C18380
:1020800093F7F7FBC207C183C5BF4EA582804A25DF
:1020900082800A256D8D3335A00082801E2137375E
:1020A0000140130707C0C207C1836306E500370775
:1020B00000406316E500BA2193F7F7F8D98FFA21AB
:1020C00093F7F7CFC207C183D98F1EA1DE215EB57A
:1020D0009E211EB5B7370140938707C06314F500F2
:1020E0009C251EB985475EA982801E2189C593E77C
:1020F00017001EA18280C207C183F99BC207C1835A
:10210000CDBF5E2501C6CD8F5EA5828093C5F5FF4C
:10211000ED8FDDBF93C5F5FFC205C1810EA9828099
:102120001E294A25ED8F4205418189C76D8D3335C2
:10213000A00082800145828093C5F5FFC205C18160
:102140000EA98280EFE2DFF51629F577FD17FD8EE7
:10215000FE21DA252111D58F1EA95625FD779387FB
:10216000379FFD8EDE212A84AE84D58F9625D58FAC
:10217000B625D58F5EA55E29C207C18393F7F7CF39
:10218000D98F5EA94800D133B747014093870780B4
:102190006313F406C247139517005A243E950E05A3
:1021A0003E9593170701C1878C4063D807048605C5
:1021B000EFE05FF2930540062AC0EFE0BFF18247EF
:1021C00093144500930540063E85EFE07FF35E24BF
:1021D000C207C18763D507020E05930540061305A4
:1021E0002503EFE03FEF1D89C98CC204C18006A41E
:1021F00061016FE09FEBB24779BF8A0555BF1205B9
:102200009305400613052503EFE0DFEC3D89E9BFA8
:102210005E2589C50967D98F5EA5828079777D178C
:10222000F98FDDBF13F7F50F85471583B395B70019
:102230006319F7009307C500984301CE4D8F98C3EB
:102240008280894693074501E318D7FE930705016D
:10225000E5B793C5F5FFF98D8CC382805E2901C671
:10226000CD8F5EA9828093C5F5FFED8FDDBF93F51D
:10227000F51F4EA182804A211375F51F82800A2125
:102280006D8D3335A000828013F7F50F85461583D9
:10229000AA873395B6006310D702DA279E23798D7B
:1022A000C207C18301C9A18105473317B700F98F60
:1022B0003335F000828089466314D7009A2BF9BF2A
:1022C000DA2BE9BFA1818547B397B70093C7F7FF22
:1022D000C207C1831EA18280EFE29FDCB707002006
:1022E00003A50701B7157A0093850520EFE09FDE6F
:1022F0001375F50F2381A19C93175500898F8A07C9
:102300003E950E052390A19C6FE03FDAEFE25FD986
:1023100037F400E05C40AA85F99B5CC003D5019CC2
:10232000EFE05FD908C8232404001C4093E717009E
:102330001CC0B7F700E0D843058B75DF9843799B45
:1023400098C36FE09FD6AA879823850775FF3385CA
:10235000A7407D15828000002D2D2D2D2D20414D73
:102360004F4E204C696E6B202D2D2D2D2D0D0A000A
:102370004465766963652049443A2000436F6E6E78
:10238000656374696F6E204641494C4544210D0ACE
:042390000000000049
:1023940001020304050607080102030405060708F1
:1023A400006CDC020204060804080C100810182053
:1023B4001020304020406080010203040506070815
:0823C4000102030405060708ED
:0400000300001000E9
:00000001FF
