:101000006F10A06200000000AC190000AE190000D3
:1010100000000000000000000000000000000000D0
:1010200000000000000000000000000000000000C0
:101030002826000000000000282600000000000014
:101040002826000028260000282600002826000068
:10105000421E000028260000282600002826000046
:101060002826000028260000282600002826000048
:101070002826000028260000282600002826000038
:10108000A21D0000282600002826000028260000B7
:101090002826000028260000981E000000000000FE
:1010A000511126C022C206C4828282441244A24048
:1010B000310182802A86014593F6150091C232954E
:1010C00085810606F5F9828000000000634E050266
:1010D00063C305042E86AA857D5515C285466378AF
:1010E000B6006356C00006068606E36CB6FE0145F0
:1010F00063E4C500918D558D85820582F5FA828065
:101100008682C93F2E8582823305A0406347B000A6
:10111000B305B040C1B7B305B0408682653F330523
:10112000A0408282868263C70500634905005D375F
:101130002E858282B305B040E35B05FE3305A040F7
:10114000513F3305B040828200002A8309CA83835D
:101150000500230073007D16050385056DFA828066
:1011600015C22A8385466367B500FD561307F6FF4F
:101170003A93BA9583830500230073007D16369356
:10118000B6956DFA82802A8311C62300B3007D16BE
:10119000050365FE82800E2548416F1010040E295C
:1011A00048456F10D0030E2548416F105003EFF2F1
:1011B0003FEF2A84AE8408408945EF10902065DD1A
:1011C0000840A685EF10701F08408545EF10701F7E
:1011D00065DD0840EF10B01E1375F50FF9B5EFF29D
:1011E0003FEC0CC150C116A558C51EA92A8465370D
:1011F000228575375DBDEFF2BFEA71112E84B2848E
:101200002AC0A2944D3763179400024569370145FF
:10121000110161BD0C2002450504513FEDB7EFF20D
:101220003FE8611132C2B6842E842AC0AD3F024528
:101230009375F401AD3F2A8402459305F00F853F75
:10124000124608A20245813F91C080A001452101BC
:10125000A9BDEFF2FFE46111B28436C22E842AC028
:10126000993702459375F40193E5050289372A847D
:101270000245A6852D3F0245393F924691C280A284
:10128000014521011DB5EFF2BFE12A84AE84213F63
:101290009305F00F2285213F88A02285ED3D014571
:1012A00029B5EFF2FFDF7111930531002A84E13F88
:1012B000908130AC9377060499CB8547A30BF40655
:1012C000935716409D8B1D476383E7001CBC9377A3
:1012D000060281C78547230CF4069377060181C770
:1012E0008547A30CF4068146137606079D452285A3
:1012F0008D3711015DBBEFF2BFDA61112A844535EC
:101300002285513D130660048145230C0400230D02
:10131000040013054403853D8146130631008145D1
:101320002285F53D9081814681451376D60F228531
:101330000D3785441305400644D4EF1050305C50FF
:1013400081468D45903322850D8A21375C50814638
:10135000954590232285158AED3D5C50A30101003F
:101360009847631497002147D881D84785469C81C8
:10137000630AD70E8946630BD70E93E767006305B0
:10138000070E9081814699452285E1355C50814662
:101390009145D023FE2322853D8A92075D8E1376E8
:1013A000F60FD0817D355C5081460546BC2391E324
:1013B000014685452285713D814605468945228540
:1013C000493D5C50BC33D5C79D67938707350946B7
:1013D0004C0022857C82053581461146F5452285E3
:1013E0008D3D81460546F1452285A5358557054643
:1013F0004C0022855C820135895705464C002285C8
:101400005C82D53B8146130600079D4522859135B8
:101410001850B147DC8185476314F700B547DC817C
:1014200090818146814522852D3581461306310004
:1014300081452285ED3390818146814513662600E2
:101440002285D08139350945EF1010231850854782
:101450006319F7020E284844EF10205891475CD4D6
:101460002101A1B193E74700DC8121BF93E7270069
:10147000E5BF81460146F5452285E13B81460146AF
:101480009DB72285293B8947D9BFEFF27FC11C5107
:1014900071112A8491C791475CC90545110131B189
:1014A000834745057D47FD1793F7F70FE367F7FE81
:1014B000FD318146130600039D45231C0406228549
:1014C000493B89570546930531002285DC81253348
:1014D0002285D1399305000A2285D1398144834779
:1014E000440563E0F40222857D310E284844EF1064
:1014F000C04E13054006EF10901422854D31014572
:1015000071BFB307940083C5470322858504453125
:1015100093F4F40FE9B7EFF2BFB814510547511136
:101520002A8491476390E60613060002814513055D
:10153000550591392285A30A0406230B0406A5311B
:10154000930500062285A5319305F00F228585318C
:10155000AA84228589319387F4FF93F7F70F7D479B
:101560006376F702855705469305B1002285DC8531
:1015700059318146130600049D452285D9398D478E
:10158000A30B04065CC80545310105B62285213947
:101590009305100622852139A2873387840093059D
:1015A000F00F22853AC23EC0193182471247A38A02
:1015B000A7048507E395E7FE2285F13E0145A30BCD
:1015C0000406A30A9406C9B7EFF29FAD5C516111FE
:1015D0002A849C33AE84890793F7F70F3EC0E13627
:1015E000930500032285E1368147824613F7F70F02
:1015F0006368D702228545365C50BC2399CF22858B
:101600005D369305A00222855D368147824613F739
:10161000F70F6360D7022285BD3E0145210171B4F9
:101620003387F4000C2322853EC25136924785074A
:101630006DBF3387F4000C2322853EC28D3E924756
:101640008507E9B7EFF2DFA551112AC0954763E19D
:10165000B7065C512E84B2849C333EC2A936024543
:101660009305A40093E5050293F5F50F89368546A9
:1016700063EC860292470147890793F7F70F937649
:10168000F70F63E8F60002453936014531016FF086
:10169000DFA1B386E4008C2202453EC43AC2013E7B
:1016A0001247A2470507E1BF8C2002450936E1BF7A
:1016B0000545E9BFEFF2DF9EB704002013848403E1
:1016C0000346D404814513850185753C3705002008
:1016D00069468145130545042313040423240404A7
:1016E0002326040423AC0402232204002324040040
:1016F000593C6FF09F9BEFF2BF9A71112E84AA8420
:1017000032C04D3F9420024674A09C307CB0BC2077
:101710001CA4BC301CB4D82038A4CC302CB489CD47
:1017200001473385E400034365003305E400050702
:1017300023066500E347B7FE05470945639EE604B7
:10174000130700020D456389E7046361F70441470D
:101750006391D7041CA230347A209307A0FA2303A4
:10176000F40493078600A303F4042314E4043C2444
:101770001A24A306C4042306F4042315E4049305E1
:10178000C40013050405EFF0BF9D31A01307F00F4F
:1017900011456383E700014511016FF01F917C2122
:1017A0009CA17C319CB11C25BCA11C35BCB13C2545
:1017B000DCA13C35DCB185E33C3599071CA2828075
:1017C0003307F50054273387F500850774A33835B0
:1017D000E3C8E7FED5B78147DDBF2A866973416557
:1017E00081467D15050393970601C18363E3B70026
:1017F0008280B307D6009C233D8DA1471377150047
:10180000058111C733476500131507014181FD1795
:1018100093F7F70FE5F78506F9B7EFF27F887111B7
:101820002E842AC0B28479350245914618212303BB
:10183000E4041C31A303F4046391D70418A01CB082
:10184000382138A0383138B0583154212207558F0B
:101850005AA00C300505B5C9FD15C205C181B53FBB
:101860005A2085476317A70034204147A94763984A
:10187000E6063E8511016FF05F8338212304E404FE
:101880003831A304E40458212305E4045831A305A6
:10189000E40478212306E4047431A306D40491EA15
:1018A000B306F500983294222207558F2317E404DB
:1018B0004DB701473306E5000C263306E400050763
:1018C0002308B604E348D7FEE1BF9385F7FFC205BE
:1018D000C18121370357E4048547E31CA7F88346F9
:1018E000840405478947E396E6F80347B404930761
:1018F00000026300F70263EAE7008D47E30BD7F6C7
:10190000C146E308D7F68147ADB79306F00F91477C
:10191000CDBF94A0835784040346D40493050405E3
:101920007EA08357A4041305C4001EA48357C404D7
:101930003EA4EFF0FF82C1BFEFF28FF6834765044C
:101940002E849CA1834775049CB183478504BCA168
:1019500083479504BCB18347A504DCA18347B50444
:10196000DCB18347C504FCA18347D504FCB18DEFEE
:101970008344D50413051400A10493F4F40FA68541
:10198000A93DA29488A0218188B06FF00FF233079F
:10199000F500834607053307F400850714A70347BE
:1019A000D504E3C6E7FEE9B78147D5BF01A0B70775
:1019B000EFBE37E700E0938707083CC701A0EFF2CE
:1019C0002FEE1301C1FD85451305100302C402C6A5
:1019D00002C802CA02CC02CE02D002C002C2EF107C
:1019E00020150D448544C1472C00371501406484FF
:1019F00022C63EC8EF005076C1473EC8B717014027
:101A00002C0013850740648422C6EF00F07493070E
:101A100080023EC8B71701401385074041472C009C
:101A2000788422C6EF00507391450D45EF00107C7D
:101A30004147A14648083ACA36CE26D002CCEF002C
:101A40007058930740110A857C80448126C2EF00BC
:101A5000707CB71701401306800413850740A14628
:101A60002C0032C8748422C6EF00106F8D450D45DE
:101A7000EF00D0773147A14648083ACE36CA26D083
:101A800002CCEF003054930740110A857C8026C2B7
:101A900023010100EF0010781306800489462C0012
:101AA0003715014032C8748422C6EF00F06A8545BC
:101AB0000945EF00B07389463147480836CA3ACE27
:101AC00026D002CCEF001050930740110A857C808D
:101AD00026C223010100EF00F073A14641472C000C
:101AE00037150140748422C63AC8EF00F06691446D
:101AF00041472C0037150140648422C63AC8EF00E4
:101B0000B065414778842C0041473715014022C613
:101B10003AC8EF007064B717014041472C001385A5
:101B20000740648422C63AC8EF00106313014102E3
:101B30006FF0AFD7EFF2CFD631118545054502C41E
:101B400002C62318010002C002C2EF104000BD47C8
:101B50003EC4BD679387F7A52C00370500403EC6FD
:101B6000EF10C006854537050040EF10A00D1307A4
:101B70000004B7E700E023A2E728054685453705BE
:101B80000040EF10000B930760127C8089475C8156
:101B90000A8585473EC2EF00F06713052003EF106A
:101BA000A02D854537050040EF10200751016FF04B
:101BB000CFCFEFF2EFCE11651301C1FD85451305BF
:101BC000150202C402C602C802CA02CC02CE02D06A
:101BD00002C002C2EF00D075B7070140D843B70674
:101BE000E0FFED16758FD8C3D843B7062000371431
:101BF0000140558FD8C3930700047C848D44E1478E
:101C00002C001305044026C63EC8EF00F05493078D
:101C100000027C842C0091471305044026C63EC870
:101C2000EF009053F16737440140938707203ECA85
:101C30004C08B7070C00130504803ECE02CC2310DD
:101C40000102EF102003054693055052130504804E
:101C5000EF106010930700127C800A8585473EC212
:101C600023010100EF00105B854513050480EF1090
:101C7000400D130141026FF04FC3EFF26FC2130129
:101C800041FD1306C00281450A85EFF0CFCF85459F
:101C90000545EF001068B704024013854404EF00C7
:101CA000902437440140930744803EC0938751A855
:101CB0003EC2C1473EC4930700043EC693070008D6
:101CC0003ECA8A858567138544043ED202C802CC89
:101CD00002CE02D002D4EF00302A05469305000858
:101CE00013050480EF10A00A1301C1026FF0EFBBCF
:101CF000EFF20FBB0565511185451105EF005063EB
:101D00009307000661447C808A858D473715014022
:101D100022C43EC2EF005044930700087C808A85AD
:101D20009147371501403EC4EF00104393878189E6
:101D300037070401D8C39385C189370700023735B7
:101D4000014023A40700D8C780CBEF00306285454F
:101D500037350140EF00D06431016FF00FB5EFF27D
:101D60002FB4AA84370502402E841305450481450B
:101D7000EF001024269463848402B7470140138542
:101D8000078093050008EF10A002B747014075D502
:101D90008C20138507808504EF108000E9BF6FF069
:101DA000CFB0711122C03744014093055052130542
:101DB0000480EF10800021CD13050480EF00D07E59
:101DC00083C76189938601A43386F600850713755E
:101DD000F50F93F7F70F08A2238BF1881303A00ADE
:101DE000138701A46319650203C3518963150302B4
:101DF00085472381F60423800604A38A018837459A
:101E000001409305505213050580EF00D07E024437
:101E100011017300203083422704054383C6518992
:101E20006398620091E6A38AA18823010704C1BFD9
:101E30008506E3D6F6FC85472300F704238B01884B
:101E40007DBF4145EF00301E15C1938781ACF4235F
:101E50000547638AE6000146854537150140F8A32A
:101E6000F8B7EF0010384145EF00901D2145EF0015
:101E7000901B19C5054721452382E194EF00501CB2
:101E80000945EF00501A19C5054709452384E18C1F
:101E9000EF00101B730020306111854537050040AD
:101EA00022C226C0EF00D05A6309050C938781AC8B
:101EB000F8238547138481AC6317F70683C74189EC
:101EC00083D62189850793F7F70F85062399D18853
:101ED000238AF188AD4663F4F602B71701408545C1
:101EE00013850740EF00B02EB717014013361500D9
:101EF000854513850740EF00D02E238A018803D73C
:101F000021899307301F63F0E7028D4737150140A1
:101F10007CA00146854513050540239901882304CB
:101F20000400EF00102C182485476317F70003D72F
:101F3000218919C32399018878209547631AF702EC
:101F400083C701890D47850793F7F70F2388F18829
:101F50006370F702854537150140EF0050271336AF
:101F60001500854537150140EF00B027238801880B
:101F7000854537050040EF00304F1244824421016F
:101F800073002030EFF2CF912A84EF00D0161305B2
:101F90001003EF00B00B37450008130505FCEF00F8
:101FA0005018EF00300B8547E30DF5FE0C20374548
:101FB0000008130505FCEF00B00EEF00B0098547DF
:101FC000E30DF5FE4C4037450008130545FCEF00D6
:101FD000300DEF0030088547E30DF5FEEF0090135C
:101FE0006FF0AF8CEFF2CF8BB71701809387A7BA52
:101FF000138401A423A0F1A4930720109386819A4F
:102000005EA089477CA0DC42A94513D6870170B049
:1020100013D6070110A4138511A413D687003CA47E
:1020200010B4EFF08FFB28B4218148A4930500047D
:10203000138501A42D339307800873B007308547BB
:102040009386819A1385819A9CA22D3FB707EFBE94
:1020500037E700E0938707083CC701A0EFF24F8401
:102060001301C1FC0545EF00901AA12BEF00F059B8
:10207000EFF0FF94EFF01FACEFF0BFB3EFF0FFBF56
:102080008539938781ACDC33138481AC9384C1920E
:10209000D5EB0546854537150140EF009014B7177D
:1020A00001401385074005468545EF009013014622
:1020B000A14537150140EF00D01201469145371573
:1020C0000140EF0010120546C14537150140EF00F1
:1020D0005011B71701401385074005469145EF00A1
:1020E0005010ED2B08C037470008834707FC938644
:1020F000819A93F7F70F9CA2130747FC1843D8C2A5
:1021000005476397E7001385819A238006009D3D6C
:10211000230304001387018B85472304040023262F
:1021200007029386018B7D575CA05CB0A30404007A
:1021300023A604022307040098BC98BE93078008D6
:1021400073A00730938701A403C707048546631F64
:10215000D70223800704138641A89385019B13852A
:1021600001A43AC2EFF06FEB2AC0130600041385F6
:1021700001A48145EFF02F81824791461247638683
:10218000D70029476394E700B13D78A0938701A465
:1021900003C737048547631EF700938701A413869E
:1021A00011A89385019B13855190A3810704EFF03B
:1021B0008FD4982C8547631CF7001385C192EFF0EC
:1021C0004F8E9C3C238BF406930700F09EAC9387C4
:1021D000018B982F85476312F7021385018BEFF06F
:1021E0004F8C9387018B9C3F9386018B1387018BC8
:1021F000238BF606930700F01EAF7420094793F770
:10220000F60F6387E6226361F7186398071C1305CE
:10221000803EEF0070468D656146938545EC680809
:10222000EFE0BFF26808EF00D04893150501C181C7
:102230006808EFF0DFB28D6531469385C5ED08087B
:10224000EFE0BFF00808EF00D04693150501C1810B
:102250000808EFF0DFB09145138581ACEFF03FB097
:1022600085679387D7A068007C8623070100EF006D
:10227000504493150501C1816800EFF05FAEA1479E
:1022800037170140C14637160140B7350140138565
:10229000C192EFE0DFF437160140B73501401385F6
:1022A000018B914737170140914613060640EFE036
:1022B0001FF39305B1001385C192A3050100EFE060
:1022C0009FFC19E59885B947630BF70E8547DCC875
:1022D0009305B1001385018BEFE0FFFA09E99885BA
:1022E000B9476303F70E85471387018B5CCB8D6776
:1022F000938787F3DCD08D67938747F29CD413854F
:10230000C19223A0040223AE0400EFE0DFFE8C5450
:102310001385C192EFF04FAB1387018B85471CD318
:102320000D671386018B130747F158D20D6713070A
:1023300007F01385018B18D61387018B5CCFEFE074
:102340009FFB1387018B10571385018B8145150661
:10235000EFF04FAF0146854537150140EF0060684B
:10236000371501400146854513050540EF006067BC
:10237000D84885476307F7001387018B584B6313D1
:10238000F70095477CA07DBB0D47E39DE7DA8D659F
:102390005546938585EE6808EFE03FDB6808EF005F
:1023A000503193150501C1816808EFF05F9B054628
:1023B000854537150140EF00C0629147E1B7854779
:1023C00023AA0400DCD429B79387018B23AA070032
:1023D0001387018B85475CD719BF783485471CA4C8
:1023E0006319F7021387019B930710507EA3B72749
:1023F0001100850713860198938501961385019B2B
:102400001CC7EFF0CFB91385C192EFF00F88A30777
:10241000040018248547E317F7D237150140054615
:1024200085451305054023070400652B894799BF9F
:102430001C3413F7F70F91C78547E305F7D08D4795
:1024400091B7938701A483C747048DC3138601986E
:10245000938501961385019BEFF06FB41385C192AC
:10246000EFF0AF82938701A423820704938701A42E
:1024700083C717048DC3938501A41385019BEFF0D7
:10248000AFCB138501A493050004EFF05F8D938714
:1024900001A4A380070483C7840791C73E24238C2B
:1024A000040685073EA483C7940799CF1E28A38CF2
:1024B000040611478507C207C1831EA86376F7008B
:1024C00085477CA48D477CA09387018B83C77707C2
:1024D000E38A07C61385018BEFF0EF8385471387E7
:1024E00001A4A300F704B9B9EFE29FBB371402407F
:1024F0001C403707FFF8414593E717001CC05C40BC
:10250000F98F5CC01C403707F7FE7D17F98F1CC0A0
:102510001C403707FCFF7D17F98F1CC05C404177DA
:102520007D17F98F5CC0B7079F001CC4352B1C4C6E
:1025300093E707021CCCB7170140938707409843E5
:102540001377F7F098C398431367070898C30947B0
:1025500098CBB7F7FF1F03C5477D9307F00F6304C0
:10256000F5007D891123B72702409843C176FD16F7
:10257000719B98C398431367170098C3B71702401D
:10258000D843D8C3D843758FD8C3D843B706000102
:10259000D8C39843558F98C3B70600029843758FE8
:1025A00075DFD843B7160240719BD8C3D843136771
:1025B0002700D8C32147DC42B18BE39EE7FE6FE0E2
:1025C000DFAE371702405C43A146B18B6394D7045A
:1025D0005C433775DC02130505C0B7160240D842CC
:1025E000B70700209387070011833D8BBA979C2380
:1025F000D84293F5F70F13770708B357F50005E3B3
:10260000EFE21FAAEFE01FAD370700202328A70045
:102610006FE0BFA937356E01130505607DBF370731
:1026200000202328F700828001A097E1FF1F9381FB
:10263000E120138181FC17F5FFFF1305A5A697E59F
:10264000FF1F9385259C17E6FF1F1306A69B63FAC1
:10265000C5008322050023A0550011059105E3EA7A
:10266000C5FE171500001305658E97E5FF1F9385BE
:10267000659917E6FF1F1306669C63FAC50083225F
:10268000050023A0550011059105E3EAC5FE17E5F5
:10269000FF1F1305A59A938541AE6377B5002320EC
:1026A00005001105E36DB5FE89629382028873907F
:1026B00002308D427390428097F2FFFF93828294A2
:1026C00093E2320073905230EFF01FE29702000065
:1026D000938202997390123473002030B7F7FF1F72
:1026E00003A5477C82801C4141677917F98F1CC183
:1026F000232005002322050023240500B7070240FC
:1027000023260500138787006317E500D843136766
:10271000F700D8C382801387C7016316E500D8434A
:102720001367070FFDB7138707036318E500D84346
:102730008566938606F0558FE9BF138747046315B6
:10274000E500D843BD66C5BF138787056316E5005E
:10275000D843B7060F00C5B71387C7066316E50051
:10276000D843B706F000C1BF13870708E314E5FAA2
:10277000D843B706000FC1B71841E177BD079451A0
:102780007D8F9C45D58F9449D58FD449D58F944D55
:10279000D58FD44DD58FD451D58F9455D58FD98F12
:1027A0001CC1DC455CC19C411CC5DC415CC5828010
:1027B0001C4189C593E717001CC1828041677917C6
:1027C000F98FDDBF58410C415045B7070140938751
:1027D00007403E9793C6F5FF39C29043758E90C36C
:1027E000D043F18ED4C31443CD8E14C31841904707
:1027F0009346F7FF758E90C7D047F18ED4C7144526
:1028000041466399C6009447D98E94C7D447558FE3
:10281000D8C78280B6979443558F98C382801C4353
:10282000F58F1CC38280B70701409387074094430C
:10283000DC4B2A877D8D01C5F98E3335D00082802F
:10284000B707014093870740C8CB8280B727024073
:10285000C8C78280B7270240C847058911E5C84725
:102860004189133515000D058280B7270240C847FE
:10287000058911E5C8474189133515000D0582808A
:10288000EFE21F822A84D53785476318F50019E0E7
:10289000154529A0D93F7D14C5BF7DD86FE0FF80C5
:1028A000EFE21F807111AA8409652E8402C0C93F1E
:1028B0009146631FD502B7270240984B09651367FD
:1028C000170098CB1317040141839AA0553F9146F6
:1028D000B7270240631BD500890426C00247418008
:1028E000096502A3713FB7270240984B799B98CBAB
:1028F00011016FE08FFBB7066745B727024093864B
:1029000036123797EFCDD4C31307B79AD8C3D4D3B1
:10291000D8D38280372702401C4BA166D58F1CCBB1
:102920008280B70700F8AA97116763F6E702B72716
:102930000240984BB7060200558F98CBC8CB984BF6
:102940001367070498CBD847058B75FF984B8176A2
:10295000FD16758F98CB8280944593F7060113F38B
:10296000F60081C7DC413363F30083D2050093F79F
:10297000F20FA9CF0C41611122C226C081479303F7
:1029800080023D449304800405473317F70033F673
:10299000E2006310C7026397760258C913962700B6
:1029A0003317C4001347F7FF6D8F3316C300B365A9
:1029B000E60085072147E399E7FC12440CC18244F5
:1029C00021018280E39C96FC18C9C9BF82805C45C6
:1029D00033F5F5003335A00082800CC982804CC9E4
:1029E000828019C20CC982804CC98280370701409D
:1029F000144786058D47B397B70093C7F7FFF58F48
:102A00001CC71C473315B5005D8D08C7828023AEF7
:102A1000A1AC828003A7C1AD854714216310F702E2
:102A20001C31639CE7023C219A0793E707F837E7DC
:102A300000E093F7F70F36972300F740054793D749
:102A400056003317D700544189CE938707048A076D
:102A5000B7E600E0B69798C38280EDF33C219A0771
:102A6000F9B793870706E5B7371702401C430E05F1
:102A700093F777F05D8D08C38280EFE26FE237173E
:102A800002405C43A1462A84B18B639FD7065C4316
:102A9000B777DC02938707C01CC037160240544248
:102AA00037070020130787029182BD8A36970823D3
:102AB00058429375F50F1377070833D5A70001E740
:102AC0003E85EFE02FE148C008C448C4B717024074
:102AD000DC438D46AD83FD8B13D737008A07F18B1E
:102AE000D98F13F6370113F7370063F4C600138745
:102AF00047FFB707002093874701BA978C23EFE081
:102B00006FDD08C86FE06FDAB7376E019387076033
:102B100061B799C5371702405C4BC98F5CCB828087
:102B2000B7170240D84B1345F5FF798DC8CB82808B
:102B300099C5371702401C4FC98F1CCF8280B71729
:102B40000240984F1345F5FF798D88CF828099C553
:102B5000371702405C4FC98F5CCF8280B7170240A5
:102B6000D84F1345F5FF798DC8CF82801E218D6621
:102B70009386060433F7D700B6219E21D58FD62140
:102B8000D58FF621D58F9625D58FB625D58FD6250D
:102B9000D58FF625D58FD98F1EA19E291EA982809B
:102BA0001E2189C593E707041EA18280C207C18345
:102BB00093F7F7FBC207C183C5BF4EA582804A25A4
:102BC00082800A256D8D3335A00082801E21373723
:102BD0000140130707C0C207C1836306E50037073A
:102BE00000406316E500BA2193F7F7F8D98FFA2170
:102BF00093F7F7CFC207C183D98F1EA1DE215EB53F
:102C00009E211EB5B7370140938707C06314F500B6
:102C10009C251EB985475EA982801E2189C593E740
:102C200017001EA18280C207C183F99BC207C1831E
:102C3000CDBF5E2501C6CD8F5EA5828093C5F5FF11
:102C4000ED8FDDBF93C5F5FFC205C1810EA982805E
:102C50001E294A25ED8F4205418189C76D8D333587
:102C6000A00082800145828093C5F5FFC205C18125
:102C70000EA98280EFE2CFC21629F577FD17FD8EEF
:102C8000FE21DA252111D58F1EA95625FD779387C0
:102C9000379FFD8EDE212A84AE84D58F9625D58F71
:102CA000B625D58F5EA55E29C207C18393F7F7CFFE
:102CB000D98F5EA94800EFF05FDCB74701409387EA
:102CC00007806313F406C247139517005A243E95F4
:102CD0000E053E9593170701C1878C4063D8070402
:102CE0008605EFE02FBF930540062AC0EFE08FBEB8
:102CF000824793144500930540063E85EFE04FC0A0
:102D00005E24C207C18763D507020E0593054006FE
:102D100013052503EFE00FBC1D89C98CC204C180D7
:102D200006A461016FE06FB8B24779BF8A0555BF4D
:102D300012059305400613052503EFE0AFB93D8961
:102D4000E9BF5E2589C50967D98F5EA5828079773D
:102D50007D17F98FDDBF13F7F50F85471583B39501
:102D6000B7006319F7009307C500984301CE4D8F54
:102D700098C38280894693074501E318D7FE9307DD
:102D80000501E5B793C5F5FFF98D8CC382805E29F7
:102D900001C6CD8F5EA9828093C5F5FFED8FDDBFA3
:102DA00093F5F51F4EA182804A211375F51F82808D
:102DB0000A216D8D3335A000828013F7F50F85460B
:102DC0001583AA873395B6006310D702DA279E23AE
:102DD000798DC207C18301C9A18105473317B700A7
:102DE000F98F3335F000828089466314D7009A2B1F
:102DF000F9BFDA2BE9BFA1818547B397B70093C725
:102E0000F7FFC207C1831EA18280EFE26FA9B70757
:102E1000002003A50701B7157A0093850520EFE090
:102E20006FAB1375F50F2381A1AE93175500898FF2
:102E30008A073E950E052390A1AE6FE00FA7EFE243
:102E40002FA637F400E05C40AA85F99B5CC003C55F
:102E500021AEEFE02FA608C8232404001C4093E70E
:102E600017001CC0B7F700E0D843058B75DF984307
:102E7000799B98C36FE06FA3EFE28FA237F400E075
:102E80005C40AA85F99B5CC003D501AEEFE08FA240
:102E900008C8232404001C4093E717001CC0B7F7A0
:102EA00000E0D843058B75DF9843799B98C36FE0AA
:102EB000CF9FAA879823850775FF3385A7407D1587
:102EC000828000002D2D2D2D2D20414D4F4E204C68
:102ED000696E6B202D2D2D2D2D0D0A004465766910
:102EE00063652049443A2000436F6E6E65637469E0
:102EF0006F6E204641494C4544210D0A00000000F8
:102F00000000000000E7E7E7E7E80000000000003D
:102F10000000000064030101000000000000000048
:102F200001000000E7E7E7E7E7000000000000001D
:102F300000000000000000002803010108007000EC
:082F4000000000000000000089
:102F48000102030405060708010203040506070831
:102F5800006CDC020204060804080C100810182093
:102F68001020304020406080010203040506070855
:082F780001020304050607082D
:0400000300001000E9
:00000001FF
