:101000006F10E05D000000009A1900009C190000BC
:1010100000000000000000000000000000000000D0
:1010200000000000000000000000000000000000C0
:10103000DC25000000000000DC25000000000000AE
:10104000DC250000DC250000DC250000DC2500009C
:10105000301E0000DC250000DC250000DC2500003F
:10106000DC250000DC250000DC250000DC2500007C
:10107000DC250000DC250000DC250000DC2500006C
:10108000901D0000DC250000DC250000DC250000B0
:10109000DC250000DC250000841E000000000000AC
:1010A000511126C022C206C4828282441244A24048
:1010B000310182802A86014593F6150091C232954E
:1010C00085810606F5F9828000000000634E050266
:1010D00063C305042E86AA857D5515C285466378AF
:1010E000B6006356C00006068606E36CB6FE0145F0
:1010F00063E4C500918D558D85820582F5FA828065
:101100008682C93F2E8582823305A0406347B000A6
:10111000B305B040C1B7B305B0408682653F330523
:10112000A0408282868263C70500634905005D375F
:101130002E858282B305B040E35B05FE3305A040F7
:10114000513F3305B040828200002A8309CA83835D
:101150000500230073007D16050385056DFA828066
:1011600015C22A8385466367B500FD561307F6FF4F
:101170003A93BA9583830500230073007D16369356
:10118000B6956DFA82802A8311C62300B3007D16BE
:10119000050365FE82800E2548416F10407F0E29B1
:1011A00048456F10007F0E2548416F10807EEFF29A
:1011B0003FEF2A84AE8408408945EF10D01B65DDDF
:1011C0000840A685EF10B01A08408545EF10B01A08
:1011D00065DD0840EF10F0191375F50FF9B5EFF262
:1011E0003FEC0CC150C116A558C51EA92A8465370D
:1011F000228575375DBDEFF2BFEA71112E84B2848E
:101200002AC0A2944D3763179400024569370145FF
:10121000110161BD0C2002450504513FEDB7EFF20D
:101220003FE8611132C2B6842E842AC0AD3F024528
:101230009375F401AD3F2A8402459305F00F853F75
:10124000124608A20245813F91C080A001452101BC
:10125000A9BDEFF2FFE46111B28436C22E842AC028
:10126000993702459375F40193E5050289372A847D
:101270000245A6852D3F0245393F924691C280A284
:10128000014521011DB5EFF2BFE12A84AE84213F63
:101290009305F00F2285213F88A02285ED3D014571
:1012A00029B5EFF2FFDF7111930531002A84E13F88
:1012B000908130AC9377060499CB8547A30BF40655
:1012C000935716409D8B1D476383E7001CBC9377A3
:1012D000060281C78547230CF4069377060181C770
:1012E0008547A30CF4068146137606079D452285A3
:1012F0008D3711015DBBEFF2BFDA61112A844535EC
:101300002285513D130660048145230C0400230D02
:10131000040013054403853D8146130631008145D1
:101320002285F53D9081814681451376D60F228531
:101330000D3785441305400644D4EF10902B5C50C4
:1013400081468D45903322850D8A21375C50814638
:10135000954590232285158AED3D5C50A30101003F
:101360009847631497002147D881D84785469C81C8
:10137000630AD70E8946630BD70E93E767006305B0
:10138000070E9081814699452285E1355C50814662
:101390009145D023FE2322853D8A92075D8E1376E8
:1013A000F60FD0817D355C5081460546BC2391E324
:1013B000014685452285713D814605468945228540
:1013C000493D5C50BC33D5C79D67938707350946B7
:1013D0004C0022857C82053581461146F5452285E3
:1013E0008D3D81460546F1452285A5358557054643
:1013F0004C0022855C820135895705464C002285C8
:101400005C82D53B8146130600079D4522859135B8
:101410001850B147DC8185476314F700B547DC817C
:1014200090818146814522852D3581461306310004
:1014300081452285ED3390818146814513662600E2
:101440002285D08139350945EF10501E1850854747
:101450006319F7020E284844EF10605391475CD49B
:101460002101A1B193E74700DC8121BF93E7270069
:10147000E5BF81460146F5452285E13B81460146AF
:101480009DB72285293B8947D9BFEFF27FC11C5107
:1014900071112A8491C791475CC90545110131B189
:1014A000834745057D47FD1793F7F70FE367F7FE81
:1014B000FD318146130600039D45231C0406228549
:1014C000493B89570546930531002285DC81253348
:1014D0002285D1399305000A2285D1398144834779
:1014E000440563EFF40022857D310E284844EF1057
:1014F000004A3D45EF10F00F22855531014579BF77
:10150000B307940083C54703228585044D3193F4C6
:10151000F40FF1B7EFF2DFB81451054751112A84E7
:1015200091476390E60613060002814513055505B1
:1015300099392285A30A0406230B0406AD319305CD
:1015400000062285AD319305F00F22858D31AA84E6
:10155000228591319387F4FF93F7F70F7D476376E8
:10156000F702855705469305B1002285DC85613178
:101570008146130600049D452285E1398D47A30B62
:1015800004065CC8054531010DB62285293993054D
:10159000100622852939A287338784009305F00F2E
:1015A00022853AC23EC0213182471247A38AA7044E
:1015B0008507E395E7FE2285F93E0145A30B040666
:1015C000A30A9406C9B7EFF2BFAD5C5161112A843A
:1015D0009C33AE84890793F7F70F3EC0E936930535
:1015E00000032285E9368147824613F7F70F6365CA
:1015F000D70222854D3622857D369305A0022285AD
:101600007D368147824613F7F70F6360D702228544
:1016100059360145210151BC3387F4000C23228542
:101620003EC2713692478507C1B73387F4000C2359
:1016300022853EC2AD3E92478507E9B7EFF25FA62D
:1016400051112AC0954763E1B7065C512E84B284DC
:101650009C333EC2893E02459305A40093E50502F2
:1016600093F5F50FA936854663EC8602924701474C
:10167000890793F7F70F9376F70F63E8F6000245B3
:10168000193E014531016FF05FA2B386E4008C2260
:1016900002453EC43AC2213E1247A2470507E1BFB8
:1016A0008C2002452936E1BF0545E9BFEFF25F9F77
:1016B000B7040020138484030346D40237050020B6
:1016C000814513058506C1343705002069468145EB
:1016D00013054504231304022324040223260402D1
:1016E00023AC04022322040023240400693C6FF08D
:1016F000DF9BEFF2FF9A71112E84AA8432C07D37EE
:101700009420024674A09C307CB0BC201CA4BC3049
:101710001CB4D82038A4CC302CB489CD01473385F3
:10172000E400034365003305E40005072306650074
:10173000E347B7FE05470945639CE604130700022B
:101740000D456387E704636FF7024147639FD70244
:101750001CA230347A209307A0FA2303F4029307E3
:101760008600A303F4021AB43C241A24A306C4027C
:101770002306F4023AB49305C40013050403EFF002
:101780003F9E31A01307F00F11456383E700014529
:1017900011016FF09F917C219CA17C319CB11C2593
:1017A000BCA11C35BCB13C25DCA13C35DCB185E3DA
:1017B0003C3599071CA282803307F50054273387F4
:1017C000F500850774A33835E3C8E7FED5B7814730
:1017D000DDBF2A866973416581467D1505039397B0
:1017E0000601C18363E3B7008280B307D6009C2360
:1017F0003D8DA14713771500058111C7334765005B
:10180000131507014181FD1793F7F70FE5F78506DB
:10181000F9B7EFF2FF8871112E842AC0B2847935AE
:101820000245914618212303E4021C31A303F4026C
:101830006391D70418A01CB0382138A0383138B0D3
:10184000583154212207558F5AA00C300505ADC9D7
:10185000FD15C205C181B53F5A2085476317A70012
:1018600034204147A9476396E6063E8511016FF093
:10187000DF8338212304E4023831A304E402582131
:101880002305E4025831A305E40278212306E4028B
:101890007431A306D40289EAB306F5009832942283
:1018A0002207558F7AB455B701473306E5000C2659
:1018B0003306E40005072308B602E348D7FEE9BF74
:1018C0009385F7FFC205C18129377A348547E31E26
:1018D000A7F88346840205478947E398E6F803475B
:1018E000B402930700026300F70263EAE7008D4742
:1018F000E30DD7F6C146E30AD7F68147BDB7930695
:10190000F00F9147CDBF94A01E340346D402930537
:1019100004037EA03E341305C4001EA45E343EA41E
:10192000EFF01F84D9BFEFF2AFF7834765022E8433
:101930009CA1834775029CB183478502BCA1834764
:101940009502BCB18347A502DCA18347B502DCB197
:101950008347C502FCA18347D502FCB18DEF8344C8
:10196000D50213051400A10493F4F40FA685953550
:10197000A29488A0218188B06FF02FF33307F5007F
:10198000834607033307F400850714A70347D502EE
:10199000E3C6E7FEE9B78147D5BF01A0B707EFBEB1
:1019A00037E700E0938707083CC701A0EFF24FEF4D
:1019B0001301C1FD85451305100302C402C602C808
:1019C00002CA02CC02CE02D002C002C2EF108011C5
:1019D0000D448544C1472C0037150140648422C65C
:1019E0003EC8EF00B072C1473EC8B71701402C0097
:1019F00013850740648422C6EF005071930780026C
:101A00003EC8B71701401385074041472C00788432
:101A100022C6EF00B06F91450D45EF007078414749
:101A2000A14648083ACA36CE26D002CCEF00D054A0
:101A3000930740110A857C80448126C2EF00D0784C
:101A4000B71701401306800413850740A1462C00F8
:101A500032C8748422C6EF00706B8D450D45EF00CF
:101A600030743147A14648083ACE36CA26D002CC57
:101A7000EF009050930740110A857C8026C2230115
:101A80000100EF0070741306800489462C0037159E
:101A9000014032C8748422C6EF005067854509456D
:101AA000EF00107089463147480836CA3ACE26D032
:101AB00002CCEF00704C930740110A857C8026C24F
:101AC00023010100EF005070A14641472C0037155B
:101AD0000140748422C63AC8EF00506391444147E4
:101AE0002C0037150140648422C63AC8EF0010620A
:101AF000414778842C0041473715014022C63AC837
:101B0000EF00D060B717014041472C001385074014
:101B1000648422C63AC8EF00705F130141026FF07F
:101B2000CFD8EFF2EFD731118545054502C402C683
:101B30002318010002C002C2EF00B07CBD473EC4C2
:101B4000BD679387F7A52C00370500403EC6EF1010
:101B50002003854537050040EF10000A13070004F5
:101B6000B7E700E023A2E728054685453705004092
:101B7000EF106007930760127C8089475C810A85BB
:101B800085473EC2EF00506413052003EF10002A82
:101B9000854537050040EF10800351016FF0EFD00D
:101BA000EFF20FD011651301C1FD85451305150234
:101BB00002C402C602C802CA02CC02CE02D002C0CF
:101BC00002C2EF003072B7070140D843B706E0FF0A
:101BD000ED16758FD8C3D843B706200037140140DF
:101BE000558FD8C3930700047C848D44E1472C00B3
:101BF0001305044026C63EC8EF005051930700026B
:101C00007C842C0091471305044026C63EC8EF0093
:101C1000F04FF16737440140938707203ECA4C08D4
:101C2000B7070C00130504803ECE02CC231001023E
:101C3000EF00907F05469305505213050480EF1086
:101C4000C00C930700127C800A8585473EC22301A1
:101C50000100EF007057854513050480EF10A009BF
:101C6000130141026FF06FC4EFF28FC3130141FD06
:101C70001306C00281450A85EFF0EFD08545054582
:101C8000EF007064B704024013854404EF00F020B5
:101C900037440140930744803EC0938751A43EC21D
:101CA000C1473EC4930700043EC6930700083ECADE
:101CB0008A858567138544043ED202C802CC02CED1
:101CC00002D002D4EF0090260546930500081305C4
:101CD0000480EF1000071301C1026FF00FBDEFF297
:101CE0002FBC0565511185451105EF00B05F9307C5
:101CF000000661447C808A858D473715014022C4E7
:101D00003EC2EF00B040930700087C808A8591476F
:101D1000371501403EC4EF00703F93878187370736
:101D20000401D8C39385C1873707000237350140C6
:101D300023A40700D8C780CBEF00905E85453735D8
:101D40000140EF00306131016FF02FB6EFF24FB577
:101D5000AA84370502402E84130545048145EF000F
:101D60007020269463848402B7470140138507805E
:101D700093050008EF00107FB747014075D58C2010
:101D8000138507808504EF00F07CE9BF6FF0EFB1A9
:101D9000711122C03744014093055052130504804D
:101DA000EF00F07C21CD13050480EF00307B83C76A
:101DB0006187938601A03386F60085071375F50FBA
:101DC00093F7F70F08A2238BF1861303A00A13875A
:101DD00001A06319650203C3518763150302854798
:101DE0002381F60423800604A38A01863745014037
:101DF0009305505213050580EF00307B024411011A
:101E00007300203083422704054383C651876398BB
:101E1000620091E6A38AA18623010704C1BF85065B
:101E2000E3D6F6FC85472300F704238B01867DBFAC
:101E30004145EF00901A0DC1938781A8F42305470F
:101E40006389E6000146854537150140F8A3EF0098
:101E500090344145EF00101A2145EF00101819C5C4
:101E6000054721452382E192EF00D0180945EF0094
:101E7000D01619C5054709452384E18AEF0090175C
:101E800073002030611185453705004022C226C00D
:101E9000EF0050576309050C938781A8F823854705
:101EA000138481A86317F70683C7418783D62187E8
:101EB000850793F7F70F85062399D186238AF18644
:101EC000AD4663F4F602B717014085451385074018
:101ED000EF00302BB71701401336150085451385E9
:101EE0000740EF00502B238A018603D721879307F1
:101EF000301F63F0E7028D47371501407CA0014693
:101F00008545130505402399018623040400EF004D
:101F10009028182485476317F70003D7218719C332
:101F20002399018678209547631AF70283C70187B2
:101F30000D47850793F7F70F2388F1866370F70243
:101F4000854537150140EF00D02313361500854530
:101F500037150140EF003024238801868545370579
:101F60000040EF00B04B1244824421017300203046
:101F7000EFF20F932A84EF00501313051003EF00C4
:101F8000300837450008130505FCEF00D014EF00BA
:101F9000B0078547E30DF5FE0C2037450008130513
:101FA00005FCEF00300BEF0030068547E30DF5FE32
:101FB0004C4037450008130545FCEF00B009EF0021
:101FC000B0048547E30DF5FEEF0010106FF0EF8DC4
:101FD000EFF20F8DB71701809387A7BA138401A082
:101FE00023A0F1A093072010938681985EA08947D3
:101FF0007CA0DC42A94513D6870170B013D6070137
:1020000010A4138511A013D687003CA410B4EFF0E0
:102010004FFC28B4218148A493050004138501A036
:1020200035339307800873B00730854793868198CE
:10203000138581989CA22D3FB707EFBE37E700E0DC
:10204000938707083CC701A0EFF28F851301C1FCFD
:102050000545EF0010170523EF007056EFF01F95B0
:10206000EFF03FACEFF0DFB3EFF01FC08D39938797
:1020700081A8DC33138481A89384C190D5EB0546F5
:10208000854537150140EF001011B7170140138542
:10209000074005468545EF0010100146A14537155C
:1020A0000140EF00500F0146914537150140EF0008
:1020B000900E0546C14537150140EF00D00DB7170A
:1020C00001401385074005469145EF00D00CC92318
:1020D00008C037470008834707FC9386819893F729
:1020E000F70F9CA2130747FC1843D8C20547639714
:1020F000E70013858198238006009D3D230304009B
:102100001387018985472304040023260702938649
:1021100001897D575CA05CB0A304040023A60402DF
:102120002307040098BC98BE9307800873A007306B
:10213000938701A003C707048546631FD702238046
:102140000704138641A493850199138501A03AC21F
:10215000EFF02FEC2AC013060004138501A081457F
:10216000EFF06F828247914612476386D700294776
:102170006394E700B13D78A0938701A003C73704BB
:102180008547631EF700938701A0138611A49385EA
:1021900001991385518EA3810704EFF08FD5982CF8
:1021A0008547631CF7001385C190EFF08F8F9C3C2F
:1021B000238BF406930700F09EAC93870189982F38
:1021C00085476312F70213850189EFF08F8D93879E
:1021D00001899C3F9386018913870189238BF60629
:1021E000930700F01EAF7420894713F7F60F638B37
:1021F000F61E63E1E7186317071C1305803EEF0026
:10220000F0428D656146938585E76808EFE0FFF34E
:102210006808EF00504593150501C1816808EFF08B
:10222000FFB28D653146938505E90808EFE0FFF1BF
:102230000808EF00504393150501C1810808EFF02D
:10224000FFB09145138581A8EFF05FB08567938754
:10225000D7A068007C8623070100EF00D0409315CB
:102260000501C1816800EFF07FAEA147371701403B
:10227000C14637160140B73501401385C190EFE0E4
:102280001FF637160140B735014013850189914784
:1022900037170140914613060640EFE05FF49305BF
:1022A000B1001385C190A3050100EFE0DFFD19E542
:1022B0009885B947630AF70E8547DCC89305B100D6
:1022C00013850189EFE03FFC09E99885B94763026E
:1022D000F70E8547138701895CCB8D679387C7EE1F
:1022E000DCD08D67938787ED9CD41385C19023A0A4
:1022F000040223AE0400EFF00F808C541385C190CC
:10230000EFF06FAC1387018985471CD30D671386E7
:102310000189130787EC58D20D67130747EB138524
:10232000018918D6138701895CCFEFE0DFFC1387A2
:10233000018910571385018981451506EFF00FB00B
:102340000146854537150140EF00E064371501402F
:102350000146854513050540EF00E063D8488547F1
:102360006307F70013870189584B6313F7009547FC
:102370007CA07DBB8D47E31DF7DA8D6555469385BF
:10238000C5E96808EFE07FDC6808EF00D02D931501
:102390000501C1816808EFF07F9B0546854537152B
:1023A0000140D52B9147E9B7854723AA0400DCD427
:1023B00031B79387018923AA0700138701898547CD
:1023C0005CD721BF054718A41424E393E6D637153C
:1023D0000140054685451305054023070400652B8C
:1023E000894779B71C3413F7F70F91C78547E30185
:1023F000F7D48D47B5BF938701A083C747048DC32A
:10240000138601969385019413850199EFF0AFB877
:102410001385C190EFF06F87938701A02382070493
:10242000938701A083C717048DC3938501A01385EB
:102430000199EFF04FCF138501A093050004EFF051
:10244000FF90938701A0A380070483C7840791C7E7
:102450003E24238C040685073EA483C7940799CFA6
:102460001E28A38C040611478507C207C1831EA836
:102470006376F70085477CA48D477CA0938701890C
:1024800083C77707E38607CA13850189EFF08F8832
:102490008547138701A0A300F70459B9EFE25FC095
:1024A000371402401C403707FFF8414593E71700F7
:1024B0001CC05C40F98F5CC01C403707F7FE7D17DD
:1024C000F98F1CC01C403707FCFF7D17F98F1CC01B
:1024D0005C4041777D17F98F5CC0B7079F001CC433
:1024E000352B1C4C93E707021CCCB7170140938790
:1024F000074098431377F7F098C39843136707088A
:1025000098C3094798CBB7F7FF1F03C5477D9307CB
:10251000F00F6304F5007D891123B727024098432B
:10252000C176FD16719B98C398431367170098C333
:10253000B7170240D843D8C3D843758FD8C3D84300
:10254000B7060001D8C39843558F98C3B706000259
:102550009843758F75DFD843B7160240719BD8C377
:10256000D84313672700D8C32147DC42B18BE39ED1
:10257000E7FE6FE09FB3371702405C43A146B18B83
:102580006394D7045C433775DC02130505C0B716A6
:102590000240D842B70700209387070011833D8B84
:1025A000BA979C23D84293F5F70F13770708B357D0
:1025B000F50005E3EFE2DFAEEFE0DFB13707002023
:1025C0002328A7006FE07FAE37356E011305056045
:1025D0007DBF370700202328F700828001A097E104
:1025E000FF1F9381A125138181FC17F5FFFF1305C0
:1025F00065AB97E5FF1F9385E5A017E6FF1F130660
:1026000066A063FAC5008322050023A055001105CA
:102610009105E3EAC5FE171500001305658E97E5E1
:10262000FF1F9385259E17E6FF1F130626A163FA59
:10263000C5008322050023A0550011059105E3EA9A
:10264000C5FE17E5FF1F1305659F938541AA6377B4
:10265000B500232005001105E36DB5FE8962938264
:102660000288739002308D427390428097F2FFFF90
:102670009382429993E2320073905230EFF01FE25E
:10268000970200009382829C739012347300203072
:10269000B7F7FF1F03A5477C82801C41416779176C
:1026A000F98F1CC1232005002322050023240500E7
:1026B000B707024023260500138787006317E5004C
:1026C000D8431367F700D8C382801387C701631606
:1026D000E500D8431367070FFDB713870703631897
:1026E000E500D8438566938606F0558FE9BF1387CA
:1026F00047046315E500D843BD66C5BF138787054A
:102700006316E500D843B7060F00C5B71387C706A1
:102710006316E500D843B706F000C1BF138707086A
:10272000E314E5FAD843B706000FC1B71841E177C3
:10273000BD0794517D8F9C45D58F9449D58FD44941
:10274000D58F944DD58FD44DD58FD451D58F9455E9
:10275000D58FD98F1CC1DC455CC19C411CC5DC41B7
:102760005CC582801C4189C593E717001CC182802B
:1027700041677917F98FDDBF58410C415045B707C4
:102780000140938707403E9793C6F5FF39C29043B7
:10279000758E90C3D043F18ED4C31443CD8E14C331
:1027A000184190479346F7FF758E90C7D047F18E3A
:1027B000D4C7144541466399C6009447D98E94C73F
:1027C000D447558FD8C78280B6979443558F98C306
:1027D00082801C43F58F1CC38280B707014093871A
:1027E00007409443DC4B2A877D8D01C5F98E333534
:1027F000D0008280B707014093870740C8CB828012
:10280000B7270240C8C78280B7270240C84705895A
:1028100011E5C8474189133515000D058280B7279A
:102820000240C847058911E5C8474189133515009D
:102830000D058280EFE2DF862A84D537854763184D
:10284000F50019E0154529A0D93F7D14C5BF7DD8F5
:102850006FE0BF85EFE2DF847111AA8409652E84E1
:1028600002C0C93F9146631FD502B7270240984B6B
:1028700009651367170098CB1317040141839AA0C9
:10288000553F9146B7270240631BD500890426C0F7
:1028900002474180096502A3713FB7270240984B68
:1028A000799B98CB11016FE05F80B7066745B7272A
:1028B0000240938636123797EFCDD4C31307B79AE9
:1028C000D8C3D4D3D8D38280372702401C4BA1660B
:1028D000D58F1CCB8280B70700F8AA97116763F6E3
:1028E000E702B7270240984BB7060200558F98CBF6
:1028F000C8CB984B1367070498CBD847058B75FF57
:10290000984B8176FD16758F98CB8280944593F70E
:10291000060113F3F60081C7DC413363F30083D271
:10292000050093F7F20FA9CF0C41611122C226C016
:102930008147930380023D44930480040547331785
:10294000F70033F6E2006310C7026397760258C9B6
:10295000139627003317C4001347F7FF6D8F331604
:10296000C300B365E60085072147E399E7FC1244FD
:102970000CC1824421018280E39C96FC18C9C9BF26
:1029800082805C4533F5F5003335A00082800CC9A8
:1029900082804CC9828019C20CC982804CC9828055
:1029A00037070140144786058D47B397B70093C793
:1029B000F7FFF58F1CC71C473315B5005D8D08C7A1
:1029C000828023AEA1A8828003A7C1A985471421D4
:1029D0006310F7021C31639CE7023C219A0793E7DE
:1029E00007F837E700E093F7F70F36972300F74033
:1029F000054793D756003317D700544189CE9387A4
:102A000007048A07B7E600E0B69798C38280EDF323
:102A10003C219A07F9B793870706E5B737170240B5
:102A20001C430E0593F777F05D8D08C38280EFE2BB
:102A30002FE7371702405C43A1462A84B18B639F7E
:102A4000D7065C43B777DC02938707C01CC03716F4
:102A50000240544237070020130787029182BD8A43
:102A60003697082358429375F50F1377070833D527
:102A7000A70001E73E85EFE0EFE548C008C448C481
:102A8000B7170240DC438D46AD83FD8B13D737006B
:102A90008A07F18BD98F13F6370113F7370063F4E8
:102AA000C600138747FFB707002093874701BA97EF
:102AB0008C23EFE02FE208C86FE02FDFB7376E01FD
:102AC0009387076061B799C5371702405C4BC98F80
:102AD0005CCB8280B7170240D84B1345F5FF798D48
:102AE000C8CB828099C5371702401C4FC98F1CCFB5
:102AF0008280B7170240984F1345F5FF798D88CF34
:102B0000828099C5371702405C4FC98F5CCF8280A5
:102B1000B7170240D84F1345F5FF798DC8CF828093
:102B20001E218D669386060433F7D700B6219E21B9
:102B3000D58FD621D58FF621D58F9625D58FB62561
:102B4000D58FD625D58FF625D58FD98F1EA19E2955
:102B50001EA982801E2189C593E707041EA18280D9
:102B6000C207C18393F7F7FBC207C183C5BF4EA558
:102B700082804A2582800A256D8D3335A0008280AF
:102B80001E2137370140130707C0C207C183630600
:102B9000E500370700406316E500BA2193F7F7F820
:102BA000D98FFA2193F7F7CFC207C183D98F1EA11E
:102BB000DE215EB59E211EB5B7370140938707C061
:102BC0006314F5009C251EB985475EA982801E21ED
:102BD00089C593E717001EA18280C207C183F99BB4
:102BE000C207C183CDBF5E2501C6CD8F5EA58280A1
:102BF00093C5F5FFED8FDDBF93C5F5FFC205C1811C
:102C00000EA982801E294A25ED8F4205418189C780
:102C10006D8D3335A00082800145828093C5F5FF1C
:102C2000C205C1810EA98280EFE28FC71629F57710
:102C3000FD17FD8EFE21DA252111D58F1EA95625FF
:102C4000FD779387379FFD8EDE212A84AE84D58F52
:102C50009625D58FB625D58F5EA55E29C207C1837F
:102C600093F7F7CFD98F5EA94800EFF05FDCB74745
:102C70000140938707806313F406C247139517003A
:102C80005A243E950E053E9593170701C1878C4047
:102C900063D807048605EFE0EFC3930540062AC01A
:102CA000EFE04FC3824793144500930540063E85ED
:102CB000EFE00FC55E24C207C18763D507020E058A
:102CC0009305400613052503EFE0CFC01D89C98C8D
:102CD000C204C18006A461016FE02FBDB24779BF75
:102CE0008A0555BF12059305400613052503EFE03D
:102CF0006FBE3D89E9BF5E2589C50967D98F5EA58D
:102D0000828079777D17F98FDDBF13F7F50F85473F
:102D10001583B395B7006319F7009307C50098436F
:102D200001CE4D8F98C38280894693074501E318F1
:102D3000D7FE93070501E5B793C5F5FFF98D8CC361
:102D400082805E2901C6CD8F5EA9828093C5F5FF82
:102D5000ED8FDDBF93F5F51F4EA182804A211375DB
:102D6000F51F82800A216D8D3335A000828013F714
:102D7000F50F85461583AA873395B6006310D702F1
:102D8000DA279E23798DC207C18301C9A181054736
:102D90003317B700F98F3335F0008280894663140A
:102DA000D7009A2BF9BFDA2BE9BFA1818547B397EA
:102DB000B70093C7F7FFC207C1831EA18280EFE26D
:102DC0002FAEB707002003A50701B7157A0093853A
:102DD0000520EFE02FB01375F50F2381A1AA9317FB
:102DE0005500898F8A073E950E052390A1AA6FE0B2
:102DF000CFABEFE2EFAA37F400E05C40AA85F99B85
:102E00005CC003C521AAEFE0EFAA08C82324040090
:102E10001C4093E717001CC0B7F700E0D843058BB0
:102E200075DF9843799B98C36FE02FA8EFE24FA717
:102E300037F400E05C40AA85F99B5CC003D501AA89
:102E4000EFE04FA708C8232404001C4093E71700B5
:102E50001CC0B7F700E0D843058B75DF9843799B1A
:102E600098C36FE08FA4AA879823850775FF3385E1
:102E7000A7407D15828000002D2D2D2D2D20414D48
:102E80004F4E204C696E6B202D2D2D2D2D0D0A00DF
:102E90004465766963652049443A2000436F6E6E4D
:102EA000656374696F6E204641494C4544210D0AA3
:102EB000000000000000000000E7E7E7E7E700008F
:102EC00000000000000000002803010100000000D5
:102ED0000000000001000000E7E7E7E7E70000006E
:102EE00000000000000000000000000028030101B5
:0C2EF000030010000000000000000000C3
:102EFC00010203040506070801020304050607087E
:102F0C00006CDC020204060804080C1008101820DF
:102F1C0010203040204060800102030405060708A1
:082F2C00010203040506070879
:0400000300001000E9
:00000001FF
