:100000006F00F00F0000000032010000340100001A
:1000100000000000000000000000000000000000E0
:1000200000000000000000000000000000000000D0
:10003000FC08000000000000FC08000000000000B8
:10004000FC080000FC080000FC080000FC080000A0
:10005000FC080000FC080000FC080000FC08000090
:10006000FC080000FC080000FC080000FC08000080
:10007000FC080000FC080000FC080000FC08000070
:1000800070060000FC080000FC080000FC080000EE
:10009000FC080000FC080000FC0800000000000054
:1000A000511126C022C206C4828282441244A24058
:1000B00031018280634E050263C305042E86AA8542
:1000C0007D5515C285466378B6006356C0000606A6
:1000D0008606E36CB6FE014563E4C500918D558D3F
:1000E00085820582F5FA82808682C93F2E858282CA
:1000F0003305A04063D70500B305B040C1B7B305D1
:10010000B0408682653F3305A0408282868263C705
:100110000500634905005D372E858282B305B04036
:10012000E35B05FE3305A040513F3305B0408282BA
:10013000000001A037E700E0B707EFBE938707088C
:100140003CC701A001479307F00763EBE700B7073F
:10015000002093878703BA97238007000507E5B738
:1001600082809387818823800700A38007002381F2
:100170000700A38107002392070882801821938734
:10018000818898A31431F91693F6F60F94B33821A9
:10019000B8A33831B8B3894763E0D7029387260004
:1001A000AA979C238D063695182122075D8F938789
:1001B00081882392E70882800147E351D7FE9307A5
:1001C0004700AA97902393878188BA97D0A3050701
:1001D000EDB70146C167FD171DA085837D17137715
:1001E000F70F19CB93F61700EDDA8583E9768506CC
:1001F000B58FC207C183DDB7050642064182637829
:10020000B6003307C5001823B98F2147D9BF3E85F3
:100210008280EFF2FFE8511102C002C202C485459C
:1002200013051003EF00302F85477C800D4422C258
:10023000C14426C48A8537150140EF00D00E85479A
:100240007C8022C226C48A85B717014013850740E7
:10025000EF00700D648022C2930780023EC48A853D
:10026000B717014013850740EF00F00B310135BD92
:10027000EFF21FE31301C1FD02CC02CE02D002C493
:1002800002C602C802CA02C002C285451165130532
:100290001502EF005028B7070140D843B706E0FF2A
:1002A000ED16758FD8C3D843B7062000558FD8C335
:1002B00093070004FC848D4426CEE1473ED02C08F1
:1002C0003714014013050440EF00F00593070002C6
:1002D000FC8426CE91473ED02C0813050440EF0045
:1002E0009004F167938707203EC42316010023176B
:1002F000010023180100231A0100B147FC812C00E2
:100300003744014013050480EF00D02605469305CD
:10031000505213050480EF00F036930700025C8012
:100320008547DC802301010085473EC20A85EF0036
:100330009007854513050480EF00503313014102F7
:10034000ADB3EFF2FFD5A525056419A0130404048D
:100350009167F91763EB87002285EF00C06DEF000E
:1003600080678547E30DF5FED5B7B92D3DBBEFF2AC
:100370003FD361112AC02EC2B284152D014421A0A1
:1003800011044204418063799402924733878700C5
:100390001C230C33A205CD8F2C23C205CD8F2C330B
:1003A000E205DD8D82473305F400EF00606C252502
:1003B0008547E30EF5FEE9B7012D2101FDB1EFF20E
:1003C0003FCE71112AC0AE84014429A88247A2976A
:1003D0008C233745014013050580EF00102E0504DE
:1003E00042044180637C9400930500083745014036
:1003F00013050580EF00702D65D9C9BF110175B1D6
:10040000EFF21FCA9307800873B007300F10000087
:10041000B7E700E0054723A2E72837450140130569
:100420000580EF0010133715014013050540EF005C
:10043000206A37150140EF00A06981451165130559
:100440001503EF00500D0565EF00B02E730020304E
:1004500001A0EFF2FFC4AA84293326850533138453
:1004600081880C30850513851400A5338357440813
:100470006380A704B7070020138487039307A0FABB
:100480001CA095471CB0854424A0930710F83CB0ED
:1004900044A09545130514002D3B48B09305000872
:1004A000B707002013858703193FA3019408F5BE01
:1004B000513993878188B823C147E31AF7FE9387A0
:1004C0008188BC3309476382E70E6370F7060D47E6
:1004D000639FE70893858188DC21C8312205C98F95
:1004E000E8214205C98FE83162051306C007A1055E
:1004F0005D8DB53DB7040020138484039307A0FAF3
:100500001CA095471CB085473CA0930700F83CB061
:10051000C1475CA0954513051400653948B09305A3
:10052000000813858403613D59B70547E391E7F857
:10053000B7040020138484039307A0FA1CA09547F6
:100540001CB085473CA0130700F838B0094758A0F5
:100550005CB0954513051400AD39935785007CA018
:1005600068B09305000813858403913D89B715474A
:10057000E39FE7F2B7040020138484039307A0FAF3
:100580001CA095471CB085473CA0930700F83CB0E1
:100590008D475CA0954513051400253948B0930597
:1005A000000813858403213DA13D613BB704002071
:1005B000138484039307A0FA1CA095471CB08547B9
:1005C0003CA0930700F83CB091451305140011318D
:1005D00048A09305000813858403D533C9BDEFF205
:1005E0003FAC812C3D316931B707002093878703E9
:1005F000A381070823810708A3800708C145371591
:10060000014013050540612385476308F500014655
:100610008545371501405923E5330546854537158E
:100620000140130505409D2B0DA037050020130444
:10063000850313058503313D23010408213639A8BC
:100640000546854537150140912BB7070020938754
:10065000870303C727088547E309F7FCB70700208E
:100660009387870303C737088547E310F7FEC9BFA1
:10067000930550523745014013050580EF00D00522
:1006800019E1730020303745014013050580EF0064
:1006900050031375F50F138741881423B707002003
:1006A00093878703B69788A3850693F6F60F14A35E
:1006B0009307A00A6304F504B70700209387870314
:1006C00003C7070885476308F70483C75188138762
:1006D0001700635CD70091CBB7070020938787038F
:1006E00005472381E7082382018893055052374547
:1006F000014013050580EF00500261B783C75188A0
:10070000C5FFB70700209387870305472380E708C5
:1007100023810708D9BF83C75188C5FBA382A1885D
:10072000B707002093878703238007087DBFEFF278
:100730003F97B7F7FF1F03C5477D9307F00F63147B
:10074000F506B72702409843719B98C398431367F7
:10075000170098C3B7170240D843D8C3D843C1760F
:10076000FD16758FD8C3D843D8C39843B706000188
:10077000558F98C3B71702409C4313976700E35BFC
:1007800007FEB7170240D843719BD8C3D8431367FD
:100790002700D8C3B7170240DC43B18B2147E39B46
:1007A000E7FE6FF09F907D89492161BFEFF25F8F77
:1007B000371702401C4F93E707021CCFB7170140C1
:1007C0009386074003A707401377F7F023A0E7407D
:1007D00003A707401367070823A0E74089479CCA7F
:1007E000B9376FF09F8CEFF2BF8BB7170240984379
:1007F0001367170098C3D843B706FFF8758FD8C39F
:100800009843B706F7FEFD16758F98C39843B70651
:10081000FCFFFD16758F98C3D843C176FD16758F02
:10082000D8C337079F0098C74145012141376FF072
:10083000DF87B7170240DC43B18B11476385E706BA
:100840002147638BE70691CB37070020B7376E014E
:10085000938707602328F70009A837070020B737D8
:100860006E01938707602328F700B7160240DC4229
:10087000918313F7F700B707002093870700BA9713
:100880008C2393F5F50FDC4293F70708B9EFEFF2ED
:100890003F8137040020130404010840EFF01F8259
:1008A00008C06FF09F8037070020B7376E0193872D
:1008B00007602328F70055BFB7170240DC431397A2
:1008C000F700634B070037070020B777DC029387F8
:1008D00007C02328F70051BF37070020B777DC0295
:1008E000938707C02328F70049B7B70700209387ED
:1008F00007019843B355B7008CC3828001A09701CC
:1009000000209381A1F3138181FC1305000A97F560
:10091000FF1F9385256F17F6FF1F1306A66E63FA58
:10092000C5008322050023A0550011059105E3EAC7
:10093000C5FE170500001305656097F5FF1F938539
:10094000656C17F6FF1F1306666F63FAC5008322F6
:10095000050023A0550011059105E3EAC5FE17F532
:10096000FF1F1305A56D938541916377B500232083
:1009700005001105E36DB5FEB722000093820288E1
:10098000739002308D427390428097F2FFFF938202
:10099000626793E2320073905230EFF0DFE4970227
:1009A0000000938202C47390123473002030372702
:1009B0000240B7076745938737125CC3B797EFCDFF
:1009C0009387B79A5CC38280372702401C4B93E71A
:1009D00007081CCB8280B7270240DC47858B81EB60
:1009E000B7270240DC47C18B89C70D45828005458A
:1009F000828011458280B7270240DC47858B81EBDE
:100A0000B7270240DC47C18B89C70D458280054569
:100A1000828011458280EFF2AFE82A84E93F854762
:100A20006316F50001C4C13F7D14D5BF19C06FF036
:100A3000CFE71545EDBFEFF2AFE6AA8437050B000F
:100A4000D93F91476304F5006FF02FE63724024049
:100A50001C4893E727001CC844C81C4893E70704B8
:100A60001CC837050B00453F1C48F59B1CC8E9BF57
:100A7000EFF20FE37111AA842E8402C00965613F71
:100A800091476305F50011016FF02FE2372702400F
:100A90001C4B93E717001CCB93170401C1839EA046
:100AA0000965953F91476308F500372702401C4BC5
:100AB000F99B1CCBC9BF890426C08247418082A311
:100AC0000965913F372702401C4BF99B1CCB65BF42
:100AD000EFF20FDDB717014093870780630EF50033
:100AE000B71701406301F502B7170140938707402C
:100AF0006302F5026FF06FDB85451145252C8145BA
:100B000011450D2CC5BF854541452D2481454145E5
:100B10001524CDB7854513050002292C8145130501
:100B20000002092CC1BF9C4513F6F700C18B99C385
:100B3000DC415D8E9C21B9CB03230500014719A040
:100B40005CC905079D4763E1E7048547B397E70064
:100B50009621FD8EE397D7FE93122700BD46B396EC
:100B6000560093C6F6FFB3F66600331356003363A0
:100B7000D300944593028002E38456FC93028004E0
:100B8000E39156FC1CC975BF2320650082801C457B
:100B9000FD8D99C1054582800145828019C20CC92D
:100BA00082804CC9828003A7019185476302F702C6
:100BB0005C41A1CF1821935757008546B396E600B4
:100BC000938707048A0737E700E0BA9794C38280C7
:100BD0001C310547638EE700E1FF14213C219A0791
:100BE00093F7F70F37E700E036972300F740C9B7D0
:100BF00014213C219A0793E707F893F7070C37E78E
:100C000000E036972300F74065B718219357570047
:100C10008546B396E600938707068A0737E700E024
:100C2000BA9794C30F1000008280371702401C430C
:100C300093F777F00E055D8D08C38280EFF24FC603
:100C40002A84B7170240DC43B18B11476385E7085C
:100C500021476388E70899C7B7376E019387076014
:100C60001CC131A0B7376E01938707601CC1B7164E
:100C70000240DC42918313F7F700B7070020938707
:100C80008702BA978C2393F5F50FDC4293F7070898
:100C9000A5EF0840EFF08FC248C0484008C448C4E0
:100CA000B7170240DC43AD83FD8B13D737008A07AB
:100CB000F18BD98F93F637010D47637CD704D11799
:100CC0003707002013074701BA978C23EFF00FBFB7
:100CD00008C86FF08FBDB7376E01938707601CC1DE
:100CE00079B7B7170240DC431397F7006348070052
:100CF000B777DC02938707C01CC195BFB777DC02CA
:100D0000938707C01CC1A5B71C40B3D5B7004CC022
:100D100069B78D8B75B799C5371702401C4F5D8D2C
:100D200008CF8280371702401C4F1345F5FF7D8D99
:100D300008CF828099C5371702405C475D8D48C750
:100D40008280371702405C471345F5FF7D8D48C709
:100D50008280B7470140938707806303F500828054
:100D6000EFF20FB485451165F13781451165D9372B
:100D70006FF0AFB3EFF2CFB221112A84AE841629FF
:100D8000FA21F577FD17F58FD98F1EA95225D621A7
:100D90009A25BE25D98ED58F7D771307379F718F02
:100DA000D98F5EA55E29C207C183DA2593F7F7CFF5
:100DB000D98F5EA948005935B7470140938707800E
:100DC000630DF406B2475A24420741876349070678
:100DD000139717003E97131537008C408A053E95F0
:100DE000EFF0CFADAA84930540062685EFF00FAD56
:100DF000931745003EC0B7070010FD177D8D1317F0
:100E000015002A97931737003E95931725009D8C60
:100E10005E24C207C18763C007049204930540069D
:100E200013852403EFF08FA93D8982475D8D42052C
:100E300041810AA461016FF04FA7C24769B71397B8
:100E400017003E97131537008C4086053E95EFF04E
:100E5000EFA6AA8449BF8E04930540061385240398
:100E6000EFF0CFA51D8982475D8DD1B791C55E2575
:100E70000967D98F5EA582805A25F977FD17F98F0A
:100E80005EA5828093F7F50F95830547B315B700EC
:100E9000638BE7000947638AE700510509CA1C41D3
:100EA000DD8D0CC182803105D5BF4105C5BF1C4118
:100EB00093C5F5FFFD8D0CC1828093F5F51F4EA102
:100EC00082804A211375F51F82801E21FD8D99C1F4
:100ED000054582800145828093F7F50F958385460D
:100EE0003397B6006381D70289466381D7025E29B2
:100EF0007D8FA1818547B395B7001E21FD8D11CB54
:100F000099E9014582805E257D8FE5B71E297D8F99
:100F1000CDB70145828005458280A1818547B39781
:100F2000B700C207C18393C7F7FFC207C1831EA1E1
:080F30008280731015348280E9
:100F38000102030405060708010203040506070861
:100F4800006CDC020204060804080C1008101820C3
:100F58001020304020406080010203040506070885
:080F680001020304050607085D
:00000001FF
