:100000006F00D01300000000320100003401000036
:1000100000000000000000000000000000000000E0
:1000200000000000000000000000000000000000D0
:100030003A090000000000003A090000000000003A
:100040003A0900003A0900003A0900003A090000A4
:100050003A0900003A0900003A0900003A09000094
:100060003A0900003A0900003A0900003A09000084
:100070003A0900003A0900003A0900003A09000074
:10008000B60200003A0900003A0900003A090000EF
:100090003A0900003A0900003A0900000000000097
:1000A000511126C022C206C4828282441244A24058
:1000B00031018280634E050263C305042E86AA8542
:1000C0007D5515C285466378B6006356C0000606A6
:1000D0008606E36CB6FE014563E4C500918D558D3F
:1000E00085820582F5FA82808682C93F2E858282CA
:1000F0003305A04063D70500B305B040C1B7B305D1
:10010000B0408682653F3305A0408282868263C705
:100110000500634905005D372E858282B305B04036
:10012000E35B05FE3305A040513F3305B0408282BA
:10013000000001A037E700E0B707EFBE938707088C
:100140003CC701A0EFF2DFF5511102C002C202C4A8
:10015000854513051003EF00104185477C800D4451
:1001600022C2C14426C48A8537150140EF00B02061
:1001700085477C8022C226C48A85B7170140138533
:100180000740EF00501F648022C2930780023EC4E4
:100190008A85B717014013850740EF00D01D310154
:1001A00029B7EFF2FFEF1301C1FD02CC02CE02D05E
:1001B00002C402C602C802CA02C002C28545116555
:1001C00013051502EF00303AB7070140D843B706D0
:1001D000E0FFED16758FD8C3D843B7062000558FC2
:1001E000D8C393070004FC848D4426CEE1473ED05B
:1001F0002C083714014013050440EF00D017930773
:100200000002FC8426CE91473ED02C081305044002
:10021000EF007016F167938707203EC42316010094
:100220002317010023180100231A0100B147FC81A4
:100230002C003744014013050480EF00B038054618
:100240009305505213050480EF00D0489307000235
:100250005C808547DC802301010085473EC20A851A
:10026000EF007019854513050480EF003045130138
:10027000410225BDEFF2DFE271112AC0AE840144D4
:1002800029A88247A2978C23374501401305058092
:10029000EF00B047050442044180637C940093055D
:1002A00000083745014013050580EF00104765D968
:1002B000C9BF1101DDBB93055052374501401305FD
:1002C0000580EF00704619E173002030374501408A
:1002D00013050580EF00F0431375F50FB7070020F5
:1002E000238CA7029307A00A6304F502B707002036
:1002F0009387870303C7070885476305F7029305BC
:1003000050523745014013050580EF0010466DBF80
:10031000B70700209387870305472380E708A3805A
:100320000708F1BFB70700209387870323800708DA
:10033000F9B701479307F00763EBE700B707002021
:1003400093878703BA97238007000507E5B7828064
:100350009387418923800700A3800700238107003A
:1003600001479307F00363E9E70093874189BA9750
:10037000A38107000507F5B79387418923920704F6
:1003800082801431F91693F6F60F9387418994A36E
:10039000382198B33831B8A3894763E0D7029387EF
:1003A0002600AA979C238D063695182122075D8F7B
:1003B000938741892392E70482800147E351D7FE66
:1003C00093074700AA97902393874189BA97B0B3C0
:1003D0000507EDB703274508B7470008938707FCD3
:1003E0006308F706EFF2DFCB71112EC0AA84212536
:1003F000130510032D2503A54408EF00C068014430
:1004000021A011041374F40F9307F00363E987022A
:100410008247338787001C230C33A205CD8F2C2302
:10042000C205CD8F2C33E20503A54408DD8D22954E
:10043000EF000069CD2B8547E30EF5FED9B7C92B38
:1004400083A744089387070423A2F4081101B1B9D4
:100450008280B747000883C707FC1CA18280B7478A
:10046000000883A747FC5CC18280EFF27FC3AA84A7
:10047000592313051003652337440008130504FCB2
:1004800019258C20130504FC252DCC40130544FCB4
:10049000052DBD2B19B90146C167FD171DA0858328
:1004A0007D171377F70F19CB93F61700EDDA8583D5
:1004B000E9768506B58FC207C183DDB7050642061A
:1004C00041826378B6003307C5001823B98F2147EE
:1004D000D9BF3E858280EFF2BFBC9307800873B01E
:1004E00007300F100000B7E700E0054723A2E72818
:1004F0003745014013050580EF00B00A371501406C
:1005000013050540312D37150140192D8145116521
:1005100013051503EF0030050565EF009026730005
:10052000203001A0EFF2DFB7AA841D352685913D6A
:10053000138441890C2013851400B13F8357440470
:10054000638CA702B7040020138484039307A0FAE6
:100550001CA095471CB085473CA0130710F838B085
:100560005CA09145130514003D3748B09305000881
:1005700013858403013315BE6D3B938741899833FE
:10058000C147E31AF7FE93874189BC230D4763896E
:10059000E70C6362F7060547E39FE7FCB70400201A
:1005A000138484039307A0FA1CA0AD471CB0054731
:1005B00038A0930700F83CB089475CA058B07CA0F5
:1005C0009387C188DC4313D7870178B013D707011D
:1005D00018A413D7870018B43CA4A9451305140028
:1005E0005D3D935785003CB448A4930500081385EE
:1005F0008403493149B715476385E70A1947E39CE6
:10060000E7F6138741893C331386C1881CA25C231B
:10061000E2075433C206D58F7423A206D58F7833F0
:10062000D98F5CC21385C1888935B7040020138433
:1006300084039307A0FA1CA095471CB085473CA0F3
:10064000930700F83CB08D475CA09145130514005A
:10065000993548B093050008138584032139A53DD9
:10066000B704002013848403938541898D05138585
:1006700084038D339307A0FA1CA095471CB08547CF
:100680003CA0930700F83CB0C1475CA0914513051E
:100690001400113548B09305000813858403D93E32
:1006A000D9BDB7040020138484039307A0FA1CA0CB
:1006B00095471CB085473CA0930700F83CB08D4798
:1006C0005CA0914513051400F93348B09305000868
:1006D0001385840345360135EFF29F9C512A9D34E2
:1006E000C934292623A4A1881385C1888D3B13858D
:1006F000C1888533B707002093878703A380070845
:10070000238007083717000823A2E708C1453715DB
:10071000014013050540E12185476307F50003C744
:10072000C1888547631EF702054685453715014098
:1007300013050540652919A8370500201304850312
:1007400013058503C533A3000408E536B707002069
:100750009387870303C717088547E319F7FEE9BFA7
:1007600001468545371501405121B533EFF25F93BE
:10077000B7F7FF1F03C5477D9307F00F6314F50616
:10078000B72702409843719B98C39843136717009B
:1007900098C3B7170240D843D8C3D843C176FD16D3
:1007A000758FD8C3D843D8C39843B7060001558F77
:1007B00098C3B71702409C4313976700E35B07FE9B
:1007C000B7170240D843719BD8C3D843136727009B
:1007D000D8C3B7170240DC43B18B2147E39BE7FE48
:1007E0006FF0BF8C7D89512961BFEFF27F8B371786
:1007F00002401C4F93E707021CCFB71701409386B6
:10080000074003A707401377F7F023A0E74003A7AB
:1008100007401367070823A0E74089479CCAB937F8
:100820006FF0BF88EFF2DF87B71702409843136776
:10083000170098C3D843B706FFF8758FD8C39843FD
:10084000B706F7FEFD16758F98C39843B706FCFFF1
:10085000FD16758F98C3D843C176FD16758FD8C322
:1008600037079F0098C74145092941376FF0FF833B
:10087000B7170240DC43B18B11476385E706214778
:10088000638BE70691CB37070020B7376E0193875C
:1008900007602328F70009A837070020B7376E0143
:1008A000938707602328F700B7160240DC42918344
:1008B00013F7F700B707002093870700BA978C2338
:1008C00093F5F50FDC4293F70708B9EFEFF24FFD10
:1008D00037040020130404010840EFF02FFE08C085
:1008E0006FF0AFFC37070020B7376E0193870760C2
:1008F0002328F70055BFB7170240DC431397F700D2
:10090000634B070037070020B777DC02938707C0E7
:100910002328F70051BF37070020B777DC02938701
:1009200007C02328F70049B7B707002093870701BE
:100930009843B355B7008CC3828001A09701002073
:100940009381C1EF138181FC1305000A97F5FF1F06
:100950009385456B17F6FF1F1306C66A63FAC50039
:100960008322050023A0550011059105E3EAC5FE89
:10097000170500001305856197F5FF1F93858568AE
:1009800017F6FF1F1306866B63FAC5008322050066
:1009900023A0550011059105E3EAC5FE17F5FF1FD9
:1009A0001305C5699385018E6377B5002320050083
:1009B0001105E36DB5FEB7220000938202887390A3
:1009C00002308D427390428097F2FFFF93828263E0
:1009D00093E2320073905230EFF0DFE497020000B0
:1009E0009382C2CF7390123473002030B7F7FF1F89
:1009F00003A5477C828037270240B7076745938766
:100A000037125CC3B797EFCD9387B79A5CC38280E8
:100A1000372702401C4B93E707081CCB8280B7277F
:100A20000240C8C78280B7270240DC47858B81EB34
:100A3000B7270240DC47C18B89C70D458280054539
:100A4000828011458280B7270240DC47858B81EB8D
:100A5000B7270240DC47C18B89C70D458280054519
:100A6000828011458280EFF2AFE32A84E93F854717
:100A70006316F50001C4C13F7D14D5BF19C06FF0E6
:100A8000CFE21545EDBFEFF2AFE1AA8437050B00C9
:100A9000D93F91476304F5006FF02FE137240240FE
:100AA0001C4893E727001CC844C81C4893E7070468
:100AB0001CC837050B00453F1C48F59B1CC8E9BF07
:100AC000EFF20FDE7111AA842E8402C00965613F26
:100AD00091476305F50011016FF02FDD37270240C4
:100AE0001C4B93E717001CCB93170401C1839EA0F6
:100AF0000965953F91476308F500372702401C4B75
:100B0000F99B1CCBC9BF890426C08247418082A3C0
:100B10000965913F372702401C4BF99B1CCB65BFF1
:100B2000EFF20FD8B717014093870780630EF500E7
:100B3000B71701406301F502B717014093870740DB
:100B40006302F5026FF06FD685451145252C81456E
:100B500011450D2CC5BF854541452D248145414595
:100B60001524CDB7854513050002292C81451305B1
:100B70000002092CC1BF9C4513F6F700C18B99C335
:100B8000DC415D8E9C21B9CB03230500014719A0F0
:100B90005CC905079D4763E1E7048547B397E70014
:100BA0009621FD8EE397D7FE93122700BD46B3969C
:100BB000560093C6F6FFB3F6660033135600336350
:100BC000D300944593028002E38456FC9302800490
:100BD000E39156FC1CC975BF2320650082801C452B
:100BE000FD8D99C1054582800145828019C20CC9DD
:100BF00082804CC9828003A7C18D85476302F702BA
:100C00005C41A1CF1821935757008546B396E60063
:100C1000938707048A0737E700E0BA9794C3828076
:100C20001C310547638EE700E1FF14213C219A0740
:100C300093F7F70F37E700E036972300F740C9B77F
:100C400014213C219A0793E707F893F7070C37E73D
:100C500000E036972300F74065B7182193575700F7
:100C60008546B396E600938707068A0737E700E0D4
:100C7000BA9794C30F1000008280371702401C43BC
:100C800093F777F00E055D8D08C38280EFF24FC1B8
:100C90002A84B7170240DC43B18B11476385E7080C
:100CA00021476388E70899C7B7376E0193870760C4
:100CB0001CC131A0B7376E01938707601CC1B716FE
:100CC0000240DC42918313F7F700B70700209387B7
:100CD0008702BA978C2393F5F50FDC4293F7070848
:100CE000A5EF0840EFF08FBD48C0484008C448C495
:100CF000B7170240DC43AD83FD8B13D737008A075B
:100D0000F18BD98F93F637010D47637CD704D11748
:100D10003707002013074701BA978C23EFF00FBA6B
:100D200008C86FF08FB8B7376E01938707601CC192
:100D300079B7B7170240DC431397F7006348070001
:100D4000B777DC02938707C01CC195BFB777DC0279
:100D5000938707C01CC1A5B71C40B3D5B7004CC0D2
:100D600069B78D8B75B799C5371702401C4F5D8DDC
:100D700008CF8280371702401C4F1345F5FF7D8D49
:100D800008CF828099C5371702405C475D8D48C700
:100D90008280371702405C471345F5FF7D8D48C7B9
:100DA0008280B7470140938707806303F500828004
:100DB000EFF20FAF85451165F13781451165D937E0
:100DC0006FF0AFAEEFF2CFAD21112A84AE841629B9
:100DD000FA21F577FD17F58FD98F1EA95225D62157
:100DE0009A25BE25D98ED58F7D771307379F718FB2
:100DF000D98F5EA55E29C207C183DA2593F7F7CFA5
:100E0000D98F5EA948005935B747014093870780BD
:100E1000630DF406B2475A24420741876349070627
:100E2000139717003E97131537008C408A053E959F
:100E3000EFF0CFA8AA84930540062685EFF00FA80F
:100E4000931745003EC0B7070010FD177D8D13179F
:100E500015002A97931737003E95931725009D8C10
:100E60005E24C207C18763C007049204930540064D
:100E700013852403EFF08FA43D8982475D8D4205E1
:100E800041810AA461016FF04FA2C24769B713976D
:100E900017003E97131537008C4086053E95EFF0FE
:100EA000EFA1AA8449BF8E0493054006138524034D
:100EB000EFF0CFA01D8982475D8DD1B791C55E252A
:100EC0000967D98F5EA582805A25F977FD17F98FBA
:100ED0005EA5828093F7F50F95830547B315B7009C
:100EE000638BE7000947638AE700510509CA1C4183
:100EF000DD8D0CC182803105D5BF4105C5BF1C41C8
:100F000093C5F5FFFD8D0CC1828093F5F51F4EA1B1
:100F100082804A211375F51F82801E21FD8D99C1A3
:100F2000054582800145828093F7F50F95838546BC
:100F30003397B6006381D70289466381D7025E2961
:100F40007D8FA1818547B395B7001E21FD8D11CB03
:100F500099E9014582805E257D8FE5B71E297D8F49
:100F6000CDB70145828005458280A1818547B39731
:100F7000B700C207C18393C7F7FFC207C1831EA191
:080F8000828073101534828099
:100F88000102030405060708010203040506070811
:100F9800006CDC020204060804080C100810182073
:100FA8001020304020406080010203040506070835
:080FB80001020304050607080D
:00000001FF
