:100000006F00F01700000000320100003401000012
:1000100000000000000000000000000000000000E0
:1000200000000000000000000000000000000000D0
:100030007C090000000000007C09000000000000B6
:100040007C0900007C0900007C0900007C0900009C
:100050007C0900007C0900007C0900007C0900008C
:100060007C0900007C0900007C0900007C0900007C
:100070007C0900007C0900007C0900007C0900006C
:10008000B60200007C0900007C0900007C09000029
:100090007C0900007C0900007C09000000000000D1
:1000A000511126C022C206C4828282441244A24058
:1000B00031018280634E050263C305042E86AA8542
:1000C0007D5515C285466378B6006356C0000606A6
:1000D0008606E36CB6FE014563E4C500918D558D3F
:1000E00085820582F5FA82808682C93F2E858282CA
:1000F0003305A04063D70500B305B040C1B7B305D1
:10010000B0408682653F3305A0408282868263C705
:100110000500634905005D372E858282B305B04036
:10012000E35B05FE3305A040513F3305B0408282BA
:10013000000001A037E700E0B707EFBE938707088C
:100140003CC701A0EFF2DFF5511102C002C202C4A8
:10015000854513051003EF00304585477C800D442D
:1001600022C2C14426C48A8537150140EF00D0243D
:1001700085477C8022C226C48A85B7170140138533
:100180000740EF007023648022C2930780023EC4C0
:100190008A85B717014013850740EF00F021310130
:1001A00029B7EFF2FFEF1301C1FD02CC02CE02D05E
:1001B00002C402C602C802CA02C002C28545116555
:1001C00013051502EF00503EB7070140D843B706AC
:1001D000E0FFED16758FD8C3D843B7062000558FC2
:1001E000D8C393070004FC848D4426CEE1473ED05B
:1001F0002C083714014013050440EF00F01B93074F
:100200000002FC8426CE91473ED02C081305044002
:10021000EF00901AF167938707203EC42316010070
:100220002317010023180100231A0100B147FC81A4
:100230002C003744014013050480EF00D03C0546F4
:100240009305505213050480EF00504B93070002B2
:100250005C808547DC802301010085473EC20A851A
:10026000EF00B01D854513050480EF00B047130172
:10027000410225BDA1C1EFF2BFE271112A8405053B
:10028000FD1593970501C183AA973EC0B74701406A
:1002900093840780930500082685EF00F04A7DD9F6
:1002A0000C202685EF00504905048247E314F4FE34
:1002B0001101E5BB8280930550523745014013057B
:1002C0000580EF00104919E17300203037450140E7
:1002D00013050580EF00D0461375F50F138781884D
:1002E0001423B707002093878703B69788A3850652
:1002F00093F6F60F14A39307A00A6307F50203C74A
:1003000001888547630FF70283C791881387170019
:100310006353D700A9EB93055052374501401305AD
:100320000580EF0050474DB783C791889DE3B7071D
:1003300000209387870305472380E708A3800708E9
:10034000D9BF83C7918889EFA384A18823800188BE
:10035000D9B703C701888547E318F7FA83C791889F
:100360008507E3DAD7FAB7070020938787030547A5
:10037000A380E70823840188A384018869BFB707A5
:1003800000209387870313870708238007008507CA
:10039000E39DE7FE82801387418923000700A300C5
:1003A0000700230107009307370013073704238052
:1003B00007008507E39DE7FE239C018C82800C31BA
:1003C000938741898CA3382198B33831B8A39147DA
:1003D00063FEB70093074500138771893306B500A4
:1003E000942314A385070507E39CC7FE2E951C31B3
:1003F000A2071821D98F239CF18C828003274508FE
:10040000B74700089387F7FB63F3E7008280EFF2BA
:100410003FC96111AE842A842AC2EF00E06D130542
:100420001003312503254408EF00C06F0544212542
:10043000E30F85FE02C005449C30A207AC20C20534
:10044000CD8F8C20CD8FAC30E205124703254708B5
:10045000DD8D82473E958925F92BE30F85FE824786
:1004600091073E873EC0910493070004E316F7FC12
:10047000EF00606A12478327470893870704232207
:10048000F70821011DB1EFF2BFC1AA84B5251305FC
:100490001003712B37450008130505FCEF00806839
:1004A0000544512BE30F85FE8C20374500081305CA
:1004B00005FCDD2305444123E30F85FECC40374591
:1004C0000008130545FCC92B0544B523E30F85FE41
:1004D0009925E1BEA1C52A8605059387F5FFC207C8
:1004E000C183B305F50041657D152143E976850695
:1004F0000DA00581FD1793F7F70F89CB1377150032
:100500006DDB0581358D42054181EDB7050663063A
:10051000B6001C223D8D9A87D5B7828041657D1536
:100520008280EFF2FFB79307800873B007300F1097
:100530000000B7E700E0054723A2E7283745014060
:1005400013050580EF00100A37150140130505401B
:10055000092D371501403125814511651305150316
:10056000EF0090040565EF0050247300203001A0D7
:10057000EFF21FB3AA84053526859135138441898E
:100580000C20FD15C205C18113851400A1378357C6
:100590004404638FA702B7040020138484039307E5
:1005A000A0FA1CA095471CB085473CA0130710F883
:1005B00038B05CA0914513051400293F48B0218153
:1005C00068A093050008138584036D314D3BF1BC91
:1005D0007D3303C75189C147E31BF7FE83C7618998
:1005E0000D476389E70C6360F7060547E391E7FE73
:1005F000B7040020138484039307A0FA1CA0AD471E
:100600001CB0054738A0930700F83CB089475CA0B0
:1006100058B07CA083A7018913D7870178B013D77E
:10062000070118A413D7870018B43CA4A9451305E3
:1006300014004D3528B4218148A493050008138582
:1006400084030D3969B715476388E70A1947E390B2
:10065000E7F81386C188138741893C331CA25C23C9
:10066000E2075433C206D58F7433D58F782322071F
:10067000D98F5CC21385C1883935B7040020138433
:1006800084039307A0FA1CA095471CB085473CA0A3
:10069000930700F83CB08D475CA09145130514000A
:1006A000153D48B0218168A0930500081385840397
:1006B000D136853DB7040020138484039385718966
:1006C00013858403253B9307A0FA1CA095471CB013
:1006D00085473CA0930700F83CB0C1475CA091451A
:1006E00013051400C53B48B0218168A0930500089C
:1006F000138584034136E1BDB704002013848403CD
:100700009307A0FA1CA095471CB085473CA093070F
:1007100000F83CB08D475CA09145130514005D3B8B
:1007200048B0218168A09305000813858403993699
:10073000CD3BEFF2FF96952A3134A53437470008B8
:10074000832647FC9387C188D4C3034707FC98A33B
:10075000B707002093878703A38007082380070833
:100760003717000823A2E708C145371501401305D4
:100770000540552985476307F50003C7C1888547AC
:10078000631BF702054685453715014013050540F3
:100790004521370400201304840331A02285C93B7E
:1007A000A3000408E93E05478347140893F7F70FB1
:1007B000E39CE7FEE5B701468545371501408D29E5
:1007C0008D33EFF2FF8D371402401C4093E7170082
:1007D0001CC05C403707FFF8F98F5CC01C4037072E
:1007E000F7FE7D17F98F1CC01C403707FCFF7D17F3
:1007F000F98F1CC05C4041777D17F98F5CC0B7074B
:100800009F001CC4414565291C4C93E707021CCC82
:10081000B71701409386074003A707401377F7F007
:1008200023A0E74003A707401367070823A0E7407A
:1008300089479CCAB7F7FF1F03C5477D9307F00F91
:100840006312F506B72702409843719B98C39843FB
:100850001367170098C3B7170240D843D8C3D843CB
:10086000C176FD16758FD8C3D843D8C39843B70651
:100870000001558F98C3984393166700E3DD06FE89
:10088000B7170240D843719BD8C3D84313672700DA
:10089000D8C3B71602402147DC42B18BE39EE7FE86
:1008A0006FF0BF807D89212971BFB7170240DC43FB
:1008B000B18B11476387E7062147638DE70691CB2C
:1008C00037070020B7376E01938707602328F700AA
:1008D00009A837070020B7376E01938707602328E0
:1008E000F700B7160240DC42918313F7F700B70711
:1008F000002093870700BA978C2393F5F50FDC420D
:1009000093F70708ADE3EFF2AFF9B707002003A5AF
:100910000701EFF0AFFAB707002023A8A7006FF098
:10092000CFF837070020B7376E0193870760232879
:10093000F70045BFB7170240DC431397F700634B3E
:10094000070037070020B777DC02938707C023280A
:10095000F70041BF37070020B777DC02938707C055
:100960002328F700BDBFB707002003A507013355B3
:10097000B500B707002023A8A700828001A0970137
:1009800000209381A1EB138181FC1305000A97F5E8
:10099000FF1F9385256717F6FF1F1306A66663FAE8
:1009A000C5008322050023A0550011059105E3EA47
:1009B000C5FE170500001305E55F97F5FF1F93853A
:1009C000656417F6FF1F1306666763FAC500832286
:1009D000050023A0550011059105E3EAC5FE17F5B2
:1009E000FF1F1305A5659385018E6377B50023204E
:1009F00005001105E36DB5FEB72200009382028861
:100A0000739002308D427390428097F2FFFF938281
:100A1000625F93E2320073905230EFF09FDA9702F8
:100A20000000938242D17390123473002030B727B4
:100A30000240C8C78280B7270240DC47858B054546
:100A400081EBB7270240C8474189133515000D05D2
:100A50008280B7270240DC47858B054581EBB727AD
:100A60000240C8474189133515000D058280EFF219
:100A70002FE32A84F93F8547631BF50019C4854499
:100A8000C93F7D146315950065FC154511A019C07B
:100A90006FF0AFE11545EDBFEFF28FE07111AA8461
:100AA0002E8402C00965E13791476305F500110105
:100AB0006FF0AFDF372702401C4B93E717001CCBCA
:100AC00093170401C1839EA00965553791476308B8
:100AD000F500372702401C4BF99B1CCBC9BF89048A
:100AE00026C08247418082A30965513737270240DB
:100AF0001C4BF99B1CCB65BFB7270240B706674567
:100B000093863612D4C33797EFCD1307B79AD8C35D
:100B1000D4D3D8D38280372702401C4BA166D58F0F
:100B20001CCB8280B70700F8AA97116763FAE70227
:100B3000B7270240984BB7060200558F98CBC8CB19
:100B4000984B1367070498CB372702405C47858B87
:100B5000F5FFB72602409C4A01777D17F98F9CCAA2
:100B60008280EFF2EFD3B717014093870780630EBF
:100B7000F500B71701406301F502B71701409387ED
:100B800007406302F5026FF04FD285451145252CD1
:100B9000814511450D2CC5BF854541452D24814515
:100BA00041451524CDB7854513050002292C814503
:100BB00013050002092CC1BF611122C226C09C4549
:100BC00013F4F700C18B99C3DC415D8C9C21A1CB50
:100BD000144181478543BD44A14229A050C98507DE
:100BE000638E57023396F3009A21718FE319E6FE64
:100BF000139727003393E4001343F3FFB376D30036
:100C00003317E400D98E984513038002E30867FC8C
:100C100013038004E31567FC10C9D1B714C1124453
:100C200082442101828008456D8D3335A000828089
:100C300019C20CC982804CC9828003A7C18D854727
:100C40006302F7025C41A1CF1821935757008546F4
:100C5000B396E600938707048A0737E700E0BA9760
:100C600094C382801C310547638EE700E1FF1421A5
:100C70003C219A0793F7F70F37E700E036972300F8
:100C8000F740C9B714213C219A0793E707F893F777
:100C9000F70F37E700E036972300F74065B71821D4
:100CA000935757008546B396E600938707068A0751
:100CB00037E700E0BA9794C30F100000828037171F
:100CC00002401C4393F777F00E055D8D08C38280C8
:100CD000EFF20FBD2A84B7170240DC43B18B1147F6
:100CE0006387E7082147638AE70899C7B7376E012A
:100CF000938707601CC131A0B7376E0193870760E7
:100D00001CC1B7160240DC42918313F7F700B70706
:100D1000002093878702BA9788239375F50FDC42EA
:100D200093F70708B5EF0840EFF04FB948C008C483
:100D300048C4B7170240DC43AD83FD8B13D737009F
:100D40008A07F18BD98F13F637018D4613F73700D9
:100D500063F4C600138747FFB70700209387470156
:100D6000BA978C23EFF08FB508C86FF00FB4B73780
:100D70006E01938707601CC169B7B7170240DC4357
:100D80001397F70063480700B777DC02938707C023
:100D90001CC185BFB777DC02938707C01CC195B71C
:100DA00008403355B50059B799C5371702401C4F55
:100DB0005D8D08CF8280B7170240984F1345F5FF2D
:100DC000798D88CF828099C5371702405C475D8D49
:100DD00048C78280B7170240D8471345F5FF798D81
:100DE000C8C78280B7470140938707806303F50037
:100DF0008280EFF2EFAA85451165F13781451165D3
:100E0000D9376FF08FAAEFF2AFA921112A84AE84EF
:100E10001A29F577FD17F98FFA21D98F1EA95A25BE
:100E2000FD779387379FF98FDA21D98F9A25D98F4C
:100E3000BA25D98F5EA55E29C207C18393F7F7CF84
:100E4000DA25D98F5EA948006135B74701409387FD
:100E500007806302F406B2475A2442074187634E73
:100E60000704139517003E950E058C408A053E95A4
:100E7000EFF0CFA42AC0930540060245EFF00FA47F
:100E800093144500930540060245EFF0EFA55E245C
:100E9000C207C18763CE07021205930540061305FA
:100EA0002503EFF0AFA13D89458D420541810AA49C
:100EB00061016FF08F9FC24745B7139517003E95AC
:100EC0000E058C4086053E95EFF04F9F2AC065B712
:100ED0000E059305400613052503EFF02F9E1D898F
:100EE000458DE1B791C55E250967D98F5EA58280E2
:100EF0005A25F977FD17F98F5EA5828093F7F50FD4
:100F000095830547B315B700638CE700894613073F
:100F10004501638AD70019CA1C43DD8D0CC382804A
:100F20001307C500CDBF13070501F5B71C4393C5D3
:100F3000F5FFFD8D0CC3828093F5F51F4EA18280D5
:100F40004A211375F51F82800A216D8D3335A0006B
:100F5000828093F7F50F958385463397B6006386B5
:100F6000D70289466386D7025E297D8F0A219317AF
:100F70000501C183014509CBA1810545B315B50024
:100F800033F5B7003335A00082805E257D8FF9BF31
:100F90001E297D8FE1BFA1818547B397B70093C715
:100FA000F7FFC207C1831EA18280731015348280AF
:100FB00001020304050607080102030405060708E9
:100FC000006CDC020204060804080C10081018204B
:100FD000102030402040608001020304050607080D
:080FE0000102030405060708E5
:00000001FF
