:100000006F00C076000000003201000034010000E3
:1000100000000000000000000000000000000000E0
:1000200000000000000000000000000000000000D0
:100030006A070000000000006A07000000000000DE
:100040006A0700006A0700006A0700006A070000EC
:100050006A0700006A0700006A0700006A070000DC
:100060006A0700006A0700006A0700006A070000CC
:100070006A0700006A0700006A0700006A070000BC
:100080002A0500006A0700006A0700006A070000EE
:100090006A0700006A0700006A070000000000000D
:1000A000511126C022C206C4828282441244A24058
:1000B00031018280634E050263C305042E86AA8542
:1000C0007D5515C285466378B6006356C0000606A6
:1000D0008606E36CB6FE014563E4C500918D558D3F
:1000E00085820582F5FA82808682C93F2E858282CA
:1000F0003305A04063D70500B305B040C1B7B305D1
:10010000B0408682653F3305A0408282868263C705
:100110000500634905005D372E858282B305B04036
:10012000E35B05FE3305A040513F3305B0408282BA
:10013000000001A0B707EFBE37E700E0938707088C
:100140003CC701A0C16769768146FD170506139774
:10015000060141836364B7003E8582803307D50082
:100160001823B98F214713F3170085836305030014
:10017000B18FC207C1837D171377F70F6DF785061F
:10018000F9B7EFF2FFF1B71700088443C0439307B4
:10019000800873B007300F100000B7E700E0054794
:1001A0003745014023A2E72813050580EF00F01929
:1001B0003715014013050540EF00807637150140E3
:1001C000EF0000761165814513051503EF0030142B
:1001D0002681029401A0EFF2BFECB7040020014495
:1001E00093848403B7470140138707803A859305BA
:1001F0000008EF00302AB7470140138707807DD5FC
:10020000338784000C23138507800504EF009027B3
:1002100093070008E318F4FC49BDEFF27FE81301EF
:10022000C1FCC52185451305100302D202D402D6B4
:10023000EF00F00D0D448544C1474C1037150140C7
:100240002312910222D43ED6EF00007223129102B3
:10025000B7140140C1474C101385044022D43ED648
:10026000EF008070C1472312F1024C109307800207
:10027000138504403ED622D4EF00006F11658545FA
:100280001305150202CC02CE02D002D202D402D64D
:1002900002D802C802CAEF009007B7070140D8434E
:1002A000B706E0FFED16758FD8C3D843B706200018
:1002B0002C08558FD8C393070004FC841385044091
:1002C000E14722CE3ED04D2593070002FC842C0846
:1002D00091471385044022CE3ED07925F1673744FB
:1002E000014093870720130504803ED24C10B707C6
:1002F0000C003ED602D423180102EF003007054659
:100300009305505213050480EF00701493070012F8
:10031000FC80080885473ECA23090100EF00C06D34
:10032000130504808545EF003011370400201307C2
:100330008403C14513850440A3010708230207086D
:1003400055258547631DF51C130484030546854523
:1003500013850440692D0347240885476313F70C70
:100360001C201830938681889CA230203C30931545
:100370000701C181AEA2D0A2DCB236C0AA86138327
:100380008188A28201459386818885020503634F97
:10039000E50422971833F915C2052393E6081313D1
:1003A00007011307140013530301C1813A853EC6A8
:1003B00032C41AC2413B1243B7040020938681889D
:1003C000938494032246B24763086502B70701810C
:1003D0009387A75A1CC085475CA0B70700201387E6
:1003E000970391453A85B93B48B041A883C3720051
:1003F0000505A302730051BF0147930500083305AB
:10040000E400230005000507E31BB7FE4147631A1C
:10041000E60009476385E7066363F70205476382E1
:10042000E704034734088547630CF7020347440891
:10043000E313F7F2054685453715014021BF0D4707
:10044000638DE7069546E39ED7FCB7070180938747
:10045000A75A1CC09145268558A0ED3148B0A53B50
:100460000D33B70701809387A75A1CC0930720104C
:100470005EA095452685F93168A0B13B5DB7792E20
:10048000B71700083E853EC0312182473EC05D2E31
:1004900005478247E30CE5FE9387070437470008CA
:1004A000E392E7FE492EB70701809387A75A1CC045
:1004B0008D452685413948A0C9B79E26FA22C20734
:1004C000D98F3EC2A12E0147824682473AC4CC262C
:1004D000BC37C205A207CD8FAC26CD8FCC36E20546
:1004E000DD8D92473385E700D52622473AC4992E01
:1004F00085472247E30CF5FE8247110791073EC06E
:100500009307C007E312F7FC3D26B70701809387E6
:10051000A75A1CC0C1475CA091452685E9B5014694
:10052000854537150140E12125BF711122C03744AF
:1005300001409305505213050480EF00407631CD01
:1005400013050480EF008074138651881C2237073E
:100550000020930687033383F60083C206088507CD
:100560001375F50F93F7F70F2300A3001CA2138355
:100570005188054693058703138761886393C202F8
:1005800010230DEE08A3238006083745014093058C
:10059000505213050580EF004074024411017300AE
:1005A00020309302A00A631B5500082301E9238031
:1005B000C6082381060823000700C1BF18230507CA
:1005C000E355F7FC85472381F5082300030075BF39
:1005D000EFF21FAD371402401C403707FFF86111DE
:1005E00093E717001CC05C404145F98F5CC01C407C
:1005F0003707F7FE7D17F98F1CC01C403707FCFF3B
:100600007D17F98F1CC05C4041777D17F98F5CC066
:10061000B7079F001CC491211C4C3706020093E7CA
:1006200007021CCCB717014003A707409386074079
:100630001377F7F023A0E74003A7074013670708E5
:1006400023A0E74089479CCA02C002C21C4C37075E
:100650000140A16693E717001CCC5C43D58F5CC3B7
:100660001C404167B7160240D98F1CC009679C42E5
:10067000F18F3EC2824785073EC0924781E782479D
:10068000E397E7FEB71702409C431397E7006358D0
:10069000070685473EC2124785476310F706B7270E
:1006A00002409843C176FD16719B98C39843136727
:1006B000170098C3B7170240D843D8C3D843758FE3
:1006C000D8C3D843C166558FD8C39843B706000135
:1006D000558F98C3984393166700E3DD06FED84311
:1006E000B7160240719BD8C3D84313672700D8C3FD
:1006F0002147DC42B18BE39EE7FE21017DB202C2BD
:1007000059BFEFF2FF99371702405C4337040020CE
:100710009146B18B130404016385D700A146638021
:10072000D704B7376E01938707601CC0B716024025
:10073000DC420840918313F7F700B7070020938746
:100740000700BA978C23DC4293F5F50F93F707085F
:100750003357B50099E39D322A8718C0B9B25C437C
:10076000B777DC02938707C0C9B701A097010020C3
:100770009381C10C138181FC1305000A97050020A9
:1007800093854588170600201306C68763FAC500BF
:100790008322050023A0550011059105E3EAC5FE5B
:1007A00017050000130505559705002093858585DD
:1007B000170600201306868863FAC5008322050009
:1007C00023A0550011059105E3EAC5FE1705002099
:1007D0001305C586938541916377B50023200500F5
:1007E0001105E36DB5FEB722000093820288739075
:1007F00002308D4273904280970200009382828083
:1008000093E2320073905230EFF09FDC97020000C9
:100810009382E2A07390123473002030B7076745CB
:1008200037270240938737125CC3B797EFCD938782
:10083000B79A5CC38280372702401C4B93E70708B6
:100840001CCB8280372702405C470545858B91E7AA
:1008500048474189133515000D058280372702402E
:100860005C470545858B91E748474189133515005D
:100870000D058280EFF2DF822A84CD378547631829
:10088000F50019E0154529A0D13F7D14C5BF7DD8DD
:100890006FF0BF81EFF2DF80AA8437050B00D93FEC
:1008A00091476313F502372402401C4837050B00BB
:1008B00093E727001CC844C81C4893E707041CC8DA
:1008C000553F1C48F59B1CC86FF02FFEEFF24FFD03
:1008D0006111AA8409652EC002C2693F1147824591
:1008E000631DE502372402401C48096593E71700A1
:1008F0001CC893970501C1839EA02EC0A53F114738
:1009000082456319E500890426C29247C1810965C1
:100910008EA38D371C48F99B1CC821016FF0EFF89E
:10092000EFF20FF8B717014013870780631AE5004D
:1009300085451145E52A81451145CD2A6FF0EFF631
:100940006318F50085454145D52281454145F5B7F8
:1009500093870740E314F5FE854513050002F9224D
:10096000814513050002D1BF944593F7060193F228
:10097000F60081C7DC41B3E2F20083D3050093F7B0
:10098000F30FA5C303230500611122C226C08147CE
:10099000130480029304800405473316F70033F7ED
:1009A000C3006312E602939527003D473317B70053
:1009B0001347F7FF33736700B395B20033E3650065
:1009C000639D860050C985072147E397E7FC1244E1
:1009D00023206500824421018280E39696FE10C99F
:1009E000DDB7828008456D8D3335A000828019C245
:1009F0000CC982804CC9828083A601918547182149
:100A00006390F6021C31639CD7023C219A0793E75E
:100A100007F8B7E600E093F7F70FBA962380F640A1
:100A20008546935757003397E600544189CE938704
:100A300007048A07B7E600E0B69798C38280EDF313
:100A40003C219A07F9B793870706B7E600E08A07C3
:100A5000B69798C30F1000008280371702401C43DE
:100A60000E0593F777F05D8D08C38280EFF24FE3B8
:100A7000371702405C4391462A84B18B6385D700C7
:100A8000A1466380D708B7376E01938707601CC003
:100A9000B7160240DC42918313F7F700B707002036
:100AA00093878702BA978C23DC42184093F5F50FA1
:100AB00093F707083355B70081E73A85EFF00FE069
:100AC00048C008C448C4B7170240DC438D46AD8314
:100AD000FD8B13D737008A07F18BD98F13F63701B7
:100AE00013F7370063F4C600138747FFB7070020EA
:100AF00093874701BA978C23EFF04FDC08C86FF05B
:100B0000CFDA5C43B777DC02938707C049B799C552
:100B1000371702401C4F5D8D08CF8280B717024007
:100B2000984F1345F5FF798D88CF828099C5371787
:100B300002405C475D8D48C78280B7170240D847A6
:100B40001345F5FF798DC8C78280B7470140938769
:100B50000780631CF500EFF2AFD485451165F937C6
:100B600081451165E1376FF04FD48280EFF24FD3AA
:100B70001629F577FD17F58FF621DA252111D58F86
:100B80001EA95625FD779387379FF58FD6212A8496
:100B90002EC0D58F9625D58FB625D58F5EA55E291B
:100BA000C207C18393F7F7CF5D8F5AA948007D3DF7
:100BB000B74701409387078082456312F406C24716
:100BC0005A24139517003E9542070E0541873E951E
:100BD0008C41635807048605EFF04FCE930540061D
:100BE0002AC0EFF0AFCD824793144500930540062D
:100BF0003E85EFF06FCF5E24C207C18763D5070241
:100C00000E059305400613052503EFF02FCB1D8934
:100C1000C98CC204C18006A461016FF00FC9B2473C
:100C200045B78A0555BF12059305400613052503F0
:100C3000EFF0CFC83D89E9BF91C55E250967D98F1F
:100C40005EA582805A25F977FD17F98FD5BF13F776
:100C5000F50F85471583B395B7006319F700930720
:100C6000C500984301CED98D8CC3828089469307F5
:100C70004501E318D7FE93070501E5B793C5F5FFD6
:100C8000F98DDDB793F5F51F4EA182804A211375CA
:100C9000F51F82800A216D8D3335A000828013F705
:100CA000F50F85461583B397B6006311D7025A2511
:100CB000F98F1A2101454207418381CB0545A18166
:100CC000B315B5006D8F3335E0008280894663141B
:100CD000D7001A29F1BF5A29E1BFA1818547B397EF
:100CE000B70093C7F7FFC207C1831EA1828000002F
:100CF00001020304050607080102030405060708AC
:100D0000006CDC020204060804080C10081018200D
:100D100010203040204060800102030405060708CF
:080D20000102030405060708A7
:00000001FF
